{
	"Notas/notas.sol": {
		"notas": {
			"abi": [
				{
					"inputs": [],
					"stateMutability": "nonpayable",
					"type": "constructor"
				},
				{
					"anonymous": false,
					"inputs": [
						{
							"indexed": false,
							"internalType": "bytes32",
							"name": "",
							"type": "bytes32"
						}
					],
					"name": "alumno_evaluado",
					"type": "event"
				},
				{
					"anonymous": false,
					"inputs": [
						{
							"indexed": false,
							"internalType": "string",
							"name": "",
							"type": "string"
						}
					],
					"name": "evento_revision",
					"type": "event"
				},
				{
					"inputs": [
						{
							"internalType": "string",
							"name": "_idAlumno",
							"type": "string"
						},
						{
							"internalType": "uint256",
							"name": "_nota",
							"type": "uint256"
						}
					],
					"name": "evaluar",
					"outputs": [],
					"stateMutability": "nonpayable",
					"type": "function"
				},
				{
					"inputs": [],
					"name": "profesor",
					"outputs": [
						{
							"internalType": "address",
							"name": "",
							"type": "address"
						}
					],
					"stateMutability": "view",
					"type": "function"
				},
				{
					"inputs": [
						{
							"internalType": "string",
							"name": "_idAlumno",
							"type": "string"
						}
					],
					"name": "revision",
					"outputs": [],
					"stateMutability": "nonpayable",
					"type": "function"
				},
				{
					"inputs": [
						{
							"internalType": "string",
							"name": "_idAlumno",
							"type": "string"
						}
					],
					"name": "verNotas",
					"outputs": [
						{
							"internalType": "uint256",
							"name": "",
							"type": "uint256"
						}
					],
					"stateMutability": "view",
					"type": "function"
				},
				{
					"inputs": [],
					"name": "verRevision",
					"outputs": [
						{
							"internalType": "string[]",
							"name": "",
							"type": "string[]"
						}
					],
					"stateMutability": "view",
					"type": "function"
				}
			],
			"devdoc": {
				"kind": "dev",
				"methods": {},
				"version": 1
			},
			"evm": {
				"assembly": "    /* \"Notas/notas.sol\":97:1435  contract notas {\r... */\n  mstore(0x40, 0x80)\n    /* \"Notas/notas.sol\":219:273  constructor() {\r... */\n  callvalue\n  dup1\n  iszero\n  tag_1\n  jumpi\n  0x00\n  dup1\n  revert\ntag_1:\n  pop\n    /* \"Notas/notas.sol\":255:265  msg.sender */\n  caller\n    /* \"Notas/notas.sol\":244:252  profesor */\n  0x00\n  dup1\n    /* \"Notas/notas.sol\":244:265  profesor = msg.sender */\n  0x0100\n  exp\n  dup2\n  sload\n  dup2\n  0xffffffffffffffffffffffffffffffffffffffff\n  mul\n  not\n  and\n  swap1\n  dup4\n  0xffffffffffffffffffffffffffffffffffffffff\n  and\n  mul\n  or\n  swap1\n  sstore\n  pop\n    /* \"Notas/notas.sol\":97:1435  contract notas {\r... */\n  dataSize(sub_0)\n  dup1\n  dataOffset(sub_0)\n  0x00\n  codecopy\n  0x00\n  return\nstop\n\nsub_0: assembly {\n        /* \"Notas/notas.sol\":97:1435  contract notas {\r... */\n      mstore(0x40, 0x80)\n      callvalue\n      dup1\n      iszero\n      tag_1\n      jumpi\n      0x00\n      dup1\n      revert\n    tag_1:\n      pop\n      jumpi(tag_2, lt(calldatasize, 0x04))\n      shr(0xe0, calldataload(0x00))\n      dup1\n      0x383bebae\n      eq\n      tag_3\n      jumpi\n      dup1\n      0x7345fc20\n      eq\n      tag_4\n      jumpi\n      dup1\n      0xca981d91\n      eq\n      tag_5\n      jumpi\n      dup1\n      0xdeafddae\n      eq\n      tag_6\n      jumpi\n      dup1\n      0xdf096576\n      eq\n      tag_7\n      jumpi\n    tag_2:\n      0x00\n      dup1\n      revert\n        /* \"Notas/notas.sol\":667:918  function evaluar(string memory _idAlumno, uint _nota) public OnlyTeacher(msg.sender) {\r... */\n    tag_3:\n      tag_8\n      0x04\n      dup1\n      calldatasize\n      sub\n      dup2\n      add\n      swap1\n      tag_9\n      swap2\n      swap1\n      tag_10\n      jump\t// in\n    tag_9:\n      tag_11\n      jump\t// in\n    tag_8:\n      stop\n        /* \"Notas/notas.sol\":1313:1432  function verRevision() public view OnlyTeacher(msg.sender) returns(string[] memory){\r... */\n    tag_4:\n      tag_12\n      tag_13\n      jump\t// in\n    tag_12:\n      mload(0x40)\n      tag_14\n      swap2\n      swap1\n      tag_15\n      jump\t// in\n    tag_14:\n      mload(0x40)\n      dup1\n      swap2\n      sub\n      swap1\n      return\n        /* \"Notas/notas.sol\":1168:1305  function revision(string memory _idAlumno) public {\r... */\n    tag_5:\n      tag_16\n      0x04\n      dup1\n      calldatasize\n      sub\n      dup2\n      add\n      swap1\n      tag_17\n      swap2\n      swap1\n      tag_18\n      jump\t// in\n    tag_17:\n      tag_19\n      jump\t// in\n    tag_16:\n      stop\n        /* \"Notas/notas.sol\":926:1156  function verNotas(string memory _idAlumno) public view returns(uint) {\r... */\n    tag_6:\n      tag_20\n      0x04\n      dup1\n      calldatasize\n      sub\n      dup2\n      add\n      swap1\n      tag_21\n      swap2\n      swap1\n      tag_18\n      jump\t// in\n    tag_21:\n      tag_22\n      jump\t// in\n    tag_20:\n      mload(0x40)\n      tag_23\n      swap2\n      swap1\n      tag_24\n      jump\t// in\n    tag_23:\n      mload(0x40)\n      dup1\n      swap2\n      sub\n      swap1\n      return\n        /* \"Notas/notas.sol\":119:142  address public profesor */\n    tag_7:\n      tag_25\n      tag_26\n      jump\t// in\n    tag_25:\n      mload(0x40)\n      tag_27\n      swap2\n      swap1\n      tag_28\n      jump\t// in\n    tag_27:\n      mload(0x40)\n      dup1\n      swap2\n      sub\n      swap1\n      return\n        /* \"Notas/notas.sol\":667:918  function evaluar(string memory _idAlumno, uint _nota) public OnlyTeacher(msg.sender) {\r... */\n    tag_11:\n        /* \"Notas/notas.sol\":740:750  msg.sender */\n      caller\n        /* \"Notas/notas.sol\":583:591  profesor */\n      0x00\n      dup1\n      sload\n      swap1\n      0x0100\n      exp\n      swap1\n      div\n      0xffffffffffffffffffffffffffffffffffffffff\n      and\n        /* \"Notas/notas.sol\":569:591  _direccion == profesor */\n      0xffffffffffffffffffffffffffffffffffffffff\n      and\n        /* \"Notas/notas.sol\":569:579  _direccion */\n      dup2\n        /* \"Notas/notas.sol\":569:591  _direccion == profesor */\n      0xffffffffffffffffffffffffffffffffffffffff\n      and\n      eq\n        /* \"Notas/notas.sol\":561:616  require(_direccion == profesor, \"No eres el profesor.\") */\n      tag_30\n      jumpi\n      mload(0x40)\n      0x08c379a000000000000000000000000000000000000000000000000000000000\n      dup2\n      mstore\n      0x04\n      add\n      tag_31\n      swap1\n      tag_32\n      jump\t// in\n    tag_31:\n      mload(0x40)\n      dup1\n      swap2\n      sub\n      swap1\n      revert\n    tag_30:\n        /* \"Notas/notas.sol\":763:784  bytes32 hash_idAlumno */\n      0x00\n        /* \"Notas/notas.sol\":814:823  _idAlumno */\n      dup4\n        /* \"Notas/notas.sol\":797:824  abi.encodePacked(_idAlumno) */\n      add(0x20, mload(0x40))\n      tag_34\n      swap2\n      swap1\n      tag_35\n      jump\t// in\n    tag_34:\n      mload(0x40)\n      0x20\n      dup2\n      dup4\n      sub\n      sub\n      dup2\n      mstore\n      swap1\n      0x40\n      mstore\n        /* \"Notas/notas.sol\":787:825  keccak256(abi.encodePacked(_idAlumno)) */\n      dup1\n      mload\n      swap1\n      0x20\n      add\n      keccak256\n        /* \"Notas/notas.sol\":763:825  bytes32 hash_idAlumno = keccak256(abi.encodePacked(_idAlumno)) */\n      swap1\n      pop\n        /* \"Notas/notas.sol\":859:864  _nota */\n      dup3\n        /* \"Notas/notas.sol\":836:841  Notas */\n      0x01\n        /* \"Notas/notas.sol\":836:856  Notas[hash_idAlumno] */\n      0x00\n        /* \"Notas/notas.sol\":842:855  hash_idAlumno */\n      dup4\n        /* \"Notas/notas.sol\":836:856  Notas[hash_idAlumno] */\n      dup2\n      mstore\n      0x20\n      add\n      swap1\n      dup2\n      mstore\n      0x20\n      add\n      0x00\n      keccak256\n        /* \"Notas/notas.sol\":836:864  Notas[hash_idAlumno] = _nota */\n      dup2\n      swap1\n      sstore\n      pop\n        /* \"Notas/notas.sol\":880:910  alumno_evaluado(hash_idAlumno) */\n      0x9129eeeb684507aca017f10030b70e5bf86d129f417fcc5840348a957eb12cee\n        /* \"Notas/notas.sol\":896:909  hash_idAlumno */\n      dup2\n        /* \"Notas/notas.sol\":880:910  alumno_evaluado(hash_idAlumno) */\n      mload(0x40)\n      tag_36\n      swap2\n      swap1\n      tag_37\n      jump\t// in\n    tag_36:\n      mload(0x40)\n      dup1\n      swap2\n      sub\n      swap1\n      log1\n        /* \"Notas/notas.sol\":752:918  {\r... */\n      pop\n        /* \"Notas/notas.sol\":667:918  function evaluar(string memory _idAlumno, uint _nota) public OnlyTeacher(msg.sender) {\r... */\n      pop\n      pop\n      pop\n      jump\t// out\n        /* \"Notas/notas.sol\":1313:1432  function verRevision() public view OnlyTeacher(msg.sender) returns(string[] memory){\r... */\n    tag_13:\n        /* \"Notas/notas.sol\":1380:1395  string[] memory */\n      0x60\n        /* \"Notas/notas.sol\":1360:1370  msg.sender */\n      caller\n        /* \"Notas/notas.sol\":583:591  profesor */\n      0x00\n      dup1\n      sload\n      swap1\n      0x0100\n      exp\n      swap1\n      div\n      0xffffffffffffffffffffffffffffffffffffffff\n      and\n        /* \"Notas/notas.sol\":569:591  _direccion == profesor */\n      0xffffffffffffffffffffffffffffffffffffffff\n      and\n        /* \"Notas/notas.sol\":569:579  _direccion */\n      dup2\n        /* \"Notas/notas.sol\":569:591  _direccion == profesor */\n      0xffffffffffffffffffffffffffffffffffffffff\n      and\n      eq\n        /* \"Notas/notas.sol\":561:616  require(_direccion == profesor, \"No eres el profesor.\") */\n      tag_39\n      jumpi\n      mload(0x40)\n      0x08c379a000000000000000000000000000000000000000000000000000000000\n      dup2\n      mstore\n      0x04\n      add\n      tag_40\n      swap1\n      tag_32\n      jump\t// in\n    tag_40:\n      mload(0x40)\n      dup1\n      swap2\n      sub\n      swap1\n      revert\n    tag_39:\n        /* \"Notas/notas.sol\":1414:1424  revisiones */\n      0x02\n        /* \"Notas/notas.sol\":1407:1424  return revisiones */\n      dup1\n      sload\n      dup1\n      0x20\n      mul\n      0x20\n      add\n      mload(0x40)\n      swap1\n      dup2\n      add\n      0x40\n      mstore\n      dup1\n      swap3\n      swap2\n      swap1\n      dup2\n      dup2\n      mstore\n      0x20\n      add\n      0x00\n      swap1\n    tag_42:\n      dup3\n      dup3\n      lt\n      iszero\n      tag_43\n      jumpi\n      dup4\n      dup3\n      swap1\n      0x00\n      mstore\n      keccak256(0x00, 0x20)\n      add\n      dup1\n      sload\n      tag_45\n      swap1\n      tag_46\n      jump\t// in\n    tag_45:\n      dup1\n      0x1f\n      add\n      0x20\n      dup1\n      swap2\n      div\n      mul\n      0x20\n      add\n      mload(0x40)\n      swap1\n      dup2\n      add\n      0x40\n      mstore\n      dup1\n      swap3\n      swap2\n      swap1\n      dup2\n      dup2\n      mstore\n      0x20\n      add\n      dup3\n      dup1\n      sload\n      tag_47\n      swap1\n      tag_46\n      jump\t// in\n    tag_47:\n      dup1\n      iszero\n      tag_48\n      jumpi\n      dup1\n      0x1f\n      lt\n      tag_49\n      jumpi\n      0x0100\n      dup1\n      dup4\n      sload\n      div\n      mul\n      dup4\n      mstore\n      swap2\n      0x20\n      add\n      swap2\n      jump(tag_48)\n    tag_49:\n      dup3\n      add\n      swap2\n      swap1\n      0x00\n      mstore\n      keccak256(0x00, 0x20)\n      swap1\n    tag_50:\n      dup2\n      sload\n      dup2\n      mstore\n      swap1\n      0x01\n      add\n      swap1\n      0x20\n      add\n      dup1\n      dup4\n      gt\n      tag_50\n      jumpi\n      dup3\n      swap1\n      sub\n      0x1f\n      and\n      dup3\n      add\n      swap2\n    tag_48:\n      pop\n      pop\n      pop\n      pop\n      pop\n      dup2\n      mstore\n      0x20\n      add\n      swap1\n      0x01\n      add\n      swap1\n      jump(tag_42)\n    tag_43:\n      pop\n      pop\n      pop\n      pop\n      swap2\n      pop\n        /* \"Notas/notas.sol\":1313:1432  function verRevision() public view OnlyTeacher(msg.sender) returns(string[] memory){\r... */\n      pop\n      swap1\n      jump\t// out\n        /* \"Notas/notas.sol\":1168:1305  function revision(string memory _idAlumno) public {\r... */\n    tag_19:\n        /* \"Notas/notas.sol\":1229:1239  revisiones */\n      0x02\n        /* \"Notas/notas.sol\":1245:1254  _idAlumno */\n      dup2\n        /* \"Notas/notas.sol\":1229:1255  revisiones.push(_idAlumno) */\n      swap1\n      dup1\n      0x01\n      dup2\n      sload\n      add\n      dup1\n      dup3\n      sstore\n      dup1\n      swap2\n      pop\n      pop\n      0x01\n      swap1\n      sub\n      swap1\n      0x00\n      mstore\n      keccak256(0x00, 0x20)\n      add\n      0x00\n      swap1\n      swap2\n      swap1\n      swap2\n      swap1\n      swap2\n      pop\n      swap1\n      dup1\n      mload\n      swap1\n      0x20\n      add\n      swap1\n      tag_53\n      swap3\n      swap2\n      swap1\n      tag_54\n      jump\t// in\n    tag_53:\n      pop\n        /* \"Notas/notas.sol\":1271:1297  evento_revision(_idAlumno) */\n      0xafd73f39162aa4c0421f362f3a3d26f44b23c73253256cfc1c68794b0973e0a0\n        /* \"Notas/notas.sol\":1287:1296  _idAlumno */\n      dup2\n        /* \"Notas/notas.sol\":1271:1297  evento_revision(_idAlumno) */\n      mload(0x40)\n      tag_55\n      swap2\n      swap1\n      tag_56\n      jump\t// in\n    tag_55:\n      mload(0x40)\n      dup1\n      swap2\n      sub\n      swap1\n      log1\n        /* \"Notas/notas.sol\":1168:1305  function revision(string memory _idAlumno) public {\r... */\n      pop\n      jump\t// out\n        /* \"Notas/notas.sol\":926:1156  function verNotas(string memory _idAlumno) public view returns(uint) {\r... */\n    tag_22:\n        /* \"Notas/notas.sol\":989:993  uint */\n      0x00\n        /* \"Notas/notas.sol\":1006:1027  bytes32 hash_idAlumno */\n      dup1\n        /* \"Notas/notas.sol\":1057:1066  _idAlumno */\n      dup3\n        /* \"Notas/notas.sol\":1040:1067  abi.encodePacked(_idAlumno) */\n      add(0x20, mload(0x40))\n      tag_58\n      swap2\n      swap1\n      tag_35\n      jump\t// in\n    tag_58:\n      mload(0x40)\n      0x20\n      dup2\n      dup4\n      sub\n      sub\n      dup2\n      mstore\n      swap1\n      0x40\n      mstore\n        /* \"Notas/notas.sol\":1030:1068  keccak256(abi.encodePacked(_idAlumno)) */\n      dup1\n      mload\n      swap1\n      0x20\n      add\n      keccak256\n        /* \"Notas/notas.sol\":1006:1068  bytes32 hash_idAlumno = keccak256(abi.encodePacked(_idAlumno)) */\n      swap1\n      pop\n        /* \"Notas/notas.sol\":1079:1095  uint nota_alumno */\n      0x00\n        /* \"Notas/notas.sol\":1098:1103  Notas */\n      0x01\n        /* \"Notas/notas.sol\":1098:1118  Notas[hash_idAlumno] */\n      0x00\n        /* \"Notas/notas.sol\":1104:1117  hash_idAlumno */\n      dup4\n        /* \"Notas/notas.sol\":1098:1118  Notas[hash_idAlumno] */\n      dup2\n      mstore\n      0x20\n      add\n      swap1\n      dup2\n      mstore\n      0x20\n      add\n      0x00\n      keccak256\n      sload\n        /* \"Notas/notas.sol\":1079:1118  uint nota_alumno = Notas[hash_idAlumno] */\n      swap1\n      pop\n        /* \"Notas/notas.sol\":1137:1148  nota_alumno */\n      dup1\n        /* \"Notas/notas.sol\":1129:1148  return  nota_alumno */\n      swap3\n      pop\n      pop\n      pop\n        /* \"Notas/notas.sol\":926:1156  function verNotas(string memory _idAlumno) public view returns(uint) {\r... */\n      swap2\n      swap1\n      pop\n      jump\t// out\n        /* \"Notas/notas.sol\":119:142  address public profesor */\n    tag_26:\n      0x00\n      dup1\n      sload\n      swap1\n      0x0100\n      exp\n      swap1\n      div\n      0xffffffffffffffffffffffffffffffffffffffff\n      and\n      dup2\n      jump\t// out\n    tag_54:\n      dup3\n      dup1\n      sload\n      tag_59\n      swap1\n      tag_46\n      jump\t// in\n    tag_59:\n      swap1\n      0x00\n      mstore\n      keccak256(0x00, 0x20)\n      swap1\n      0x1f\n      add\n      0x20\n      swap1\n      div\n      dup2\n      add\n      swap3\n      dup3\n      tag_61\n      jumpi\n      0x00\n      dup6\n      sstore\n      jump(tag_60)\n    tag_61:\n      dup3\n      0x1f\n      lt\n      tag_62\n      jumpi\n      dup1\n      mload\n      not(0xff)\n      and\n      dup4\n      dup1\n      add\n      or\n      dup6\n      sstore\n      jump(tag_60)\n    tag_62:\n      dup3\n      dup1\n      add\n      0x01\n      add\n      dup6\n      sstore\n      dup3\n      iszero\n      tag_60\n      jumpi\n      swap2\n      dup3\n      add\n    tag_63:\n      dup3\n      dup2\n      gt\n      iszero\n      tag_64\n      jumpi\n      dup3\n      mload\n      dup3\n      sstore\n      swap2\n      0x20\n      add\n      swap2\n      swap1\n      0x01\n      add\n      swap1\n      jump(tag_63)\n    tag_64:\n    tag_60:\n      pop\n      swap1\n      pop\n      tag_65\n      swap2\n      swap1\n      tag_66\n      jump\t// in\n    tag_65:\n      pop\n      swap1\n      jump\t// out\n    tag_66:\n    tag_67:\n      dup1\n      dup3\n      gt\n      iszero\n      tag_68\n      jumpi\n      0x00\n      dup2\n      0x00\n      swap1\n      sstore\n      pop\n      0x01\n      add\n      jump(tag_67)\n    tag_68:\n      pop\n      swap1\n      jump\t// out\n        /* \"#utility.yul\":7:419   */\n    tag_70:\n        /* \"#utility.yul\":85:90   */\n      0x00\n        /* \"#utility.yul\":110:176   */\n      tag_72\n        /* \"#utility.yul\":126:175   */\n      tag_73\n        /* \"#utility.yul\":168:174   */\n      dup5\n        /* \"#utility.yul\":126:175   */\n      tag_74\n      jump\t// in\n    tag_73:\n        /* \"#utility.yul\":110:176   */\n      tag_75\n      jump\t// in\n    tag_72:\n        /* \"#utility.yul\":101:176   */\n      swap1\n      pop\n        /* \"#utility.yul\":199:205   */\n      dup3\n        /* \"#utility.yul\":192:197   */\n      dup2\n        /* \"#utility.yul\":185:206   */\n      mstore\n        /* \"#utility.yul\":237:241   */\n      0x20\n        /* \"#utility.yul\":230:235   */\n      dup2\n        /* \"#utility.yul\":226:242   */\n      add\n        /* \"#utility.yul\":275:278   */\n      dup5\n        /* \"#utility.yul\":266:272   */\n      dup5\n        /* \"#utility.yul\":261:264   */\n      dup5\n        /* \"#utility.yul\":257:273   */\n      add\n        /* \"#utility.yul\":254:279   */\n      gt\n        /* \"#utility.yul\":251:363   */\n      iszero\n      tag_76\n      jumpi\n        /* \"#utility.yul\":282:361   */\n      tag_77\n      tag_78\n      jump\t// in\n    tag_77:\n        /* \"#utility.yul\":251:363   */\n    tag_76:\n        /* \"#utility.yul\":372:413   */\n      tag_79\n        /* \"#utility.yul\":406:412   */\n      dup5\n        /* \"#utility.yul\":401:404   */\n      dup3\n        /* \"#utility.yul\":396:399   */\n      dup6\n        /* \"#utility.yul\":372:413   */\n      tag_80\n      jump\t// in\n    tag_79:\n        /* \"#utility.yul\":91:419   */\n      pop\n        /* \"#utility.yul\":7:419   */\n      swap4\n      swap3\n      pop\n      pop\n      pop\n      jump\t// out\n        /* \"#utility.yul\":439:779   */\n    tag_81:\n        /* \"#utility.yul\":495:500   */\n      0x00\n        /* \"#utility.yul\":544:547   */\n      dup3\n        /* \"#utility.yul\":537:541   */\n      0x1f\n        /* \"#utility.yul\":529:535   */\n      dup4\n        /* \"#utility.yul\":525:542   */\n      add\n        /* \"#utility.yul\":521:548   */\n      slt\n        /* \"#utility.yul\":511:633   */\n      tag_83\n      jumpi\n        /* \"#utility.yul\":552:631   */\n      tag_84\n      tag_85\n      jump\t// in\n    tag_84:\n        /* \"#utility.yul\":511:633   */\n    tag_83:\n        /* \"#utility.yul\":669:675   */\n      dup2\n        /* \"#utility.yul\":656:676   */\n      calldataload\n        /* \"#utility.yul\":694:773   */\n      tag_86\n        /* \"#utility.yul\":769:772   */\n      dup5\n        /* \"#utility.yul\":761:767   */\n      dup3\n        /* \"#utility.yul\":754:758   */\n      0x20\n        /* \"#utility.yul\":746:752   */\n      dup7\n        /* \"#utility.yul\":742:759   */\n      add\n        /* \"#utility.yul\":694:773   */\n      tag_70\n      jump\t// in\n    tag_86:\n        /* \"#utility.yul\":685:773   */\n      swap2\n      pop\n        /* \"#utility.yul\":501:779   */\n      pop\n        /* \"#utility.yul\":439:779   */\n      swap3\n      swap2\n      pop\n      pop\n      jump\t// out\n        /* \"#utility.yul\":785:924   */\n    tag_87:\n        /* \"#utility.yul\":831:836   */\n      0x00\n        /* \"#utility.yul\":869:875   */\n      dup2\n        /* \"#utility.yul\":856:876   */\n      calldataload\n        /* \"#utility.yul\":847:876   */\n      swap1\n      pop\n        /* \"#utility.yul\":885:918   */\n      tag_89\n        /* \"#utility.yul\":912:917   */\n      dup2\n        /* \"#utility.yul\":885:918   */\n      tag_90\n      jump\t// in\n    tag_89:\n        /* \"#utility.yul\":785:924   */\n      swap3\n      swap2\n      pop\n      pop\n      jump\t// out\n        /* \"#utility.yul\":930:1439   */\n    tag_18:\n        /* \"#utility.yul\":999:1005   */\n      0x00\n        /* \"#utility.yul\":1048:1050   */\n      0x20\n        /* \"#utility.yul\":1036:1045   */\n      dup3\n        /* \"#utility.yul\":1027:1034   */\n      dup5\n        /* \"#utility.yul\":1023:1046   */\n      sub\n        /* \"#utility.yul\":1019:1051   */\n      slt\n        /* \"#utility.yul\":1016:1135   */\n      iszero\n      tag_92\n      jumpi\n        /* \"#utility.yul\":1054:1133   */\n      tag_93\n      tag_94\n      jump\t// in\n    tag_93:\n        /* \"#utility.yul\":1016:1135   */\n    tag_92:\n        /* \"#utility.yul\":1202:1203   */\n      0x00\n        /* \"#utility.yul\":1191:1200   */\n      dup3\n        /* \"#utility.yul\":1187:1204   */\n      add\n        /* \"#utility.yul\":1174:1205   */\n      calldataload\n        /* \"#utility.yul\":1232:1250   */\n      0xffffffffffffffff\n        /* \"#utility.yul\":1224:1230   */\n      dup2\n        /* \"#utility.yul\":1221:1251   */\n      gt\n        /* \"#utility.yul\":1218:1335   */\n      iszero\n      tag_95\n      jumpi\n        /* \"#utility.yul\":1254:1333   */\n      tag_96\n      tag_97\n      jump\t// in\n    tag_96:\n        /* \"#utility.yul\":1218:1335   */\n    tag_95:\n        /* \"#utility.yul\":1359:1422   */\n      tag_98\n        /* \"#utility.yul\":1414:1421   */\n      dup5\n        /* \"#utility.yul\":1405:1411   */\n      dup3\n        /* \"#utility.yul\":1394:1403   */\n      dup6\n        /* \"#utility.yul\":1390:1412   */\n      add\n        /* \"#utility.yul\":1359:1422   */\n      tag_81\n      jump\t// in\n    tag_98:\n        /* \"#utility.yul\":1349:1422   */\n      swap2\n      pop\n        /* \"#utility.yul\":1145:1432   */\n      pop\n        /* \"#utility.yul\":930:1439   */\n      swap3\n      swap2\n      pop\n      pop\n      jump\t// out\n        /* \"#utility.yul\":1445:2099   */\n    tag_10:\n        /* \"#utility.yul\":1523:1529   */\n      0x00\n        /* \"#utility.yul\":1531:1537   */\n      dup1\n        /* \"#utility.yul\":1580:1582   */\n      0x40\n        /* \"#utility.yul\":1568:1577   */\n      dup4\n        /* \"#utility.yul\":1559:1566   */\n      dup6\n        /* \"#utility.yul\":1555:1578   */\n      sub\n        /* \"#utility.yul\":1551:1583   */\n      slt\n        /* \"#utility.yul\":1548:1667   */\n      iszero\n      tag_100\n      jumpi\n        /* \"#utility.yul\":1586:1665   */\n      tag_101\n      tag_94\n      jump\t// in\n    tag_101:\n        /* \"#utility.yul\":1548:1667   */\n    tag_100:\n        /* \"#utility.yul\":1734:1735   */\n      0x00\n        /* \"#utility.yul\":1723:1732   */\n      dup4\n        /* \"#utility.yul\":1719:1736   */\n      add\n        /* \"#utility.yul\":1706:1737   */\n      calldataload\n        /* \"#utility.yul\":1764:1782   */\n      0xffffffffffffffff\n        /* \"#utility.yul\":1756:1762   */\n      dup2\n        /* \"#utility.yul\":1753:1783   */\n      gt\n        /* \"#utility.yul\":1750:1867   */\n      iszero\n      tag_102\n      jumpi\n        /* \"#utility.yul\":1786:1865   */\n      tag_103\n      tag_97\n      jump\t// in\n    tag_103:\n        /* \"#utility.yul\":1750:1867   */\n    tag_102:\n        /* \"#utility.yul\":1891:1954   */\n      tag_104\n        /* \"#utility.yul\":1946:1953   */\n      dup6\n        /* \"#utility.yul\":1937:1943   */\n      dup3\n        /* \"#utility.yul\":1926:1935   */\n      dup7\n        /* \"#utility.yul\":1922:1944   */\n      add\n        /* \"#utility.yul\":1891:1954   */\n      tag_81\n      jump\t// in\n    tag_104:\n        /* \"#utility.yul\":1881:1954   */\n      swap3\n      pop\n        /* \"#utility.yul\":1677:1964   */\n      pop\n        /* \"#utility.yul\":2003:2005   */\n      0x20\n        /* \"#utility.yul\":2029:2082   */\n      tag_105\n        /* \"#utility.yul\":2074:2081   */\n      dup6\n        /* \"#utility.yul\":2065:2071   */\n      dup3\n        /* \"#utility.yul\":2054:2063   */\n      dup7\n        /* \"#utility.yul\":2050:2072   */\n      add\n        /* \"#utility.yul\":2029:2082   */\n      tag_87\n      jump\t// in\n    tag_105:\n        /* \"#utility.yul\":2019:2082   */\n      swap2\n      pop\n        /* \"#utility.yul\":1974:2092   */\n      pop\n        /* \"#utility.yul\":1445:2099   */\n      swap3\n      pop\n      swap3\n      swap1\n      pop\n      jump\t// out\n        /* \"#utility.yul\":2105:2301   */\n    tag_106:\n        /* \"#utility.yul\":2194:2204   */\n      0x00\n        /* \"#utility.yul\":2229:2295   */\n      tag_108\n        /* \"#utility.yul\":2291:2294   */\n      dup4\n        /* \"#utility.yul\":2283:2289   */\n      dup4\n        /* \"#utility.yul\":2229:2295   */\n      tag_109\n      jump\t// in\n    tag_108:\n        /* \"#utility.yul\":2215:2295   */\n      swap1\n      pop\n        /* \"#utility.yul\":2105:2301   */\n      swap3\n      swap2\n      pop\n      pop\n      jump\t// out\n        /* \"#utility.yul\":2307:2425   */\n    tag_110:\n        /* \"#utility.yul\":2394:2418   */\n      tag_112\n        /* \"#utility.yul\":2412:2417   */\n      dup2\n        /* \"#utility.yul\":2394:2418   */\n      tag_113\n      jump\t// in\n    tag_112:\n        /* \"#utility.yul\":2389:2392   */\n      dup3\n        /* \"#utility.yul\":2382:2419   */\n      mstore\n        /* \"#utility.yul\":2307:2425   */\n      pop\n      pop\n      jump\t// out\n        /* \"#utility.yul\":2459:3450   */\n    tag_114:\n        /* \"#utility.yul\":2598:2601   */\n      0x00\n        /* \"#utility.yul\":2627:2691   */\n      tag_116\n        /* \"#utility.yul\":2685:2690   */\n      dup3\n        /* \"#utility.yul\":2627:2691   */\n      tag_117\n      jump\t// in\n    tag_116:\n        /* \"#utility.yul\":2707:2803   */\n      tag_118\n        /* \"#utility.yul\":2796:2802   */\n      dup2\n        /* \"#utility.yul\":2791:2794   */\n      dup6\n        /* \"#utility.yul\":2707:2803   */\n      tag_119\n      jump\t// in\n    tag_118:\n        /* \"#utility.yul\":2700:2803   */\n      swap4\n      pop\n        /* \"#utility.yul\":2829:2832   */\n      dup4\n        /* \"#utility.yul\":2874:2878   */\n      0x20\n        /* \"#utility.yul\":2866:2872   */\n      dup3\n        /* \"#utility.yul\":2862:2879   */\n      mul\n        /* \"#utility.yul\":2857:2860   */\n      dup6\n        /* \"#utility.yul\":2853:2880   */\n      add\n        /* \"#utility.yul\":2904:2970   */\n      tag_120\n        /* \"#utility.yul\":2964:2969   */\n      dup6\n        /* \"#utility.yul\":2904:2970   */\n      tag_121\n      jump\t// in\n    tag_120:\n        /* \"#utility.yul\":2993:3000   */\n      dup1\n        /* \"#utility.yul\":3024:3025   */\n      0x00\n        /* \"#utility.yul\":3009:3405   */\n    tag_122:\n        /* \"#utility.yul\":3034:3040   */\n      dup6\n        /* \"#utility.yul\":3031:3032   */\n      dup2\n        /* \"#utility.yul\":3028:3041   */\n      lt\n        /* \"#utility.yul\":3009:3405   */\n      iszero\n      tag_124\n      jumpi\n        /* \"#utility.yul\":3105:3114   */\n      dup5\n        /* \"#utility.yul\":3099:3103   */\n      dup5\n        /* \"#utility.yul\":3095:3115   */\n      sub\n        /* \"#utility.yul\":3090:3093   */\n      dup10\n        /* \"#utility.yul\":3083:3116   */\n      mstore\n        /* \"#utility.yul\":3156:3162   */\n      dup2\n        /* \"#utility.yul\":3150:3163   */\n      mload\n        /* \"#utility.yul\":3184:3268   */\n      tag_125\n        /* \"#utility.yul\":3263:3267   */\n      dup6\n        /* \"#utility.yul\":3248:3261   */\n      dup3\n        /* \"#utility.yul\":3184:3268   */\n      tag_106\n      jump\t// in\n    tag_125:\n        /* \"#utility.yul\":3176:3268   */\n      swap5\n      pop\n        /* \"#utility.yul\":3291:3361   */\n      tag_126\n        /* \"#utility.yul\":3354:3360   */\n      dup4\n        /* \"#utility.yul\":3291:3361   */\n      tag_127\n      jump\t// in\n    tag_126:\n        /* \"#utility.yul\":3281:3361   */\n      swap3\n      pop\n        /* \"#utility.yul\":3390:3394   */\n      0x20\n        /* \"#utility.yul\":3385:3388   */\n      dup11\n        /* \"#utility.yul\":3381:3395   */\n      add\n        /* \"#utility.yul\":3374:3395   */\n      swap10\n      pop\n        /* \"#utility.yul\":3069:3405   */\n      pop\n        /* \"#utility.yul\":3056:3057   */\n      0x01\n        /* \"#utility.yul\":3053:3054   */\n      dup2\n        /* \"#utility.yul\":3049:3058   */\n      add\n        /* \"#utility.yul\":3044:3058   */\n      swap1\n      pop\n        /* \"#utility.yul\":3009:3405   */\n      jump(tag_122)\n    tag_124:\n        /* \"#utility.yul\":3013:3027   */\n      pop\n        /* \"#utility.yul\":3421:3425   */\n      dup3\n        /* \"#utility.yul\":3414:3425   */\n      swap8\n      pop\n        /* \"#utility.yul\":3441:3444   */\n      dup8\n        /* \"#utility.yul\":3434:3444   */\n      swap6\n      pop\n        /* \"#utility.yul\":2603:3450   */\n      pop\n      pop\n      pop\n      pop\n      pop\n        /* \"#utility.yul\":2459:3450   */\n      swap3\n      swap2\n      pop\n      pop\n      jump\t// out\n        /* \"#utility.yul\":3456:3574   */\n    tag_128:\n        /* \"#utility.yul\":3543:3567   */\n      tag_130\n        /* \"#utility.yul\":3561:3566   */\n      dup2\n        /* \"#utility.yul\":3543:3567   */\n      tag_131\n      jump\t// in\n    tag_130:\n        /* \"#utility.yul\":3538:3541   */\n      dup3\n        /* \"#utility.yul\":3531:3568   */\n      mstore\n        /* \"#utility.yul\":3456:3574   */\n      pop\n      pop\n      jump\t// out\n        /* \"#utility.yul\":3580:3924   */\n    tag_109:\n        /* \"#utility.yul\":3658:3661   */\n      0x00\n        /* \"#utility.yul\":3686:3725   */\n      tag_133\n        /* \"#utility.yul\":3719:3724   */\n      dup3\n        /* \"#utility.yul\":3686:3725   */\n      tag_134\n      jump\t// in\n    tag_133:\n        /* \"#utility.yul\":3741:3802   */\n      tag_135\n        /* \"#utility.yul\":3795:3801   */\n      dup2\n        /* \"#utility.yul\":3790:3793   */\n      dup6\n        /* \"#utility.yul\":3741:3802   */\n      tag_136\n      jump\t// in\n    tag_135:\n        /* \"#utility.yul\":3734:3802   */\n      swap4\n      pop\n        /* \"#utility.yul\":3811:3863   */\n      tag_137\n        /* \"#utility.yul\":3856:3862   */\n      dup2\n        /* \"#utility.yul\":3851:3854   */\n      dup6\n        /* \"#utility.yul\":3844:3848   */\n      0x20\n        /* \"#utility.yul\":3837:3842   */\n      dup7\n        /* \"#utility.yul\":3833:3849   */\n      add\n        /* \"#utility.yul\":3811:3863   */\n      tag_138\n      jump\t// in\n    tag_137:\n        /* \"#utility.yul\":3888:3917   */\n      tag_139\n        /* \"#utility.yul\":3910:3916   */\n      dup2\n        /* \"#utility.yul\":3888:3917   */\n      tag_140\n      jump\t// in\n    tag_139:\n        /* \"#utility.yul\":3883:3886   */\n      dup5\n        /* \"#utility.yul\":3879:3918   */\n      add\n        /* \"#utility.yul\":3872:3918   */\n      swap2\n      pop\n        /* \"#utility.yul\":3662:3924   */\n      pop\n        /* \"#utility.yul\":3580:3924   */\n      swap3\n      swap2\n      pop\n      pop\n      jump\t// out\n        /* \"#utility.yul\":3930:4294   */\n    tag_141:\n        /* \"#utility.yul\":4018:4021   */\n      0x00\n        /* \"#utility.yul\":4046:4085   */\n      tag_143\n        /* \"#utility.yul\":4079:4084   */\n      dup3\n        /* \"#utility.yul\":4046:4085   */\n      tag_134\n      jump\t// in\n    tag_143:\n        /* \"#utility.yul\":4101:4172   */\n      tag_144\n        /* \"#utility.yul\":4165:4171   */\n      dup2\n        /* \"#utility.yul\":4160:4163   */\n      dup6\n        /* \"#utility.yul\":4101:4172   */\n      tag_145\n      jump\t// in\n    tag_144:\n        /* \"#utility.yul\":4094:4172   */\n      swap4\n      pop\n        /* \"#utility.yul\":4181:4233   */\n      tag_146\n        /* \"#utility.yul\":4226:4232   */\n      dup2\n        /* \"#utility.yul\":4221:4224   */\n      dup6\n        /* \"#utility.yul\":4214:4218   */\n      0x20\n        /* \"#utility.yul\":4207:4212   */\n      dup7\n        /* \"#utility.yul\":4203:4219   */\n      add\n        /* \"#utility.yul\":4181:4233   */\n      tag_138\n      jump\t// in\n    tag_146:\n        /* \"#utility.yul\":4258:4287   */\n      tag_147\n        /* \"#utility.yul\":4280:4286   */\n      dup2\n        /* \"#utility.yul\":4258:4287   */\n      tag_140\n      jump\t// in\n    tag_147:\n        /* \"#utility.yul\":4253:4256   */\n      dup5\n        /* \"#utility.yul\":4249:4288   */\n      add\n        /* \"#utility.yul\":4242:4288   */\n      swap2\n      pop\n        /* \"#utility.yul\":4022:4294   */\n      pop\n        /* \"#utility.yul\":3930:4294   */\n      swap3\n      swap2\n      pop\n      pop\n      jump\t// out\n        /* \"#utility.yul\":4300:4677   */\n    tag_148:\n        /* \"#utility.yul\":4406:4409   */\n      0x00\n        /* \"#utility.yul\":4434:4473   */\n      tag_150\n        /* \"#utility.yul\":4467:4472   */\n      dup3\n        /* \"#utility.yul\":4434:4473   */\n      tag_134\n      jump\t// in\n    tag_150:\n        /* \"#utility.yul\":4489:4578   */\n      tag_151\n        /* \"#utility.yul\":4571:4577   */\n      dup2\n        /* \"#utility.yul\":4566:4569   */\n      dup6\n        /* \"#utility.yul\":4489:4578   */\n      tag_152\n      jump\t// in\n    tag_151:\n        /* \"#utility.yul\":4482:4578   */\n      swap4\n      pop\n        /* \"#utility.yul\":4587:4639   */\n      tag_153\n        /* \"#utility.yul\":4632:4638   */\n      dup2\n        /* \"#utility.yul\":4627:4630   */\n      dup6\n        /* \"#utility.yul\":4620:4624   */\n      0x20\n        /* \"#utility.yul\":4613:4618   */\n      dup7\n        /* \"#utility.yul\":4609:4625   */\n      add\n        /* \"#utility.yul\":4587:4639   */\n      tag_138\n      jump\t// in\n    tag_153:\n        /* \"#utility.yul\":4664:4670   */\n      dup1\n        /* \"#utility.yul\":4659:4662   */\n      dup5\n        /* \"#utility.yul\":4655:4671   */\n      add\n        /* \"#utility.yul\":4648:4671   */\n      swap2\n      pop\n        /* \"#utility.yul\":4410:4677   */\n      pop\n        /* \"#utility.yul\":4300:4677   */\n      swap3\n      swap2\n      pop\n      pop\n      jump\t// out\n        /* \"#utility.yul\":4683:5049   */\n    tag_154:\n        /* \"#utility.yul\":4825:4828   */\n      0x00\n        /* \"#utility.yul\":4846:4913   */\n      tag_156\n        /* \"#utility.yul\":4910:4912   */\n      0x14\n        /* \"#utility.yul\":4905:4908   */\n      dup4\n        /* \"#utility.yul\":4846:4913   */\n      tag_145\n      jump\t// in\n    tag_156:\n        /* \"#utility.yul\":4839:4913   */\n      swap2\n      pop\n        /* \"#utility.yul\":4922:5015   */\n      tag_157\n        /* \"#utility.yul\":5011:5014   */\n      dup3\n        /* \"#utility.yul\":4922:5015   */\n      tag_158\n      jump\t// in\n    tag_157:\n        /* \"#utility.yul\":5040:5042   */\n      0x20\n        /* \"#utility.yul\":5035:5038   */\n      dup3\n        /* \"#utility.yul\":5031:5043   */\n      add\n        /* \"#utility.yul\":5024:5043   */\n      swap1\n      pop\n        /* \"#utility.yul\":4683:5049   */\n      swap2\n      swap1\n      pop\n      jump\t// out\n        /* \"#utility.yul\":5055:5173   */\n    tag_159:\n        /* \"#utility.yul\":5142:5166   */\n      tag_161\n        /* \"#utility.yul\":5160:5165   */\n      dup2\n        /* \"#utility.yul\":5142:5166   */\n      tag_162\n      jump\t// in\n    tag_161:\n        /* \"#utility.yul\":5137:5140   */\n      dup3\n        /* \"#utility.yul\":5130:5167   */\n      mstore\n        /* \"#utility.yul\":5055:5173   */\n      pop\n      pop\n      jump\t// out\n        /* \"#utility.yul\":5179:5454   */\n    tag_35:\n        /* \"#utility.yul\":5311:5314   */\n      0x00\n        /* \"#utility.yul\":5333:5428   */\n      tag_164\n        /* \"#utility.yul\":5424:5427   */\n      dup3\n        /* \"#utility.yul\":5415:5421   */\n      dup5\n        /* \"#utility.yul\":5333:5428   */\n      tag_148\n      jump\t// in\n    tag_164:\n        /* \"#utility.yul\":5326:5428   */\n      swap2\n      pop\n        /* \"#utility.yul\":5445:5448   */\n      dup2\n        /* \"#utility.yul\":5438:5448   */\n      swap1\n      pop\n        /* \"#utility.yul\":5179:5454   */\n      swap3\n      swap2\n      pop\n      pop\n      jump\t// out\n        /* \"#utility.yul\":5460:5682   */\n    tag_28:\n        /* \"#utility.yul\":5553:5557   */\n      0x00\n        /* \"#utility.yul\":5591:5593   */\n      0x20\n        /* \"#utility.yul\":5580:5589   */\n      dup3\n        /* \"#utility.yul\":5576:5594   */\n      add\n        /* \"#utility.yul\":5568:5594   */\n      swap1\n      pop\n        /* \"#utility.yul\":5604:5675   */\n      tag_166\n        /* \"#utility.yul\":5672:5673   */\n      0x00\n        /* \"#utility.yul\":5661:5670   */\n      dup4\n        /* \"#utility.yul\":5657:5674   */\n      add\n        /* \"#utility.yul\":5648:5654   */\n      dup5\n        /* \"#utility.yul\":5604:5675   */\n      tag_110\n      jump\t// in\n    tag_166:\n        /* \"#utility.yul\":5460:5682   */\n      swap3\n      swap2\n      pop\n      pop\n      jump\t// out\n        /* \"#utility.yul\":5688:6101   */\n    tag_15:\n        /* \"#utility.yul\":5851:5855   */\n      0x00\n        /* \"#utility.yul\":5889:5891   */\n      0x20\n        /* \"#utility.yul\":5878:5887   */\n      dup3\n        /* \"#utility.yul\":5874:5892   */\n      add\n        /* \"#utility.yul\":5866:5892   */\n      swap1\n      pop\n        /* \"#utility.yul\":5938:5947   */\n      dup2\n        /* \"#utility.yul\":5932:5936   */\n      dup2\n        /* \"#utility.yul\":5928:5948   */\n      sub\n        /* \"#utility.yul\":5924:5925   */\n      0x00\n        /* \"#utility.yul\":5913:5922   */\n      dup4\n        /* \"#utility.yul\":5909:5926   */\n      add\n        /* \"#utility.yul\":5902:5949   */\n      mstore\n        /* \"#utility.yul\":5966:6094   */\n      tag_168\n        /* \"#utility.yul\":6089:6093   */\n      dup2\n        /* \"#utility.yul\":6080:6086   */\n      dup5\n        /* \"#utility.yul\":5966:6094   */\n      tag_114\n      jump\t// in\n    tag_168:\n        /* \"#utility.yul\":5958:6094   */\n      swap1\n      pop\n        /* \"#utility.yul\":5688:6101   */\n      swap3\n      swap2\n      pop\n      pop\n      jump\t// out\n        /* \"#utility.yul\":6107:6329   */\n    tag_37:\n        /* \"#utility.yul\":6200:6204   */\n      0x00\n        /* \"#utility.yul\":6238:6240   */\n      0x20\n        /* \"#utility.yul\":6227:6236   */\n      dup3\n        /* \"#utility.yul\":6223:6241   */\n      add\n        /* \"#utility.yul\":6215:6241   */\n      swap1\n      pop\n        /* \"#utility.yul\":6251:6322   */\n      tag_170\n        /* \"#utility.yul\":6319:6320   */\n      0x00\n        /* \"#utility.yul\":6308:6317   */\n      dup4\n        /* \"#utility.yul\":6304:6321   */\n      add\n        /* \"#utility.yul\":6295:6301   */\n      dup5\n        /* \"#utility.yul\":6251:6322   */\n      tag_128\n      jump\t// in\n    tag_170:\n        /* \"#utility.yul\":6107:6329   */\n      swap3\n      swap2\n      pop\n      pop\n      jump\t// out\n        /* \"#utility.yul\":6335:6648   */\n    tag_56:\n        /* \"#utility.yul\":6448:6452   */\n      0x00\n        /* \"#utility.yul\":6486:6488   */\n      0x20\n        /* \"#utility.yul\":6475:6484   */\n      dup3\n        /* \"#utility.yul\":6471:6489   */\n      add\n        /* \"#utility.yul\":6463:6489   */\n      swap1\n      pop\n        /* \"#utility.yul\":6535:6544   */\n      dup2\n        /* \"#utility.yul\":6529:6533   */\n      dup2\n        /* \"#utility.yul\":6525:6545   */\n      sub\n        /* \"#utility.yul\":6521:6522   */\n      0x00\n        /* \"#utility.yul\":6510:6519   */\n      dup4\n        /* \"#utility.yul\":6506:6523   */\n      add\n        /* \"#utility.yul\":6499:6546   */\n      mstore\n        /* \"#utility.yul\":6563:6641   */\n      tag_172\n        /* \"#utility.yul\":6636:6640   */\n      dup2\n        /* \"#utility.yul\":6627:6633   */\n      dup5\n        /* \"#utility.yul\":6563:6641   */\n      tag_141\n      jump\t// in\n    tag_172:\n        /* \"#utility.yul\":6555:6641   */\n      swap1\n      pop\n        /* \"#utility.yul\":6335:6648   */\n      swap3\n      swap2\n      pop\n      pop\n      jump\t// out\n        /* \"#utility.yul\":6654:7073   */\n    tag_32:\n        /* \"#utility.yul\":6820:6824   */\n      0x00\n        /* \"#utility.yul\":6858:6860   */\n      0x20\n        /* \"#utility.yul\":6847:6856   */\n      dup3\n        /* \"#utility.yul\":6843:6861   */\n      add\n        /* \"#utility.yul\":6835:6861   */\n      swap1\n      pop\n        /* \"#utility.yul\":6907:6916   */\n      dup2\n        /* \"#utility.yul\":6901:6905   */\n      dup2\n        /* \"#utility.yul\":6897:6917   */\n      sub\n        /* \"#utility.yul\":6893:6894   */\n      0x00\n        /* \"#utility.yul\":6882:6891   */\n      dup4\n        /* \"#utility.yul\":6878:6895   */\n      add\n        /* \"#utility.yul\":6871:6918   */\n      mstore\n        /* \"#utility.yul\":6935:7066   */\n      tag_174\n        /* \"#utility.yul\":7061:7065   */\n      dup2\n        /* \"#utility.yul\":6935:7066   */\n      tag_154\n      jump\t// in\n    tag_174:\n        /* \"#utility.yul\":6927:7066   */\n      swap1\n      pop\n        /* \"#utility.yul\":6654:7073   */\n      swap2\n      swap1\n      pop\n      jump\t// out\n        /* \"#utility.yul\":7079:7301   */\n    tag_24:\n        /* \"#utility.yul\":7172:7176   */\n      0x00\n        /* \"#utility.yul\":7210:7212   */\n      0x20\n        /* \"#utility.yul\":7199:7208   */\n      dup3\n        /* \"#utility.yul\":7195:7213   */\n      add\n        /* \"#utility.yul\":7187:7213   */\n      swap1\n      pop\n        /* \"#utility.yul\":7223:7294   */\n      tag_176\n        /* \"#utility.yul\":7291:7292   */\n      0x00\n        /* \"#utility.yul\":7280:7289   */\n      dup4\n        /* \"#utility.yul\":7276:7293   */\n      add\n        /* \"#utility.yul\":7267:7273   */\n      dup5\n        /* \"#utility.yul\":7223:7294   */\n      tag_159\n      jump\t// in\n    tag_176:\n        /* \"#utility.yul\":7079:7301   */\n      swap3\n      swap2\n      pop\n      pop\n      jump\t// out\n        /* \"#utility.yul\":7307:7436   */\n    tag_75:\n        /* \"#utility.yul\":7341:7347   */\n      0x00\n        /* \"#utility.yul\":7368:7388   */\n      tag_178\n      tag_179\n      jump\t// in\n    tag_178:\n        /* \"#utility.yul\":7358:7388   */\n      swap1\n      pop\n        /* \"#utility.yul\":7397:7430   */\n      tag_180\n        /* \"#utility.yul\":7425:7429   */\n      dup3\n        /* \"#utility.yul\":7417:7423   */\n      dup3\n        /* \"#utility.yul\":7397:7430   */\n      tag_181\n      jump\t// in\n    tag_180:\n        /* \"#utility.yul\":7307:7436   */\n      swap2\n      swap1\n      pop\n      jump\t// out\n        /* \"#utility.yul\":7442:7517   */\n    tag_179:\n        /* \"#utility.yul\":7475:7481   */\n      0x00\n        /* \"#utility.yul\":7508:7510   */\n      0x40\n        /* \"#utility.yul\":7502:7511   */\n      mload\n        /* \"#utility.yul\":7492:7511   */\n      swap1\n      pop\n        /* \"#utility.yul\":7442:7517   */\n      swap1\n      jump\t// out\n        /* \"#utility.yul\":7523:7831   */\n    tag_74:\n        /* \"#utility.yul\":7585:7589   */\n      0x00\n        /* \"#utility.yul\":7675:7693   */\n      0xffffffffffffffff\n        /* \"#utility.yul\":7667:7673   */\n      dup3\n        /* \"#utility.yul\":7664:7694   */\n      gt\n        /* \"#utility.yul\":7661:7717   */\n      iszero\n      tag_184\n      jumpi\n        /* \"#utility.yul\":7697:7715   */\n      tag_185\n      tag_186\n      jump\t// in\n    tag_185:\n        /* \"#utility.yul\":7661:7717   */\n    tag_184:\n        /* \"#utility.yul\":7735:7764   */\n      tag_187\n        /* \"#utility.yul\":7757:7763   */\n      dup3\n        /* \"#utility.yul\":7735:7764   */\n      tag_140\n      jump\t// in\n    tag_187:\n        /* \"#utility.yul\":7727:7764   */\n      swap1\n      pop\n        /* \"#utility.yul\":7819:7823   */\n      0x20\n        /* \"#utility.yul\":7813:7817   */\n      dup2\n        /* \"#utility.yul\":7809:7824   */\n      add\n        /* \"#utility.yul\":7801:7824   */\n      swap1\n      pop\n        /* \"#utility.yul\":7523:7831   */\n      swap2\n      swap1\n      pop\n      jump\t// out\n        /* \"#utility.yul\":7837:7979   */\n    tag_121:\n        /* \"#utility.yul\":7914:7918   */\n      0x00\n        /* \"#utility.yul\":7937:7940   */\n      dup2\n        /* \"#utility.yul\":7929:7940   */\n      swap1\n      pop\n        /* \"#utility.yul\":7967:7971   */\n      0x20\n        /* \"#utility.yul\":7962:7965   */\n      dup3\n        /* \"#utility.yul\":7958:7972   */\n      add\n        /* \"#utility.yul\":7950:7972   */\n      swap1\n      pop\n        /* \"#utility.yul\":7837:7979   */\n      swap2\n      swap1\n      pop\n      jump\t// out\n        /* \"#utility.yul\":7985:8109   */\n    tag_117:\n        /* \"#utility.yul\":8062:8068   */\n      0x00\n        /* \"#utility.yul\":8096:8101   */\n      dup2\n        /* \"#utility.yul\":8090:8102   */\n      mload\n        /* \"#utility.yul\":8080:8102   */\n      swap1\n      pop\n        /* \"#utility.yul\":7985:8109   */\n      swap2\n      swap1\n      pop\n      jump\t// out\n        /* \"#utility.yul\":8115:8214   */\n    tag_134:\n        /* \"#utility.yul\":8167:8173   */\n      0x00\n        /* \"#utility.yul\":8201:8206   */\n      dup2\n        /* \"#utility.yul\":8195:8207   */\n      mload\n        /* \"#utility.yul\":8185:8207   */\n      swap1\n      pop\n        /* \"#utility.yul\":8115:8214   */\n      swap2\n      swap1\n      pop\n      jump\t// out\n        /* \"#utility.yul\":8220:8343   */\n    tag_127:\n        /* \"#utility.yul\":8300:8304   */\n      0x00\n        /* \"#utility.yul\":8332:8336   */\n      0x20\n        /* \"#utility.yul\":8327:8330   */\n      dup3\n        /* \"#utility.yul\":8323:8337   */\n      add\n        /* \"#utility.yul\":8315:8337   */\n      swap1\n      pop\n        /* \"#utility.yul\":8220:8343   */\n      swap2\n      swap1\n      pop\n      jump\t// out\n        /* \"#utility.yul\":8349:8543   */\n    tag_119:\n        /* \"#utility.yul\":8458:8469   */\n      0x00\n        /* \"#utility.yul\":8492:8498   */\n      dup3\n        /* \"#utility.yul\":8487:8490   */\n      dup3\n        /* \"#utility.yul\":8480:8499   */\n      mstore\n        /* \"#utility.yul\":8532:8536   */\n      0x20\n        /* \"#utility.yul\":8527:8530   */\n      dup3\n        /* \"#utility.yul\":8523:8537   */\n      add\n        /* \"#utility.yul\":8508:8537   */\n      swap1\n      pop\n        /* \"#utility.yul\":8349:8543   */\n      swap3\n      swap2\n      pop\n      pop\n      jump\t// out\n        /* \"#utility.yul\":8549:8708   */\n    tag_136:\n        /* \"#utility.yul\":8623:8634   */\n      0x00\n        /* \"#utility.yul\":8657:8663   */\n      dup3\n        /* \"#utility.yul\":8652:8655   */\n      dup3\n        /* \"#utility.yul\":8645:8664   */\n      mstore\n        /* \"#utility.yul\":8697:8701   */\n      0x20\n        /* \"#utility.yul\":8692:8695   */\n      dup3\n        /* \"#utility.yul\":8688:8702   */\n      add\n        /* \"#utility.yul\":8673:8702   */\n      swap1\n      pop\n        /* \"#utility.yul\":8549:8708   */\n      swap3\n      swap2\n      pop\n      pop\n      jump\t// out\n        /* \"#utility.yul\":8714:8883   */\n    tag_145:\n        /* \"#utility.yul\":8798:8809   */\n      0x00\n        /* \"#utility.yul\":8832:8838   */\n      dup3\n        /* \"#utility.yul\":8827:8830   */\n      dup3\n        /* \"#utility.yul\":8820:8839   */\n      mstore\n        /* \"#utility.yul\":8872:8876   */\n      0x20\n        /* \"#utility.yul\":8867:8870   */\n      dup3\n        /* \"#utility.yul\":8863:8877   */\n      add\n        /* \"#utility.yul\":8848:8877   */\n      swap1\n      pop\n        /* \"#utility.yul\":8714:8883   */\n      swap3\n      swap2\n      pop\n      pop\n      jump\t// out\n        /* \"#utility.yul\":8889:9037   */\n    tag_152:\n        /* \"#utility.yul\":8991:9002   */\n      0x00\n        /* \"#utility.yul\":9028:9031   */\n      dup2\n        /* \"#utility.yul\":9013:9031   */\n      swap1\n      pop\n        /* \"#utility.yul\":8889:9037   */\n      swap3\n      swap2\n      pop\n      pop\n      jump\t// out\n        /* \"#utility.yul\":9043:9139   */\n    tag_113:\n        /* \"#utility.yul\":9080:9087   */\n      0x00\n        /* \"#utility.yul\":9109:9133   */\n      tag_197\n        /* \"#utility.yul\":9127:9132   */\n      dup3\n        /* \"#utility.yul\":9109:9133   */\n      tag_198\n      jump\t// in\n    tag_197:\n        /* \"#utility.yul\":9098:9133   */\n      swap1\n      pop\n        /* \"#utility.yul\":9043:9139   */\n      swap2\n      swap1\n      pop\n      jump\t// out\n        /* \"#utility.yul\":9145:9222   */\n    tag_131:\n        /* \"#utility.yul\":9182:9189   */\n      0x00\n        /* \"#utility.yul\":9211:9216   */\n      dup2\n        /* \"#utility.yul\":9200:9216   */\n      swap1\n      pop\n        /* \"#utility.yul\":9145:9222   */\n      swap2\n      swap1\n      pop\n      jump\t// out\n        /* \"#utility.yul\":9228:9354   */\n    tag_198:\n        /* \"#utility.yul\":9265:9272   */\n      0x00\n        /* \"#utility.yul\":9305:9347   */\n      0xffffffffffffffffffffffffffffffffffffffff\n        /* \"#utility.yul\":9298:9303   */\n      dup3\n        /* \"#utility.yul\":9294:9348   */\n      and\n        /* \"#utility.yul\":9283:9348   */\n      swap1\n      pop\n        /* \"#utility.yul\":9228:9354   */\n      swap2\n      swap1\n      pop\n      jump\t// out\n        /* \"#utility.yul\":9360:9437   */\n    tag_162:\n        /* \"#utility.yul\":9397:9404   */\n      0x00\n        /* \"#utility.yul\":9426:9431   */\n      dup2\n        /* \"#utility.yul\":9415:9431   */\n      swap1\n      pop\n        /* \"#utility.yul\":9360:9437   */\n      swap2\n      swap1\n      pop\n      jump\t// out\n        /* \"#utility.yul\":9443:9597   */\n    tag_80:\n        /* \"#utility.yul\":9527:9533   */\n      dup3\n        /* \"#utility.yul\":9522:9525   */\n      dup2\n        /* \"#utility.yul\":9517:9520   */\n      dup4\n        /* \"#utility.yul\":9504:9534   */\n      calldatacopy\n        /* \"#utility.yul\":9589:9590   */\n      0x00\n        /* \"#utility.yul\":9580:9586   */\n      dup4\n        /* \"#utility.yul\":9575:9578   */\n      dup4\n        /* \"#utility.yul\":9571:9587   */\n      add\n        /* \"#utility.yul\":9564:9591   */\n      mstore\n        /* \"#utility.yul\":9443:9597   */\n      pop\n      pop\n      pop\n      jump\t// out\n        /* \"#utility.yul\":9603:9910   */\n    tag_138:\n        /* \"#utility.yul\":9671:9672   */\n      0x00\n        /* \"#utility.yul\":9681:9794   */\n    tag_204:\n        /* \"#utility.yul\":9695:9701   */\n      dup4\n        /* \"#utility.yul\":9692:9693   */\n      dup2\n        /* \"#utility.yul\":9689:9702   */\n      lt\n        /* \"#utility.yul\":9681:9794   */\n      iszero\n      tag_206\n      jumpi\n        /* \"#utility.yul\":9780:9781   */\n      dup1\n        /* \"#utility.yul\":9775:9778   */\n      dup3\n        /* \"#utility.yul\":9771:9782   */\n      add\n        /* \"#utility.yul\":9765:9783   */\n      mload\n        /* \"#utility.yul\":9761:9762   */\n      dup2\n        /* \"#utility.yul\":9756:9759   */\n      dup5\n        /* \"#utility.yul\":9752:9763   */\n      add\n        /* \"#utility.yul\":9745:9784   */\n      mstore\n        /* \"#utility.yul\":9717:9719   */\n      0x20\n        /* \"#utility.yul\":9714:9715   */\n      dup2\n        /* \"#utility.yul\":9710:9720   */\n      add\n        /* \"#utility.yul\":9705:9720   */\n      swap1\n      pop\n        /* \"#utility.yul\":9681:9794   */\n      jump(tag_204)\n    tag_206:\n        /* \"#utility.yul\":9812:9818   */\n      dup4\n        /* \"#utility.yul\":9809:9810   */\n      dup2\n        /* \"#utility.yul\":9806:9819   */\n      gt\n        /* \"#utility.yul\":9803:9904   */\n      iszero\n      tag_207\n      jumpi\n        /* \"#utility.yul\":9892:9893   */\n      0x00\n        /* \"#utility.yul\":9883:9889   */\n      dup5\n        /* \"#utility.yul\":9878:9881   */\n      dup5\n        /* \"#utility.yul\":9874:9890   */\n      add\n        /* \"#utility.yul\":9867:9894   */\n      mstore\n        /* \"#utility.yul\":9803:9904   */\n    tag_207:\n        /* \"#utility.yul\":9652:9910   */\n      pop\n        /* \"#utility.yul\":9603:9910   */\n      pop\n      pop\n      pop\n      jump\t// out\n        /* \"#utility.yul\":9916:10236   */\n    tag_46:\n        /* \"#utility.yul\":9960:9966   */\n      0x00\n        /* \"#utility.yul\":9997:9998   */\n      0x02\n        /* \"#utility.yul\":9991:9995   */\n      dup3\n        /* \"#utility.yul\":9987:9999   */\n      div\n        /* \"#utility.yul\":9977:9999   */\n      swap1\n      pop\n        /* \"#utility.yul\":10044:10045   */\n      0x01\n        /* \"#utility.yul\":10038:10042   */\n      dup3\n        /* \"#utility.yul\":10034:10046   */\n      and\n        /* \"#utility.yul\":10065:10083   */\n      dup1\n        /* \"#utility.yul\":10055:10136   */\n      tag_209\n      jumpi\n        /* \"#utility.yul\":10121:10125   */\n      0x7f\n        /* \"#utility.yul\":10113:10119   */\n      dup3\n        /* \"#utility.yul\":10109:10126   */\n      and\n        /* \"#utility.yul\":10099:10126   */\n      swap2\n      pop\n        /* \"#utility.yul\":10055:10136   */\n    tag_209:\n        /* \"#utility.yul\":10183:10185   */\n      0x20\n        /* \"#utility.yul\":10175:10181   */\n      dup3\n        /* \"#utility.yul\":10172:10186   */\n      lt\n        /* \"#utility.yul\":10152:10170   */\n      dup2\n        /* \"#utility.yul\":10149:10187   */\n      eq\n        /* \"#utility.yul\":10146:10230   */\n      iszero\n      tag_210\n      jumpi\n        /* \"#utility.yul\":10202:10220   */\n      tag_211\n      tag_212\n      jump\t// in\n    tag_211:\n        /* \"#utility.yul\":10146:10230   */\n    tag_210:\n        /* \"#utility.yul\":9967:10236   */\n      pop\n        /* \"#utility.yul\":9916:10236   */\n      swap2\n      swap1\n      pop\n      jump\t// out\n        /* \"#utility.yul\":10242:10523   */\n    tag_181:\n        /* \"#utility.yul\":10325:10352   */\n      tag_214\n        /* \"#utility.yul\":10347:10351   */\n      dup3\n        /* \"#utility.yul\":10325:10352   */\n      tag_140\n      jump\t// in\n    tag_214:\n        /* \"#utility.yul\":10317:10323   */\n      dup2\n        /* \"#utility.yul\":10313:10353   */\n      add\n        /* \"#utility.yul\":10455:10461   */\n      dup2\n        /* \"#utility.yul\":10443:10453   */\n      dup2\n        /* \"#utility.yul\":10440:10462   */\n      lt\n        /* \"#utility.yul\":10419:10437   */\n      0xffffffffffffffff\n        /* \"#utility.yul\":10407:10417   */\n      dup3\n        /* \"#utility.yul\":10404:10438   */\n      gt\n        /* \"#utility.yul\":10401:10463   */\n      or\n        /* \"#utility.yul\":10398:10486   */\n      iszero\n      tag_215\n      jumpi\n        /* \"#utility.yul\":10466:10484   */\n      tag_216\n      tag_186\n      jump\t// in\n    tag_216:\n        /* \"#utility.yul\":10398:10486   */\n    tag_215:\n        /* \"#utility.yul\":10506:10516   */\n      dup1\n        /* \"#utility.yul\":10502:10504   */\n      0x40\n        /* \"#utility.yul\":10495:10517   */\n      mstore\n        /* \"#utility.yul\":10285:10523   */\n      pop\n        /* \"#utility.yul\":10242:10523   */\n      pop\n      pop\n      jump\t// out\n        /* \"#utility.yul\":10529:10709   */\n    tag_212:\n        /* \"#utility.yul\":10577:10654   */\n      0x4e487b7100000000000000000000000000000000000000000000000000000000\n        /* \"#utility.yul\":10574:10575   */\n      0x00\n        /* \"#utility.yul\":10567:10655   */\n      mstore\n        /* \"#utility.yul\":10674:10678   */\n      0x22\n        /* \"#utility.yul\":10671:10672   */\n      0x04\n        /* \"#utility.yul\":10664:10679   */\n      mstore\n        /* \"#utility.yul\":10698:10702   */\n      0x24\n        /* \"#utility.yul\":10695:10696   */\n      0x00\n        /* \"#utility.yul\":10688:10703   */\n      revert\n        /* \"#utility.yul\":10715:10895   */\n    tag_186:\n        /* \"#utility.yul\":10763:10840   */\n      0x4e487b7100000000000000000000000000000000000000000000000000000000\n        /* \"#utility.yul\":10760:10761   */\n      0x00\n        /* \"#utility.yul\":10753:10841   */\n      mstore\n        /* \"#utility.yul\":10860:10864   */\n      0x41\n        /* \"#utility.yul\":10857:10858   */\n      0x04\n        /* \"#utility.yul\":10850:10865   */\n      mstore\n        /* \"#utility.yul\":10884:10888   */\n      0x24\n        /* \"#utility.yul\":10881:10882   */\n      0x00\n        /* \"#utility.yul\":10874:10889   */\n      revert\n        /* \"#utility.yul\":10901:11018   */\n    tag_85:\n        /* \"#utility.yul\":11010:11011   */\n      0x00\n        /* \"#utility.yul\":11007:11008   */\n      dup1\n        /* \"#utility.yul\":11000:11012   */\n      revert\n        /* \"#utility.yul\":11024:11141   */\n    tag_78:\n        /* \"#utility.yul\":11133:11134   */\n      0x00\n        /* \"#utility.yul\":11130:11131   */\n      dup1\n        /* \"#utility.yul\":11123:11135   */\n      revert\n        /* \"#utility.yul\":11147:11264   */\n    tag_97:\n        /* \"#utility.yul\":11256:11257   */\n      0x00\n        /* \"#utility.yul\":11253:11254   */\n      dup1\n        /* \"#utility.yul\":11246:11258   */\n      revert\n        /* \"#utility.yul\":11270:11387   */\n    tag_94:\n        /* \"#utility.yul\":11379:11380   */\n      0x00\n        /* \"#utility.yul\":11376:11377   */\n      dup1\n        /* \"#utility.yul\":11369:11381   */\n      revert\n        /* \"#utility.yul\":11393:11495   */\n    tag_140:\n        /* \"#utility.yul\":11434:11440   */\n      0x00\n        /* \"#utility.yul\":11485:11487   */\n      0x1f\n        /* \"#utility.yul\":11481:11488   */\n      not\n        /* \"#utility.yul\":11476:11478   */\n      0x1f\n        /* \"#utility.yul\":11469:11474   */\n      dup4\n        /* \"#utility.yul\":11465:11479   */\n      add\n        /* \"#utility.yul\":11461:11489   */\n      and\n        /* \"#utility.yul\":11451:11489   */\n      swap1\n      pop\n        /* \"#utility.yul\":11393:11495   */\n      swap2\n      swap1\n      pop\n      jump\t// out\n        /* \"#utility.yul\":11501:11671   */\n    tag_158:\n        /* \"#utility.yul\":11641:11663   */\n      0x4e6f206572657320656c2070726f6665736f722e000000000000000000000000\n        /* \"#utility.yul\":11637:11638   */\n      0x00\n        /* \"#utility.yul\":11629:11635   */\n      dup3\n        /* \"#utility.yul\":11625:11639   */\n      add\n        /* \"#utility.yul\":11618:11664   */\n      mstore\n        /* \"#utility.yul\":11501:11671   */\n      pop\n      jump\t// out\n        /* \"#utility.yul\":11677:11799   */\n    tag_90:\n        /* \"#utility.yul\":11750:11774   */\n      tag_226\n        /* \"#utility.yul\":11768:11773   */\n      dup2\n        /* \"#utility.yul\":11750:11774   */\n      tag_162\n      jump\t// in\n    tag_226:\n        /* \"#utility.yul\":11743:11748   */\n      dup2\n        /* \"#utility.yul\":11740:11775   */\n      eq\n        /* \"#utility.yul\":11730:11793   */\n      tag_227\n      jumpi\n        /* \"#utility.yul\":11789:11790   */\n      0x00\n        /* \"#utility.yul\":11786:11787   */\n      dup1\n        /* \"#utility.yul\":11779:11791   */\n      revert\n        /* \"#utility.yul\":11730:11793   */\n    tag_227:\n        /* \"#utility.yul\":11677:11799   */\n      pop\n      jump\t// out\n\n    auxdata: 0xa2646970667358221220f09008e788679f2a78cae0ed38478b2df5cd336ed3b0c0bc606535113236670664736f6c63430008070033\n}\n",
				"bytecode": {
					"linkReferences": {},
					"object": "608060405234801561001057600080fd5b50336000806101000a81548173ffffffffffffffffffffffffffffffffffffffff021916908373ffffffffffffffffffffffffffffffffffffffff160217905550610b20806100606000396000f3fe608060405234801561001057600080fd5b50600436106100575760003560e01c8063383bebae1461005c5780637345fc2014610078578063ca981d9114610096578063deafddae146100b2578063df096576146100e2575b600080fd5b610076600480360381019061007191906105d1565b610100565b005b61008061020f565b60405161008d91906107db565b60405180910390f35b6100b060048036038101906100ab9190610588565b610378565b005b6100cc60048036038101906100c79190610588565b6103ee565b6040516100d9919061085a565b60405180910390f35b6100ea61043c565b6040516100f791906107c0565b60405180910390f35b3360008054906101000a900473ffffffffffffffffffffffffffffffffffffffff1673ffffffffffffffffffffffffffffffffffffffff168173ffffffffffffffffffffffffffffffffffffffff161461018f576040517f08c379a00000000000000000000000000000000000000000000000000000000081526004016101869061083a565b60405180910390fd5b6000836040516020016101a291906107a9565b6040516020818303038152906040528051906020012090508260016000838152602001908152602001600020819055507f9129eeeb684507aca017f10030b70e5bf86d129f417fcc5840348a957eb12cee8160405161020191906107fd565b60405180910390a150505050565b60603360008054906101000a900473ffffffffffffffffffffffffffffffffffffffff1673ffffffffffffffffffffffffffffffffffffffff168173ffffffffffffffffffffffffffffffffffffffff16146102a0576040517f08c379a00000000000000000000000000000000000000000000000000000000081526004016102979061083a565b60405180910390fd5b6002805480602002602001604051908101604052809291908181526020016000905b8282101561036e5783829060005260206000200180546102e1906109c4565b80601f016020809104026020016040519081016040528092919081815260200182805461030d906109c4565b801561035a5780601f1061032f5761010080835404028352916020019161035a565b820191906000526020600020905b81548152906001019060200180831161033d57829003601f168201915b5050505050815260200190600101906102c2565b5050505091505090565b6002819080600181540180825580915050600190039060005260206000200160009091909190915090805190602001906103b3929190610460565b507fafd73f39162aa4c0421f362f3a3d26f44b23c73253256cfc1c68794b0973e0a0816040516103e39190610818565b60405180910390a150565b6000808260405160200161040291906107a9565b6040516020818303038152906040528051906020012090506000600160008381526020019081526020016000205490508092505050919050565b60008054906101000a900473ffffffffffffffffffffffffffffffffffffffff1681565b82805461046c906109c4565b90600052602060002090601f01602090048101928261048e57600085556104d5565b82601f106104a757805160ff19168380011785556104d5565b828001600101855582156104d5579182015b828111156104d45782518255916020019190600101906104b9565b5b5090506104e291906104e6565b5090565b5b808211156104ff5760008160009055506001016104e7565b5090565b60006105166105118461089a565b610875565b90508281526020810184848401111561053257610531610a8a565b5b61053d848285610982565b509392505050565b600082601f83011261055a57610559610a85565b5b813561056a848260208601610503565b91505092915050565b60008135905061058281610ad3565b92915050565b60006020828403121561059e5761059d610a94565b5b600082013567ffffffffffffffff8111156105bc576105bb610a8f565b5b6105c884828501610545565b91505092915050565b600080604083850312156105e8576105e7610a94565b5b600083013567ffffffffffffffff81111561060657610605610a8f565b5b61061285828601610545565b925050602061062385828601610573565b9150509250929050565b600061063983836106d4565b905092915050565b61064a8161093c565b82525050565b600061065b826108db565b61066581856108fe565b935083602082028501610677856108cb565b8060005b858110156106b35784840389528151610694858261062d565b945061069f836108f1565b925060208a0199505060018101905061067b565b50829750879550505050505092915050565b6106ce8161094e565b82525050565b60006106df826108e6565b6106e9818561090f565b93506106f9818560208601610991565b61070281610a99565b840191505092915050565b6000610718826108e6565b6107228185610920565b9350610732818560208601610991565b61073b81610a99565b840191505092915050565b6000610751826108e6565b61075b8185610931565b935061076b818560208601610991565b80840191505092915050565b6000610784601483610920565b915061078f82610aaa565b602082019050919050565b6107a381610978565b82525050565b60006107b58284610746565b915081905092915050565b60006020820190506107d56000830184610641565b92915050565b600060208201905081810360008301526107f58184610650565b905092915050565b600060208201905061081260008301846106c5565b92915050565b60006020820190508181036000830152610832818461070d565b905092915050565b6000602082019050818103600083015261085381610777565b9050919050565b600060208201905061086f600083018461079a565b92915050565b600061087f610890565b905061088b82826109f6565b919050565b6000604051905090565b600067ffffffffffffffff8211156108b5576108b4610a56565b5b6108be82610a99565b9050602081019050919050565b6000819050602082019050919050565b600081519050919050565b600081519050919050565b6000602082019050919050565b600082825260208201905092915050565b600082825260208201905092915050565b600082825260208201905092915050565b600081905092915050565b600061094782610958565b9050919050565b6000819050919050565b600073ffffffffffffffffffffffffffffffffffffffff82169050919050565b6000819050919050565b82818337600083830152505050565b60005b838110156109af578082015181840152602081019050610994565b838111156109be576000848401525b50505050565b600060028204905060018216806109dc57607f821691505b602082108114156109f0576109ef610a27565b5b50919050565b6109ff82610a99565b810181811067ffffffffffffffff82111715610a1e57610a1d610a56565b5b80604052505050565b7f4e487b7100000000000000000000000000000000000000000000000000000000600052602260045260246000fd5b7f4e487b7100000000000000000000000000000000000000000000000000000000600052604160045260246000fd5b600080fd5b600080fd5b600080fd5b600080fd5b6000601f19601f8301169050919050565b7f4e6f206572657320656c2070726f6665736f722e000000000000000000000000600082015250565b610adc81610978565b8114610ae757600080fd5b5056fea2646970667358221220f09008e788679f2a78cae0ed38478b2df5cd336ed3b0c0bc606535113236670664736f6c63430008070033",
					"opcodes": "PUSH1 0x80 PUSH1 0x40 MSTORE CALLVALUE DUP1 ISZERO PUSH2 0x10 JUMPI PUSH1 0x0 DUP1 REVERT JUMPDEST POP CALLER PUSH1 0x0 DUP1 PUSH2 0x100 EXP DUP2 SLOAD DUP2 PUSH20 0xFFFFFFFFFFFFFFFFFFFFFFFFFFFFFFFFFFFFFFFF MUL NOT AND SWAP1 DUP4 PUSH20 0xFFFFFFFFFFFFFFFFFFFFFFFFFFFFFFFFFFFFFFFF AND MUL OR SWAP1 SSTORE POP PUSH2 0xB20 DUP1 PUSH2 0x60 PUSH1 0x0 CODECOPY PUSH1 0x0 RETURN INVALID PUSH1 0x80 PUSH1 0x40 MSTORE CALLVALUE DUP1 ISZERO PUSH2 0x10 JUMPI PUSH1 0x0 DUP1 REVERT JUMPDEST POP PUSH1 0x4 CALLDATASIZE LT PUSH2 0x57 JUMPI PUSH1 0x0 CALLDATALOAD PUSH1 0xE0 SHR DUP1 PUSH4 0x383BEBAE EQ PUSH2 0x5C JUMPI DUP1 PUSH4 0x7345FC20 EQ PUSH2 0x78 JUMPI DUP1 PUSH4 0xCA981D91 EQ PUSH2 0x96 JUMPI DUP1 PUSH4 0xDEAFDDAE EQ PUSH2 0xB2 JUMPI DUP1 PUSH4 0xDF096576 EQ PUSH2 0xE2 JUMPI JUMPDEST PUSH1 0x0 DUP1 REVERT JUMPDEST PUSH2 0x76 PUSH1 0x4 DUP1 CALLDATASIZE SUB DUP2 ADD SWAP1 PUSH2 0x71 SWAP2 SWAP1 PUSH2 0x5D1 JUMP JUMPDEST PUSH2 0x100 JUMP JUMPDEST STOP JUMPDEST PUSH2 0x80 PUSH2 0x20F JUMP JUMPDEST PUSH1 0x40 MLOAD PUSH2 0x8D SWAP2 SWAP1 PUSH2 0x7DB JUMP JUMPDEST PUSH1 0x40 MLOAD DUP1 SWAP2 SUB SWAP1 RETURN JUMPDEST PUSH2 0xB0 PUSH1 0x4 DUP1 CALLDATASIZE SUB DUP2 ADD SWAP1 PUSH2 0xAB SWAP2 SWAP1 PUSH2 0x588 JUMP JUMPDEST PUSH2 0x378 JUMP JUMPDEST STOP JUMPDEST PUSH2 0xCC PUSH1 0x4 DUP1 CALLDATASIZE SUB DUP2 ADD SWAP1 PUSH2 0xC7 SWAP2 SWAP1 PUSH2 0x588 JUMP JUMPDEST PUSH2 0x3EE JUMP JUMPDEST PUSH1 0x40 MLOAD PUSH2 0xD9 SWAP2 SWAP1 PUSH2 0x85A JUMP JUMPDEST PUSH1 0x40 MLOAD DUP1 SWAP2 SUB SWAP1 RETURN JUMPDEST PUSH2 0xEA PUSH2 0x43C JUMP JUMPDEST PUSH1 0x40 MLOAD PUSH2 0xF7 SWAP2 SWAP1 PUSH2 0x7C0 JUMP JUMPDEST PUSH1 0x40 MLOAD DUP1 SWAP2 SUB SWAP1 RETURN JUMPDEST CALLER PUSH1 0x0 DUP1 SLOAD SWAP1 PUSH2 0x100 EXP SWAP1 DIV PUSH20 0xFFFFFFFFFFFFFFFFFFFFFFFFFFFFFFFFFFFFFFFF AND PUSH20 0xFFFFFFFFFFFFFFFFFFFFFFFFFFFFFFFFFFFFFFFF AND DUP2 PUSH20 0xFFFFFFFFFFFFFFFFFFFFFFFFFFFFFFFFFFFFFFFF AND EQ PUSH2 0x18F JUMPI PUSH1 0x40 MLOAD PUSH32 0x8C379A000000000000000000000000000000000000000000000000000000000 DUP2 MSTORE PUSH1 0x4 ADD PUSH2 0x186 SWAP1 PUSH2 0x83A JUMP JUMPDEST PUSH1 0x40 MLOAD DUP1 SWAP2 SUB SWAP1 REVERT JUMPDEST PUSH1 0x0 DUP4 PUSH1 0x40 MLOAD PUSH1 0x20 ADD PUSH2 0x1A2 SWAP2 SWAP1 PUSH2 0x7A9 JUMP JUMPDEST PUSH1 0x40 MLOAD PUSH1 0x20 DUP2 DUP4 SUB SUB DUP2 MSTORE SWAP1 PUSH1 0x40 MSTORE DUP1 MLOAD SWAP1 PUSH1 0x20 ADD KECCAK256 SWAP1 POP DUP3 PUSH1 0x1 PUSH1 0x0 DUP4 DUP2 MSTORE PUSH1 0x20 ADD SWAP1 DUP2 MSTORE PUSH1 0x20 ADD PUSH1 0x0 KECCAK256 DUP2 SWAP1 SSTORE POP PUSH32 0x9129EEEB684507ACA017F10030B70E5BF86D129F417FCC5840348A957EB12CEE DUP2 PUSH1 0x40 MLOAD PUSH2 0x201 SWAP2 SWAP1 PUSH2 0x7FD JUMP JUMPDEST PUSH1 0x40 MLOAD DUP1 SWAP2 SUB SWAP1 LOG1 POP POP POP POP JUMP JUMPDEST PUSH1 0x60 CALLER PUSH1 0x0 DUP1 SLOAD SWAP1 PUSH2 0x100 EXP SWAP1 DIV PUSH20 0xFFFFFFFFFFFFFFFFFFFFFFFFFFFFFFFFFFFFFFFF AND PUSH20 0xFFFFFFFFFFFFFFFFFFFFFFFFFFFFFFFFFFFFFFFF AND DUP2 PUSH20 0xFFFFFFFFFFFFFFFFFFFFFFFFFFFFFFFFFFFFFFFF AND EQ PUSH2 0x2A0 JUMPI PUSH1 0x40 MLOAD PUSH32 0x8C379A000000000000000000000000000000000000000000000000000000000 DUP2 MSTORE PUSH1 0x4 ADD PUSH2 0x297 SWAP1 PUSH2 0x83A JUMP JUMPDEST PUSH1 0x40 MLOAD DUP1 SWAP2 SUB SWAP1 REVERT JUMPDEST PUSH1 0x2 DUP1 SLOAD DUP1 PUSH1 0x20 MUL PUSH1 0x20 ADD PUSH1 0x40 MLOAD SWAP1 DUP2 ADD PUSH1 0x40 MSTORE DUP1 SWAP3 SWAP2 SWAP1 DUP2 DUP2 MSTORE PUSH1 0x20 ADD PUSH1 0x0 SWAP1 JUMPDEST DUP3 DUP3 LT ISZERO PUSH2 0x36E JUMPI DUP4 DUP3 SWAP1 PUSH1 0x0 MSTORE PUSH1 0x20 PUSH1 0x0 KECCAK256 ADD DUP1 SLOAD PUSH2 0x2E1 SWAP1 PUSH2 0x9C4 JUMP JUMPDEST DUP1 PUSH1 0x1F ADD PUSH1 0x20 DUP1 SWAP2 DIV MUL PUSH1 0x20 ADD PUSH1 0x40 MLOAD SWAP1 DUP2 ADD PUSH1 0x40 MSTORE DUP1 SWAP3 SWAP2 SWAP1 DUP2 DUP2 MSTORE PUSH1 0x20 ADD DUP3 DUP1 SLOAD PUSH2 0x30D SWAP1 PUSH2 0x9C4 JUMP JUMPDEST DUP1 ISZERO PUSH2 0x35A JUMPI DUP1 PUSH1 0x1F LT PUSH2 0x32F JUMPI PUSH2 0x100 DUP1 DUP4 SLOAD DIV MUL DUP4 MSTORE SWAP2 PUSH1 0x20 ADD SWAP2 PUSH2 0x35A JUMP JUMPDEST DUP3 ADD SWAP2 SWAP1 PUSH1 0x0 MSTORE PUSH1 0x20 PUSH1 0x0 KECCAK256 SWAP1 JUMPDEST DUP2 SLOAD DUP2 MSTORE SWAP1 PUSH1 0x1 ADD SWAP1 PUSH1 0x20 ADD DUP1 DUP4 GT PUSH2 0x33D JUMPI DUP3 SWAP1 SUB PUSH1 0x1F AND DUP3 ADD SWAP2 JUMPDEST POP POP POP POP POP DUP2 MSTORE PUSH1 0x20 ADD SWAP1 PUSH1 0x1 ADD SWAP1 PUSH2 0x2C2 JUMP JUMPDEST POP POP POP POP SWAP2 POP POP SWAP1 JUMP JUMPDEST PUSH1 0x2 DUP2 SWAP1 DUP1 PUSH1 0x1 DUP2 SLOAD ADD DUP1 DUP3 SSTORE DUP1 SWAP2 POP POP PUSH1 0x1 SWAP1 SUB SWAP1 PUSH1 0x0 MSTORE PUSH1 0x20 PUSH1 0x0 KECCAK256 ADD PUSH1 0x0 SWAP1 SWAP2 SWAP1 SWAP2 SWAP1 SWAP2 POP SWAP1 DUP1 MLOAD SWAP1 PUSH1 0x20 ADD SWAP1 PUSH2 0x3B3 SWAP3 SWAP2 SWAP1 PUSH2 0x460 JUMP JUMPDEST POP PUSH32 0xAFD73F39162AA4C0421F362F3A3D26F44B23C73253256CFC1C68794B0973E0A0 DUP2 PUSH1 0x40 MLOAD PUSH2 0x3E3 SWAP2 SWAP1 PUSH2 0x818 JUMP JUMPDEST PUSH1 0x40 MLOAD DUP1 SWAP2 SUB SWAP1 LOG1 POP JUMP JUMPDEST PUSH1 0x0 DUP1 DUP3 PUSH1 0x40 MLOAD PUSH1 0x20 ADD PUSH2 0x402 SWAP2 SWAP1 PUSH2 0x7A9 JUMP JUMPDEST PUSH1 0x40 MLOAD PUSH1 0x20 DUP2 DUP4 SUB SUB DUP2 MSTORE SWAP1 PUSH1 0x40 MSTORE DUP1 MLOAD SWAP1 PUSH1 0x20 ADD KECCAK256 SWAP1 POP PUSH1 0x0 PUSH1 0x1 PUSH1 0x0 DUP4 DUP2 MSTORE PUSH1 0x20 ADD SWAP1 DUP2 MSTORE PUSH1 0x20 ADD PUSH1 0x0 KECCAK256 SLOAD SWAP1 POP DUP1 SWAP3 POP POP POP SWAP2 SWAP1 POP JUMP JUMPDEST PUSH1 0x0 DUP1 SLOAD SWAP1 PUSH2 0x100 EXP SWAP1 DIV PUSH20 0xFFFFFFFFFFFFFFFFFFFFFFFFFFFFFFFFFFFFFFFF AND DUP2 JUMP JUMPDEST DUP3 DUP1 SLOAD PUSH2 0x46C SWAP1 PUSH2 0x9C4 JUMP JUMPDEST SWAP1 PUSH1 0x0 MSTORE PUSH1 0x20 PUSH1 0x0 KECCAK256 SWAP1 PUSH1 0x1F ADD PUSH1 0x20 SWAP1 DIV DUP2 ADD SWAP3 DUP3 PUSH2 0x48E JUMPI PUSH1 0x0 DUP6 SSTORE PUSH2 0x4D5 JUMP JUMPDEST DUP3 PUSH1 0x1F LT PUSH2 0x4A7 JUMPI DUP1 MLOAD PUSH1 0xFF NOT AND DUP4 DUP1 ADD OR DUP6 SSTORE PUSH2 0x4D5 JUMP JUMPDEST DUP3 DUP1 ADD PUSH1 0x1 ADD DUP6 SSTORE DUP3 ISZERO PUSH2 0x4D5 JUMPI SWAP2 DUP3 ADD JUMPDEST DUP3 DUP2 GT ISZERO PUSH2 0x4D4 JUMPI DUP3 MLOAD DUP3 SSTORE SWAP2 PUSH1 0x20 ADD SWAP2 SWAP1 PUSH1 0x1 ADD SWAP1 PUSH2 0x4B9 JUMP JUMPDEST JUMPDEST POP SWAP1 POP PUSH2 0x4E2 SWAP2 SWAP1 PUSH2 0x4E6 JUMP JUMPDEST POP SWAP1 JUMP JUMPDEST JUMPDEST DUP1 DUP3 GT ISZERO PUSH2 0x4FF JUMPI PUSH1 0x0 DUP2 PUSH1 0x0 SWAP1 SSTORE POP PUSH1 0x1 ADD PUSH2 0x4E7 JUMP JUMPDEST POP SWAP1 JUMP JUMPDEST PUSH1 0x0 PUSH2 0x516 PUSH2 0x511 DUP5 PUSH2 0x89A JUMP JUMPDEST PUSH2 0x875 JUMP JUMPDEST SWAP1 POP DUP3 DUP2 MSTORE PUSH1 0x20 DUP2 ADD DUP5 DUP5 DUP5 ADD GT ISZERO PUSH2 0x532 JUMPI PUSH2 0x531 PUSH2 0xA8A JUMP JUMPDEST JUMPDEST PUSH2 0x53D DUP5 DUP3 DUP6 PUSH2 0x982 JUMP JUMPDEST POP SWAP4 SWAP3 POP POP POP JUMP JUMPDEST PUSH1 0x0 DUP3 PUSH1 0x1F DUP4 ADD SLT PUSH2 0x55A JUMPI PUSH2 0x559 PUSH2 0xA85 JUMP JUMPDEST JUMPDEST DUP2 CALLDATALOAD PUSH2 0x56A DUP5 DUP3 PUSH1 0x20 DUP7 ADD PUSH2 0x503 JUMP JUMPDEST SWAP2 POP POP SWAP3 SWAP2 POP POP JUMP JUMPDEST PUSH1 0x0 DUP2 CALLDATALOAD SWAP1 POP PUSH2 0x582 DUP2 PUSH2 0xAD3 JUMP JUMPDEST SWAP3 SWAP2 POP POP JUMP JUMPDEST PUSH1 0x0 PUSH1 0x20 DUP3 DUP5 SUB SLT ISZERO PUSH2 0x59E JUMPI PUSH2 0x59D PUSH2 0xA94 JUMP JUMPDEST JUMPDEST PUSH1 0x0 DUP3 ADD CALLDATALOAD PUSH8 0xFFFFFFFFFFFFFFFF DUP2 GT ISZERO PUSH2 0x5BC JUMPI PUSH2 0x5BB PUSH2 0xA8F JUMP JUMPDEST JUMPDEST PUSH2 0x5C8 DUP5 DUP3 DUP6 ADD PUSH2 0x545 JUMP JUMPDEST SWAP2 POP POP SWAP3 SWAP2 POP POP JUMP JUMPDEST PUSH1 0x0 DUP1 PUSH1 0x40 DUP4 DUP6 SUB SLT ISZERO PUSH2 0x5E8 JUMPI PUSH2 0x5E7 PUSH2 0xA94 JUMP JUMPDEST JUMPDEST PUSH1 0x0 DUP4 ADD CALLDATALOAD PUSH8 0xFFFFFFFFFFFFFFFF DUP2 GT ISZERO PUSH2 0x606 JUMPI PUSH2 0x605 PUSH2 0xA8F JUMP JUMPDEST JUMPDEST PUSH2 0x612 DUP6 DUP3 DUP7 ADD PUSH2 0x545 JUMP JUMPDEST SWAP3 POP POP PUSH1 0x20 PUSH2 0x623 DUP6 DUP3 DUP7 ADD PUSH2 0x573 JUMP JUMPDEST SWAP2 POP POP SWAP3 POP SWAP3 SWAP1 POP JUMP JUMPDEST PUSH1 0x0 PUSH2 0x639 DUP4 DUP4 PUSH2 0x6D4 JUMP JUMPDEST SWAP1 POP SWAP3 SWAP2 POP POP JUMP JUMPDEST PUSH2 0x64A DUP2 PUSH2 0x93C JUMP JUMPDEST DUP3 MSTORE POP POP JUMP JUMPDEST PUSH1 0x0 PUSH2 0x65B DUP3 PUSH2 0x8DB JUMP JUMPDEST PUSH2 0x665 DUP2 DUP6 PUSH2 0x8FE JUMP JUMPDEST SWAP4 POP DUP4 PUSH1 0x20 DUP3 MUL DUP6 ADD PUSH2 0x677 DUP6 PUSH2 0x8CB JUMP JUMPDEST DUP1 PUSH1 0x0 JUMPDEST DUP6 DUP2 LT ISZERO PUSH2 0x6B3 JUMPI DUP5 DUP5 SUB DUP10 MSTORE DUP2 MLOAD PUSH2 0x694 DUP6 DUP3 PUSH2 0x62D JUMP JUMPDEST SWAP5 POP PUSH2 0x69F DUP4 PUSH2 0x8F1 JUMP JUMPDEST SWAP3 POP PUSH1 0x20 DUP11 ADD SWAP10 POP POP PUSH1 0x1 DUP2 ADD SWAP1 POP PUSH2 0x67B JUMP JUMPDEST POP DUP3 SWAP8 POP DUP8 SWAP6 POP POP POP POP POP POP SWAP3 SWAP2 POP POP JUMP JUMPDEST PUSH2 0x6CE DUP2 PUSH2 0x94E JUMP JUMPDEST DUP3 MSTORE POP POP JUMP JUMPDEST PUSH1 0x0 PUSH2 0x6DF DUP3 PUSH2 0x8E6 JUMP JUMPDEST PUSH2 0x6E9 DUP2 DUP6 PUSH2 0x90F JUMP JUMPDEST SWAP4 POP PUSH2 0x6F9 DUP2 DUP6 PUSH1 0x20 DUP7 ADD PUSH2 0x991 JUMP JUMPDEST PUSH2 0x702 DUP2 PUSH2 0xA99 JUMP JUMPDEST DUP5 ADD SWAP2 POP POP SWAP3 SWAP2 POP POP JUMP JUMPDEST PUSH1 0x0 PUSH2 0x718 DUP3 PUSH2 0x8E6 JUMP JUMPDEST PUSH2 0x722 DUP2 DUP6 PUSH2 0x920 JUMP JUMPDEST SWAP4 POP PUSH2 0x732 DUP2 DUP6 PUSH1 0x20 DUP7 ADD PUSH2 0x991 JUMP JUMPDEST PUSH2 0x73B DUP2 PUSH2 0xA99 JUMP JUMPDEST DUP5 ADD SWAP2 POP POP SWAP3 SWAP2 POP POP JUMP JUMPDEST PUSH1 0x0 PUSH2 0x751 DUP3 PUSH2 0x8E6 JUMP JUMPDEST PUSH2 0x75B DUP2 DUP6 PUSH2 0x931 JUMP JUMPDEST SWAP4 POP PUSH2 0x76B DUP2 DUP6 PUSH1 0x20 DUP7 ADD PUSH2 0x991 JUMP JUMPDEST DUP1 DUP5 ADD SWAP2 POP POP SWAP3 SWAP2 POP POP JUMP JUMPDEST PUSH1 0x0 PUSH2 0x784 PUSH1 0x14 DUP4 PUSH2 0x920 JUMP JUMPDEST SWAP2 POP PUSH2 0x78F DUP3 PUSH2 0xAAA JUMP JUMPDEST PUSH1 0x20 DUP3 ADD SWAP1 POP SWAP2 SWAP1 POP JUMP JUMPDEST PUSH2 0x7A3 DUP2 PUSH2 0x978 JUMP JUMPDEST DUP3 MSTORE POP POP JUMP JUMPDEST PUSH1 0x0 PUSH2 0x7B5 DUP3 DUP5 PUSH2 0x746 JUMP JUMPDEST SWAP2 POP DUP2 SWAP1 POP SWAP3 SWAP2 POP POP JUMP JUMPDEST PUSH1 0x0 PUSH1 0x20 DUP3 ADD SWAP1 POP PUSH2 0x7D5 PUSH1 0x0 DUP4 ADD DUP5 PUSH2 0x641 JUMP JUMPDEST SWAP3 SWAP2 POP POP JUMP JUMPDEST PUSH1 0x0 PUSH1 0x20 DUP3 ADD SWAP1 POP DUP2 DUP2 SUB PUSH1 0x0 DUP4 ADD MSTORE PUSH2 0x7F5 DUP2 DUP5 PUSH2 0x650 JUMP JUMPDEST SWAP1 POP SWAP3 SWAP2 POP POP JUMP JUMPDEST PUSH1 0x0 PUSH1 0x20 DUP3 ADD SWAP1 POP PUSH2 0x812 PUSH1 0x0 DUP4 ADD DUP5 PUSH2 0x6C5 JUMP JUMPDEST SWAP3 SWAP2 POP POP JUMP JUMPDEST PUSH1 0x0 PUSH1 0x20 DUP3 ADD SWAP1 POP DUP2 DUP2 SUB PUSH1 0x0 DUP4 ADD MSTORE PUSH2 0x832 DUP2 DUP5 PUSH2 0x70D JUMP JUMPDEST SWAP1 POP SWAP3 SWAP2 POP POP JUMP JUMPDEST PUSH1 0x0 PUSH1 0x20 DUP3 ADD SWAP1 POP DUP2 DUP2 SUB PUSH1 0x0 DUP4 ADD MSTORE PUSH2 0x853 DUP2 PUSH2 0x777 JUMP JUMPDEST SWAP1 POP SWAP2 SWAP1 POP JUMP JUMPDEST PUSH1 0x0 PUSH1 0x20 DUP3 ADD SWAP1 POP PUSH2 0x86F PUSH1 0x0 DUP4 ADD DUP5 PUSH2 0x79A JUMP JUMPDEST SWAP3 SWAP2 POP POP JUMP JUMPDEST PUSH1 0x0 PUSH2 0x87F PUSH2 0x890 JUMP JUMPDEST SWAP1 POP PUSH2 0x88B DUP3 DUP3 PUSH2 0x9F6 JUMP JUMPDEST SWAP2 SWAP1 POP JUMP JUMPDEST PUSH1 0x0 PUSH1 0x40 MLOAD SWAP1 POP SWAP1 JUMP JUMPDEST PUSH1 0x0 PUSH8 0xFFFFFFFFFFFFFFFF DUP3 GT ISZERO PUSH2 0x8B5 JUMPI PUSH2 0x8B4 PUSH2 0xA56 JUMP JUMPDEST JUMPDEST PUSH2 0x8BE DUP3 PUSH2 0xA99 JUMP JUMPDEST SWAP1 POP PUSH1 0x20 DUP2 ADD SWAP1 POP SWAP2 SWAP1 POP JUMP JUMPDEST PUSH1 0x0 DUP2 SWAP1 POP PUSH1 0x20 DUP3 ADD SWAP1 POP SWAP2 SWAP1 POP JUMP JUMPDEST PUSH1 0x0 DUP2 MLOAD SWAP1 POP SWAP2 SWAP1 POP JUMP JUMPDEST PUSH1 0x0 DUP2 MLOAD SWAP1 POP SWAP2 SWAP1 POP JUMP JUMPDEST PUSH1 0x0 PUSH1 0x20 DUP3 ADD SWAP1 POP SWAP2 SWAP1 POP JUMP JUMPDEST PUSH1 0x0 DUP3 DUP3 MSTORE PUSH1 0x20 DUP3 ADD SWAP1 POP SWAP3 SWAP2 POP POP JUMP JUMPDEST PUSH1 0x0 DUP3 DUP3 MSTORE PUSH1 0x20 DUP3 ADD SWAP1 POP SWAP3 SWAP2 POP POP JUMP JUMPDEST PUSH1 0x0 DUP3 DUP3 MSTORE PUSH1 0x20 DUP3 ADD SWAP1 POP SWAP3 SWAP2 POP POP JUMP JUMPDEST PUSH1 0x0 DUP2 SWAP1 POP SWAP3 SWAP2 POP POP JUMP JUMPDEST PUSH1 0x0 PUSH2 0x947 DUP3 PUSH2 0x958 JUMP JUMPDEST SWAP1 POP SWAP2 SWAP1 POP JUMP JUMPDEST PUSH1 0x0 DUP2 SWAP1 POP SWAP2 SWAP1 POP JUMP JUMPDEST PUSH1 0x0 PUSH20 0xFFFFFFFFFFFFFFFFFFFFFFFFFFFFFFFFFFFFFFFF DUP3 AND SWAP1 POP SWAP2 SWAP1 POP JUMP JUMPDEST PUSH1 0x0 DUP2 SWAP1 POP SWAP2 SWAP1 POP JUMP JUMPDEST DUP3 DUP2 DUP4 CALLDATACOPY PUSH1 0x0 DUP4 DUP4 ADD MSTORE POP POP POP JUMP JUMPDEST PUSH1 0x0 JUMPDEST DUP4 DUP2 LT ISZERO PUSH2 0x9AF JUMPI DUP1 DUP3 ADD MLOAD DUP2 DUP5 ADD MSTORE PUSH1 0x20 DUP2 ADD SWAP1 POP PUSH2 0x994 JUMP JUMPDEST DUP4 DUP2 GT ISZERO PUSH2 0x9BE JUMPI PUSH1 0x0 DUP5 DUP5 ADD MSTORE JUMPDEST POP POP POP POP JUMP JUMPDEST PUSH1 0x0 PUSH1 0x2 DUP3 DIV SWAP1 POP PUSH1 0x1 DUP3 AND DUP1 PUSH2 0x9DC JUMPI PUSH1 0x7F DUP3 AND SWAP2 POP JUMPDEST PUSH1 0x20 DUP3 LT DUP2 EQ ISZERO PUSH2 0x9F0 JUMPI PUSH2 0x9EF PUSH2 0xA27 JUMP JUMPDEST JUMPDEST POP SWAP2 SWAP1 POP JUMP JUMPDEST PUSH2 0x9FF DUP3 PUSH2 0xA99 JUMP JUMPDEST DUP2 ADD DUP2 DUP2 LT PUSH8 0xFFFFFFFFFFFFFFFF DUP3 GT OR ISZERO PUSH2 0xA1E JUMPI PUSH2 0xA1D PUSH2 0xA56 JUMP JUMPDEST JUMPDEST DUP1 PUSH1 0x40 MSTORE POP POP POP JUMP JUMPDEST PUSH32 0x4E487B7100000000000000000000000000000000000000000000000000000000 PUSH1 0x0 MSTORE PUSH1 0x22 PUSH1 0x4 MSTORE PUSH1 0x24 PUSH1 0x0 REVERT JUMPDEST PUSH32 0x4E487B7100000000000000000000000000000000000000000000000000000000 PUSH1 0x0 MSTORE PUSH1 0x41 PUSH1 0x4 MSTORE PUSH1 0x24 PUSH1 0x0 REVERT JUMPDEST PUSH1 0x0 DUP1 REVERT JUMPDEST PUSH1 0x0 DUP1 REVERT JUMPDEST PUSH1 0x0 DUP1 REVERT JUMPDEST PUSH1 0x0 DUP1 REVERT JUMPDEST PUSH1 0x0 PUSH1 0x1F NOT PUSH1 0x1F DUP4 ADD AND SWAP1 POP SWAP2 SWAP1 POP JUMP JUMPDEST PUSH32 0x4E6F206572657320656C2070726F6665736F722E000000000000000000000000 PUSH1 0x0 DUP3 ADD MSTORE POP JUMP JUMPDEST PUSH2 0xADC DUP2 PUSH2 0x978 JUMP JUMPDEST DUP2 EQ PUSH2 0xAE7 JUMPI PUSH1 0x0 DUP1 REVERT JUMPDEST POP JUMP INVALID LOG2 PUSH5 0x6970667358 0x22 SLT KECCAK256 CREATE SWAP1 ADDMOD 0xE7 DUP9 PUSH8 0x9F2A78CAE0ED3847 DUP12 0x2D CREATE2 0xCD CALLER PUSH15 0xD3B0C0BC606535113236670664736F PUSH13 0x63430008070033000000000000 "
				},
				"gasEstimates": {
					"creation": {
						"codeDepositCost": "569600",
						"executionCost": "24866",
						"totalCost": "594466"
					},
					"external": {
						"evaluar(string,uint256)": "infinite",
						"profesor()": "2577",
						"revision(string)": "infinite",
						"verNotas(string)": "infinite",
						"verRevision()": "infinite"
					}
				},
				"methodIdentifiers": {
					"evaluar(string,uint256)": "383bebae",
					"profesor()": "df096576",
					"revision(string)": "ca981d91",
					"verNotas(string)": "deafddae",
					"verRevision()": "7345fc20"
				}
			},
			"storageLayout": {
				"storage": [
					{
						"astId": 4,
						"contract": "Notas/notas.sol:notas",
						"label": "profesor",
						"offset": 0,
						"slot": "0",
						"type": "t_address"
					},
					{
						"astId": 17,
						"contract": "Notas/notas.sol:notas",
						"label": "Notas",
						"offset": 0,
						"slot": "1",
						"type": "t_mapping(t_bytes32,t_uint256)"
					},
					{
						"astId": 20,
						"contract": "Notas/notas.sol:notas",
						"label": "revisiones",
						"offset": 0,
						"slot": "2",
						"type": "t_array(t_string_storage)dyn_storage"
					}
				],
				"types": {
					"t_address": {
						"encoding": "inplace",
						"label": "address",
						"numberOfBytes": "20"
					},
					"t_array(t_string_storage)dyn_storage": {
						"base": "t_string_storage",
						"encoding": "dynamic_array",
						"label": "string[]",
						"numberOfBytes": "32"
					},
					"t_bytes32": {
						"encoding": "inplace",
						"label": "bytes32",
						"numberOfBytes": "32"
					},
					"t_mapping(t_bytes32,t_uint256)": {
						"encoding": "mapping",
						"key": "t_bytes32",
						"label": "mapping(bytes32 => uint256)",
						"numberOfBytes": "32",
						"value": "t_uint256"
					},
					"t_string_storage": {
						"encoding": "bytes",
						"label": "string",
						"numberOfBytes": "32"
					},
					"t_uint256": {
						"encoding": "inplace",
						"label": "uint256",
						"numberOfBytes": "32"
					}
				}
			},
			"userdoc": {
				"kind": "user",
				"methods": {},
				"version": 1
			}
		}
	}
}