{
	"Notas/notas.sol": {
		"notas": {
			"abi": [
				{
					"inputs": [],
					"stateMutability": "nonpayable",
					"type": "constructor"
				},
				{
					"anonymous": false,
					"inputs": [
						{
							"indexed": false,
							"internalType": "bytes32",
							"name": "",
							"type": "bytes32"
						}
					],
					"name": "alumno_evaluado",
					"type": "event"
				},
				{
					"anonymous": false,
					"inputs": [
						{
							"indexed": false,
							"internalType": "string",
							"name": "",
							"type": "string"
						}
					],
					"name": "evento_revision",
					"type": "event"
				},
				{
					"anonymous": false,
					"inputs": [
						{
							"indexed": false,
							"internalType": "string",
							"name": "",
							"type": "string"
						}
					],
					"name": "saludar",
					"type": "event"
				},
				{
					"inputs": [
						{
							"internalType": "string",
							"name": "_idAlumno",
							"type": "string"
						},
						{
							"internalType": "uint256",
							"name": "_nota",
							"type": "uint256"
						}
					],
					"name": "evaluar",
					"outputs": [],
					"stateMutability": "nonpayable",
					"type": "function"
				},
				{
					"inputs": [],
					"name": "profesor",
					"outputs": [
						{
							"internalType": "address",
							"name": "",
							"type": "address"
						}
					],
					"stateMutability": "view",
					"type": "function"
				},
				{
					"inputs": [],
					"name": "salu",
					"outputs": [],
					"stateMutability": "nonpayable",
					"type": "function"
				}
			],
			"devdoc": {
				"kind": "dev",
				"methods": {},
				"version": 1
			},
			"evm": {
				"assembly": "    /* \"Notas/notas.sol\":97:1023  contract notas {\r... */\n  mstore(0x40, 0x80)\n    /* \"Notas/notas.sol\":219:273  constructor() {\r... */\n  callvalue\n  dup1\n  iszero\n  tag_1\n  jumpi\n  0x00\n  dup1\n  revert\ntag_1:\n  pop\n    /* \"Notas/notas.sol\":255:265  msg.sender */\n  caller\n    /* \"Notas/notas.sol\":244:252  profesor */\n  0x00\n  dup1\n    /* \"Notas/notas.sol\":244:265  profesor = msg.sender */\n  0x0100\n  exp\n  dup2\n  sload\n  dup2\n  0xffffffffffffffffffffffffffffffffffffffff\n  mul\n  not\n  and\n  swap1\n  dup4\n  0xffffffffffffffffffffffffffffffffffffffff\n  and\n  mul\n  or\n  swap1\n  sstore\n  pop\n    /* \"Notas/notas.sol\":97:1023  contract notas {\r... */\n  dataSize(sub_0)\n  dup1\n  dataOffset(sub_0)\n  0x00\n  codecopy\n  0x00\n  return\nstop\n\nsub_0: assembly {\n        /* \"Notas/notas.sol\":97:1023  contract notas {\r... */\n      mstore(0x40, 0x80)\n      callvalue\n      dup1\n      iszero\n      tag_1\n      jumpi\n      0x00\n      dup1\n      revert\n    tag_1:\n      pop\n      jumpi(tag_2, lt(calldatasize, 0x04))\n      shr(0xe0, calldataload(0x00))\n      dup1\n      0x383bebae\n      eq\n      tag_3\n      jumpi\n      dup1\n      0x8ba05007\n      eq\n      tag_4\n      jumpi\n      dup1\n      0xdf096576\n      eq\n      tag_5\n      jumpi\n    tag_2:\n      0x00\n      dup1\n      revert\n        /* \"Notas/notas.sol\":667:918  function evaluar(string memory _idAlumno, uint _nota) public OnlyTeacher(msg.sender) {\r... */\n    tag_3:\n      tag_6\n      0x04\n      dup1\n      calldatasize\n      sub\n      dup2\n      add\n      swap1\n      tag_7\n      swap2\n      swap1\n      tag_8\n      jump\t// in\n    tag_7:\n      tag_9\n      jump\t// in\n    tag_6:\n      stop\n        /* \"Notas/notas.sol\":954:1020  function salu() public {\r... */\n    tag_4:\n      tag_10\n      tag_11\n      jump\t// in\n    tag_10:\n      stop\n        /* \"Notas/notas.sol\":119:142  address public profesor */\n    tag_5:\n      tag_12\n      tag_13\n      jump\t// in\n    tag_12:\n      mload(0x40)\n      tag_14\n      swap2\n      swap1\n      tag_15\n      jump\t// in\n    tag_14:\n      mload(0x40)\n      dup1\n      swap2\n      sub\n      swap1\n      return\n        /* \"Notas/notas.sol\":667:918  function evaluar(string memory _idAlumno, uint _nota) public OnlyTeacher(msg.sender) {\r... */\n    tag_9:\n        /* \"Notas/notas.sol\":740:750  msg.sender */\n      caller\n        /* \"Notas/notas.sol\":583:591  profesor */\n      0x00\n      dup1\n      sload\n      swap1\n      0x0100\n      exp\n      swap1\n      div\n      0xffffffffffffffffffffffffffffffffffffffff\n      and\n        /* \"Notas/notas.sol\":569:591  _direccion == profesor */\n      0xffffffffffffffffffffffffffffffffffffffff\n      and\n        /* \"Notas/notas.sol\":569:579  _direccion */\n      dup2\n        /* \"Notas/notas.sol\":569:591  _direccion == profesor */\n      0xffffffffffffffffffffffffffffffffffffffff\n      and\n      eq\n        /* \"Notas/notas.sol\":561:616  require(_direccion == profesor, \"No eres el profesor.\") */\n      tag_17\n      jumpi\n      mload(0x40)\n      0x08c379a000000000000000000000000000000000000000000000000000000000\n      dup2\n      mstore\n      0x04\n      add\n      tag_18\n      swap1\n      tag_19\n      jump\t// in\n    tag_18:\n      mload(0x40)\n      dup1\n      swap2\n      sub\n      swap1\n      revert\n    tag_17:\n        /* \"Notas/notas.sol\":763:784  bytes32 hash_idAlumno */\n      0x00\n        /* \"Notas/notas.sol\":814:823  _idAlumno */\n      dup4\n        /* \"Notas/notas.sol\":797:824  abi.encodePacked(_idAlumno) */\n      add(0x20, mload(0x40))\n      tag_21\n      swap2\n      swap1\n      tag_22\n      jump\t// in\n    tag_21:\n      mload(0x40)\n      0x20\n      dup2\n      dup4\n      sub\n      sub\n      dup2\n      mstore\n      swap1\n      0x40\n      mstore\n        /* \"Notas/notas.sol\":787:825  keccak256(abi.encodePacked(_idAlumno)) */\n      dup1\n      mload\n      swap1\n      0x20\n      add\n      keccak256\n        /* \"Notas/notas.sol\":763:825  bytes32 hash_idAlumno = keccak256(abi.encodePacked(_idAlumno)) */\n      swap1\n      pop\n        /* \"Notas/notas.sol\":859:864  _nota */\n      dup3\n        /* \"Notas/notas.sol\":836:841  Notas */\n      0x01\n        /* \"Notas/notas.sol\":836:856  Notas[hash_idAlumno] */\n      0x00\n        /* \"Notas/notas.sol\":842:855  hash_idAlumno */\n      dup4\n        /* \"Notas/notas.sol\":836:856  Notas[hash_idAlumno] */\n      dup2\n      mstore\n      0x20\n      add\n      swap1\n      dup2\n      mstore\n      0x20\n      add\n      0x00\n      keccak256\n        /* \"Notas/notas.sol\":836:864  Notas[hash_idAlumno] = _nota */\n      dup2\n      swap1\n      sstore\n      pop\n        /* \"Notas/notas.sol\":880:910  alumno_evaluado(hash_idAlumno) */\n      0x9129eeeb684507aca017f10030b70e5bf86d129f417fcc5840348a957eb12cee\n        /* \"Notas/notas.sol\":896:909  hash_idAlumno */\n      dup2\n        /* \"Notas/notas.sol\":880:910  alumno_evaluado(hash_idAlumno) */\n      mload(0x40)\n      tag_23\n      swap2\n      swap1\n      tag_24\n      jump\t// in\n    tag_23:\n      mload(0x40)\n      dup1\n      swap2\n      sub\n      swap1\n      log1\n        /* \"Notas/notas.sol\":752:918  {\r... */\n      pop\n        /* \"Notas/notas.sol\":667:918  function evaluar(string memory _idAlumno, uint _nota) public OnlyTeacher(msg.sender) {\r... */\n      pop\n      pop\n      pop\n      jump\t// out\n        /* \"Notas/notas.sol\":954:1020  function salu() public {\r... */\n    tag_11:\n        /* \"Notas/notas.sol\":997:1012  saludar(\"hola\") */\n      0x46272b7009480cccdaf7ba3b742f05ab2943ba6c86425993149b74c65bc473e5\n      mload(0x40)\n      tag_26\n      swap1\n      tag_27\n      jump\t// in\n    tag_26:\n      mload(0x40)\n      dup1\n      swap2\n      sub\n      swap1\n      log1\n        /* \"Notas/notas.sol\":954:1020  function salu() public {\r... */\n      jump\t// out\n        /* \"Notas/notas.sol\":119:142  address public profesor */\n    tag_13:\n      0x00\n      dup1\n      sload\n      swap1\n      0x0100\n      exp\n      swap1\n      div\n      0xffffffffffffffffffffffffffffffffffffffff\n      and\n      dup2\n      jump\t// out\n        /* \"#utility.yul\":7:419   */\n    tag_29:\n        /* \"#utility.yul\":85:90   */\n      0x00\n        /* \"#utility.yul\":110:176   */\n      tag_31\n        /* \"#utility.yul\":126:175   */\n      tag_32\n        /* \"#utility.yul\":168:174   */\n      dup5\n        /* \"#utility.yul\":126:175   */\n      tag_33\n      jump\t// in\n    tag_32:\n        /* \"#utility.yul\":110:176   */\n      tag_34\n      jump\t// in\n    tag_31:\n        /* \"#utility.yul\":101:176   */\n      swap1\n      pop\n        /* \"#utility.yul\":199:205   */\n      dup3\n        /* \"#utility.yul\":192:197   */\n      dup2\n        /* \"#utility.yul\":185:206   */\n      mstore\n        /* \"#utility.yul\":237:241   */\n      0x20\n        /* \"#utility.yul\":230:235   */\n      dup2\n        /* \"#utility.yul\":226:242   */\n      add\n        /* \"#utility.yul\":275:278   */\n      dup5\n        /* \"#utility.yul\":266:272   */\n      dup5\n        /* \"#utility.yul\":261:264   */\n      dup5\n        /* \"#utility.yul\":257:273   */\n      add\n        /* \"#utility.yul\":254:279   */\n      gt\n        /* \"#utility.yul\":251:363   */\n      iszero\n      tag_35\n      jumpi\n        /* \"#utility.yul\":282:361   */\n      tag_36\n      tag_37\n      jump\t// in\n    tag_36:\n        /* \"#utility.yul\":251:363   */\n    tag_35:\n        /* \"#utility.yul\":372:413   */\n      tag_38\n        /* \"#utility.yul\":406:412   */\n      dup5\n        /* \"#utility.yul\":401:404   */\n      dup3\n        /* \"#utility.yul\":396:399   */\n      dup6\n        /* \"#utility.yul\":372:413   */\n      tag_39\n      jump\t// in\n    tag_38:\n        /* \"#utility.yul\":91:419   */\n      pop\n        /* \"#utility.yul\":7:419   */\n      swap4\n      swap3\n      pop\n      pop\n      pop\n      jump\t// out\n        /* \"#utility.yul\":439:779   */\n    tag_40:\n        /* \"#utility.yul\":495:500   */\n      0x00\n        /* \"#utility.yul\":544:547   */\n      dup3\n        /* \"#utility.yul\":537:541   */\n      0x1f\n        /* \"#utility.yul\":529:535   */\n      dup4\n        /* \"#utility.yul\":525:542   */\n      add\n        /* \"#utility.yul\":521:548   */\n      slt\n        /* \"#utility.yul\":511:633   */\n      tag_42\n      jumpi\n        /* \"#utility.yul\":552:631   */\n      tag_43\n      tag_44\n      jump\t// in\n    tag_43:\n        /* \"#utility.yul\":511:633   */\n    tag_42:\n        /* \"#utility.yul\":669:675   */\n      dup2\n        /* \"#utility.yul\":656:676   */\n      calldataload\n        /* \"#utility.yul\":694:773   */\n      tag_45\n        /* \"#utility.yul\":769:772   */\n      dup5\n        /* \"#utility.yul\":761:767   */\n      dup3\n        /* \"#utility.yul\":754:758   */\n      0x20\n        /* \"#utility.yul\":746:752   */\n      dup7\n        /* \"#utility.yul\":742:759   */\n      add\n        /* \"#utility.yul\":694:773   */\n      tag_29\n      jump\t// in\n    tag_45:\n        /* \"#utility.yul\":685:773   */\n      swap2\n      pop\n        /* \"#utility.yul\":501:779   */\n      pop\n        /* \"#utility.yul\":439:779   */\n      swap3\n      swap2\n      pop\n      pop\n      jump\t// out\n        /* \"#utility.yul\":785:924   */\n    tag_46:\n        /* \"#utility.yul\":831:836   */\n      0x00\n        /* \"#utility.yul\":869:875   */\n      dup2\n        /* \"#utility.yul\":856:876   */\n      calldataload\n        /* \"#utility.yul\":847:876   */\n      swap1\n      pop\n        /* \"#utility.yul\":885:918   */\n      tag_48\n        /* \"#utility.yul\":912:917   */\n      dup2\n        /* \"#utility.yul\":885:918   */\n      tag_49\n      jump\t// in\n    tag_48:\n        /* \"#utility.yul\":785:924   */\n      swap3\n      swap2\n      pop\n      pop\n      jump\t// out\n        /* \"#utility.yul\":930:1584   */\n    tag_8:\n        /* \"#utility.yul\":1008:1014   */\n      0x00\n        /* \"#utility.yul\":1016:1022   */\n      dup1\n        /* \"#utility.yul\":1065:1067   */\n      0x40\n        /* \"#utility.yul\":1053:1062   */\n      dup4\n        /* \"#utility.yul\":1044:1051   */\n      dup6\n        /* \"#utility.yul\":1040:1063   */\n      sub\n        /* \"#utility.yul\":1036:1068   */\n      slt\n        /* \"#utility.yul\":1033:1152   */\n      iszero\n      tag_51\n      jumpi\n        /* \"#utility.yul\":1071:1150   */\n      tag_52\n      tag_53\n      jump\t// in\n    tag_52:\n        /* \"#utility.yul\":1033:1152   */\n    tag_51:\n        /* \"#utility.yul\":1219:1220   */\n      0x00\n        /* \"#utility.yul\":1208:1217   */\n      dup4\n        /* \"#utility.yul\":1204:1221   */\n      add\n        /* \"#utility.yul\":1191:1222   */\n      calldataload\n        /* \"#utility.yul\":1249:1267   */\n      0xffffffffffffffff\n        /* \"#utility.yul\":1241:1247   */\n      dup2\n        /* \"#utility.yul\":1238:1268   */\n      gt\n        /* \"#utility.yul\":1235:1352   */\n      iszero\n      tag_54\n      jumpi\n        /* \"#utility.yul\":1271:1350   */\n      tag_55\n      tag_56\n      jump\t// in\n    tag_55:\n        /* \"#utility.yul\":1235:1352   */\n    tag_54:\n        /* \"#utility.yul\":1376:1439   */\n      tag_57\n        /* \"#utility.yul\":1431:1438   */\n      dup6\n        /* \"#utility.yul\":1422:1428   */\n      dup3\n        /* \"#utility.yul\":1411:1420   */\n      dup7\n        /* \"#utility.yul\":1407:1429   */\n      add\n        /* \"#utility.yul\":1376:1439   */\n      tag_40\n      jump\t// in\n    tag_57:\n        /* \"#utility.yul\":1366:1439   */\n      swap3\n      pop\n        /* \"#utility.yul\":1162:1449   */\n      pop\n        /* \"#utility.yul\":1488:1490   */\n      0x20\n        /* \"#utility.yul\":1514:1567   */\n      tag_58\n        /* \"#utility.yul\":1559:1566   */\n      dup6\n        /* \"#utility.yul\":1550:1556   */\n      dup3\n        /* \"#utility.yul\":1539:1548   */\n      dup7\n        /* \"#utility.yul\":1535:1557   */\n      add\n        /* \"#utility.yul\":1514:1567   */\n      tag_46\n      jump\t// in\n    tag_58:\n        /* \"#utility.yul\":1504:1567   */\n      swap2\n      pop\n        /* \"#utility.yul\":1459:1577   */\n      pop\n        /* \"#utility.yul\":930:1584   */\n      swap3\n      pop\n      swap3\n      swap1\n      pop\n      jump\t// out\n        /* \"#utility.yul\":1590:1708   */\n    tag_59:\n        /* \"#utility.yul\":1677:1701   */\n      tag_61\n        /* \"#utility.yul\":1695:1700   */\n      dup2\n        /* \"#utility.yul\":1677:1701   */\n      tag_62\n      jump\t// in\n    tag_61:\n        /* \"#utility.yul\":1672:1675   */\n      dup3\n        /* \"#utility.yul\":1665:1702   */\n      mstore\n        /* \"#utility.yul\":1590:1708   */\n      pop\n      pop\n      jump\t// out\n        /* \"#utility.yul\":1714:1832   */\n    tag_63:\n        /* \"#utility.yul\":1801:1825   */\n      tag_65\n        /* \"#utility.yul\":1819:1824   */\n      dup2\n        /* \"#utility.yul\":1801:1825   */\n      tag_66\n      jump\t// in\n    tag_65:\n        /* \"#utility.yul\":1796:1799   */\n      dup3\n        /* \"#utility.yul\":1789:1826   */\n      mstore\n        /* \"#utility.yul\":1714:1832   */\n      pop\n      pop\n      jump\t// out\n        /* \"#utility.yul\":1838:2215   */\n    tag_67:\n        /* \"#utility.yul\":1944:1947   */\n      0x00\n        /* \"#utility.yul\":1972:2011   */\n      tag_69\n        /* \"#utility.yul\":2005:2010   */\n      dup3\n        /* \"#utility.yul\":1972:2011   */\n      tag_70\n      jump\t// in\n    tag_69:\n        /* \"#utility.yul\":2027:2116   */\n      tag_71\n        /* \"#utility.yul\":2109:2115   */\n      dup2\n        /* \"#utility.yul\":2104:2107   */\n      dup6\n        /* \"#utility.yul\":2027:2116   */\n      tag_72\n      jump\t// in\n    tag_71:\n        /* \"#utility.yul\":2020:2116   */\n      swap4\n      pop\n        /* \"#utility.yul\":2125:2177   */\n      tag_73\n        /* \"#utility.yul\":2170:2176   */\n      dup2\n        /* \"#utility.yul\":2165:2168   */\n      dup6\n        /* \"#utility.yul\":2158:2162   */\n      0x20\n        /* \"#utility.yul\":2151:2156   */\n      dup7\n        /* \"#utility.yul\":2147:2163   */\n      add\n        /* \"#utility.yul\":2125:2177   */\n      tag_74\n      jump\t// in\n    tag_73:\n        /* \"#utility.yul\":2202:2208   */\n      dup1\n        /* \"#utility.yul\":2197:2200   */\n      dup5\n        /* \"#utility.yul\":2193:2209   */\n      add\n        /* \"#utility.yul\":2186:2209   */\n      swap2\n      pop\n        /* \"#utility.yul\":1948:2215   */\n      pop\n        /* \"#utility.yul\":1838:2215   */\n      swap3\n      swap2\n      pop\n      pop\n      jump\t// out\n        /* \"#utility.yul\":2221:2586   */\n    tag_75:\n        /* \"#utility.yul\":2363:2366   */\n      0x00\n        /* \"#utility.yul\":2384:2450   */\n      tag_77\n        /* \"#utility.yul\":2448:2449   */\n      0x04\n        /* \"#utility.yul\":2443:2446   */\n      dup4\n        /* \"#utility.yul\":2384:2450   */\n      tag_78\n      jump\t// in\n    tag_77:\n        /* \"#utility.yul\":2377:2450   */\n      swap2\n      pop\n        /* \"#utility.yul\":2459:2552   */\n      tag_79\n        /* \"#utility.yul\":2548:2551   */\n      dup3\n        /* \"#utility.yul\":2459:2552   */\n      tag_80\n      jump\t// in\n    tag_79:\n        /* \"#utility.yul\":2577:2579   */\n      0x20\n        /* \"#utility.yul\":2572:2575   */\n      dup3\n        /* \"#utility.yul\":2568:2580   */\n      add\n        /* \"#utility.yul\":2561:2580   */\n      swap1\n      pop\n        /* \"#utility.yul\":2221:2586   */\n      swap2\n      swap1\n      pop\n      jump\t// out\n        /* \"#utility.yul\":2592:2958   */\n    tag_81:\n        /* \"#utility.yul\":2734:2737   */\n      0x00\n        /* \"#utility.yul\":2755:2822   */\n      tag_83\n        /* \"#utility.yul\":2819:2821   */\n      0x14\n        /* \"#utility.yul\":2814:2817   */\n      dup4\n        /* \"#utility.yul\":2755:2822   */\n      tag_78\n      jump\t// in\n    tag_83:\n        /* \"#utility.yul\":2748:2822   */\n      swap2\n      pop\n        /* \"#utility.yul\":2831:2924   */\n      tag_84\n        /* \"#utility.yul\":2920:2923   */\n      dup3\n        /* \"#utility.yul\":2831:2924   */\n      tag_85\n      jump\t// in\n    tag_84:\n        /* \"#utility.yul\":2949:2951   */\n      0x20\n        /* \"#utility.yul\":2944:2947   */\n      dup3\n        /* \"#utility.yul\":2940:2952   */\n      add\n        /* \"#utility.yul\":2933:2952   */\n      swap1\n      pop\n        /* \"#utility.yul\":2592:2958   */\n      swap2\n      swap1\n      pop\n      jump\t// out\n        /* \"#utility.yul\":2964:3239   */\n    tag_22:\n        /* \"#utility.yul\":3096:3099   */\n      0x00\n        /* \"#utility.yul\":3118:3213   */\n      tag_87\n        /* \"#utility.yul\":3209:3212   */\n      dup3\n        /* \"#utility.yul\":3200:3206   */\n      dup5\n        /* \"#utility.yul\":3118:3213   */\n      tag_67\n      jump\t// in\n    tag_87:\n        /* \"#utility.yul\":3111:3213   */\n      swap2\n      pop\n        /* \"#utility.yul\":3230:3233   */\n      dup2\n        /* \"#utility.yul\":3223:3233   */\n      swap1\n      pop\n        /* \"#utility.yul\":2964:3239   */\n      swap3\n      swap2\n      pop\n      pop\n      jump\t// out\n        /* \"#utility.yul\":3245:3467   */\n    tag_15:\n        /* \"#utility.yul\":3338:3342   */\n      0x00\n        /* \"#utility.yul\":3376:3378   */\n      0x20\n        /* \"#utility.yul\":3365:3374   */\n      dup3\n        /* \"#utility.yul\":3361:3379   */\n      add\n        /* \"#utility.yul\":3353:3379   */\n      swap1\n      pop\n        /* \"#utility.yul\":3389:3460   */\n      tag_89\n        /* \"#utility.yul\":3457:3458   */\n      0x00\n        /* \"#utility.yul\":3446:3455   */\n      dup4\n        /* \"#utility.yul\":3442:3459   */\n      add\n        /* \"#utility.yul\":3433:3439   */\n      dup5\n        /* \"#utility.yul\":3389:3460   */\n      tag_59\n      jump\t// in\n    tag_89:\n        /* \"#utility.yul\":3245:3467   */\n      swap3\n      swap2\n      pop\n      pop\n      jump\t// out\n        /* \"#utility.yul\":3473:3695   */\n    tag_24:\n        /* \"#utility.yul\":3566:3570   */\n      0x00\n        /* \"#utility.yul\":3604:3606   */\n      0x20\n        /* \"#utility.yul\":3593:3602   */\n      dup3\n        /* \"#utility.yul\":3589:3607   */\n      add\n        /* \"#utility.yul\":3581:3607   */\n      swap1\n      pop\n        /* \"#utility.yul\":3617:3688   */\n      tag_91\n        /* \"#utility.yul\":3685:3686   */\n      0x00\n        /* \"#utility.yul\":3674:3683   */\n      dup4\n        /* \"#utility.yul\":3670:3687   */\n      add\n        /* \"#utility.yul\":3661:3667   */\n      dup5\n        /* \"#utility.yul\":3617:3688   */\n      tag_63\n      jump\t// in\n    tag_91:\n        /* \"#utility.yul\":3473:3695   */\n      swap3\n      swap2\n      pop\n      pop\n      jump\t// out\n        /* \"#utility.yul\":3701:4120   */\n    tag_27:\n        /* \"#utility.yul\":3867:3871   */\n      0x00\n        /* \"#utility.yul\":3905:3907   */\n      0x20\n        /* \"#utility.yul\":3894:3903   */\n      dup3\n        /* \"#utility.yul\":3890:3908   */\n      add\n        /* \"#utility.yul\":3882:3908   */\n      swap1\n      pop\n        /* \"#utility.yul\":3954:3963   */\n      dup2\n        /* \"#utility.yul\":3948:3952   */\n      dup2\n        /* \"#utility.yul\":3944:3964   */\n      sub\n        /* \"#utility.yul\":3940:3941   */\n      0x00\n        /* \"#utility.yul\":3929:3938   */\n      dup4\n        /* \"#utility.yul\":3925:3942   */\n      add\n        /* \"#utility.yul\":3918:3965   */\n      mstore\n        /* \"#utility.yul\":3982:4113   */\n      tag_93\n        /* \"#utility.yul\":4108:4112   */\n      dup2\n        /* \"#utility.yul\":3982:4113   */\n      tag_75\n      jump\t// in\n    tag_93:\n        /* \"#utility.yul\":3974:4113   */\n      swap1\n      pop\n        /* \"#utility.yul\":3701:4120   */\n      swap2\n      swap1\n      pop\n      jump\t// out\n        /* \"#utility.yul\":4126:4545   */\n    tag_19:\n        /* \"#utility.yul\":4292:4296   */\n      0x00\n        /* \"#utility.yul\":4330:4332   */\n      0x20\n        /* \"#utility.yul\":4319:4328   */\n      dup3\n        /* \"#utility.yul\":4315:4333   */\n      add\n        /* \"#utility.yul\":4307:4333   */\n      swap1\n      pop\n        /* \"#utility.yul\":4379:4388   */\n      dup2\n        /* \"#utility.yul\":4373:4377   */\n      dup2\n        /* \"#utility.yul\":4369:4389   */\n      sub\n        /* \"#utility.yul\":4365:4366   */\n      0x00\n        /* \"#utility.yul\":4354:4363   */\n      dup4\n        /* \"#utility.yul\":4350:4367   */\n      add\n        /* \"#utility.yul\":4343:4390   */\n      mstore\n        /* \"#utility.yul\":4407:4538   */\n      tag_95\n        /* \"#utility.yul\":4533:4537   */\n      dup2\n        /* \"#utility.yul\":4407:4538   */\n      tag_81\n      jump\t// in\n    tag_95:\n        /* \"#utility.yul\":4399:4538   */\n      swap1\n      pop\n        /* \"#utility.yul\":4126:4545   */\n      swap2\n      swap1\n      pop\n      jump\t// out\n        /* \"#utility.yul\":4551:4680   */\n    tag_34:\n        /* \"#utility.yul\":4585:4591   */\n      0x00\n        /* \"#utility.yul\":4612:4632   */\n      tag_97\n      tag_98\n      jump\t// in\n    tag_97:\n        /* \"#utility.yul\":4602:4632   */\n      swap1\n      pop\n        /* \"#utility.yul\":4641:4674   */\n      tag_99\n        /* \"#utility.yul\":4669:4673   */\n      dup3\n        /* \"#utility.yul\":4661:4667   */\n      dup3\n        /* \"#utility.yul\":4641:4674   */\n      tag_100\n      jump\t// in\n    tag_99:\n        /* \"#utility.yul\":4551:4680   */\n      swap2\n      swap1\n      pop\n      jump\t// out\n        /* \"#utility.yul\":4686:4761   */\n    tag_98:\n        /* \"#utility.yul\":4719:4725   */\n      0x00\n        /* \"#utility.yul\":4752:4754   */\n      0x40\n        /* \"#utility.yul\":4746:4755   */\n      mload\n        /* \"#utility.yul\":4736:4755   */\n      swap1\n      pop\n        /* \"#utility.yul\":4686:4761   */\n      swap1\n      jump\t// out\n        /* \"#utility.yul\":4767:5075   */\n    tag_33:\n        /* \"#utility.yul\":4829:4833   */\n      0x00\n        /* \"#utility.yul\":4919:4937   */\n      0xffffffffffffffff\n        /* \"#utility.yul\":4911:4917   */\n      dup3\n        /* \"#utility.yul\":4908:4938   */\n      gt\n        /* \"#utility.yul\":4905:4961   */\n      iszero\n      tag_103\n      jumpi\n        /* \"#utility.yul\":4941:4959   */\n      tag_104\n      tag_105\n      jump\t// in\n    tag_104:\n        /* \"#utility.yul\":4905:4961   */\n    tag_103:\n        /* \"#utility.yul\":4979:5008   */\n      tag_106\n        /* \"#utility.yul\":5001:5007   */\n      dup3\n        /* \"#utility.yul\":4979:5008   */\n      tag_107\n      jump\t// in\n    tag_106:\n        /* \"#utility.yul\":4971:5008   */\n      swap1\n      pop\n        /* \"#utility.yul\":5063:5067   */\n      0x20\n        /* \"#utility.yul\":5057:5061   */\n      dup2\n        /* \"#utility.yul\":5053:5068   */\n      add\n        /* \"#utility.yul\":5045:5068   */\n      swap1\n      pop\n        /* \"#utility.yul\":4767:5075   */\n      swap2\n      swap1\n      pop\n      jump\t// out\n        /* \"#utility.yul\":5081:5180   */\n    tag_70:\n        /* \"#utility.yul\":5133:5139   */\n      0x00\n        /* \"#utility.yul\":5167:5172   */\n      dup2\n        /* \"#utility.yul\":5161:5173   */\n      mload\n        /* \"#utility.yul\":5151:5173   */\n      swap1\n      pop\n        /* \"#utility.yul\":5081:5180   */\n      swap2\n      swap1\n      pop\n      jump\t// out\n        /* \"#utility.yul\":5186:5355   */\n    tag_78:\n        /* \"#utility.yul\":5270:5281   */\n      0x00\n        /* \"#utility.yul\":5304:5310   */\n      dup3\n        /* \"#utility.yul\":5299:5302   */\n      dup3\n        /* \"#utility.yul\":5292:5311   */\n      mstore\n        /* \"#utility.yul\":5344:5348   */\n      0x20\n        /* \"#utility.yul\":5339:5342   */\n      dup3\n        /* \"#utility.yul\":5335:5349   */\n      add\n        /* \"#utility.yul\":5320:5349   */\n      swap1\n      pop\n        /* \"#utility.yul\":5186:5355   */\n      swap3\n      swap2\n      pop\n      pop\n      jump\t// out\n        /* \"#utility.yul\":5361:5509   */\n    tag_72:\n        /* \"#utility.yul\":5463:5474   */\n      0x00\n        /* \"#utility.yul\":5500:5503   */\n      dup2\n        /* \"#utility.yul\":5485:5503   */\n      swap1\n      pop\n        /* \"#utility.yul\":5361:5509   */\n      swap3\n      swap2\n      pop\n      pop\n      jump\t// out\n        /* \"#utility.yul\":5515:5611   */\n    tag_62:\n        /* \"#utility.yul\":5552:5559   */\n      0x00\n        /* \"#utility.yul\":5581:5605   */\n      tag_112\n        /* \"#utility.yul\":5599:5604   */\n      dup3\n        /* \"#utility.yul\":5581:5605   */\n      tag_113\n      jump\t// in\n    tag_112:\n        /* \"#utility.yul\":5570:5605   */\n      swap1\n      pop\n        /* \"#utility.yul\":5515:5611   */\n      swap2\n      swap1\n      pop\n      jump\t// out\n        /* \"#utility.yul\":5617:5694   */\n    tag_66:\n        /* \"#utility.yul\":5654:5661   */\n      0x00\n        /* \"#utility.yul\":5683:5688   */\n      dup2\n        /* \"#utility.yul\":5672:5688   */\n      swap1\n      pop\n        /* \"#utility.yul\":5617:5694   */\n      swap2\n      swap1\n      pop\n      jump\t// out\n        /* \"#utility.yul\":5700:5826   */\n    tag_113:\n        /* \"#utility.yul\":5737:5744   */\n      0x00\n        /* \"#utility.yul\":5777:5819   */\n      0xffffffffffffffffffffffffffffffffffffffff\n        /* \"#utility.yul\":5770:5775   */\n      dup3\n        /* \"#utility.yul\":5766:5820   */\n      and\n        /* \"#utility.yul\":5755:5820   */\n      swap1\n      pop\n        /* \"#utility.yul\":5700:5826   */\n      swap2\n      swap1\n      pop\n      jump\t// out\n        /* \"#utility.yul\":5832:5909   */\n    tag_116:\n        /* \"#utility.yul\":5869:5876   */\n      0x00\n        /* \"#utility.yul\":5898:5903   */\n      dup2\n        /* \"#utility.yul\":5887:5903   */\n      swap1\n      pop\n        /* \"#utility.yul\":5832:5909   */\n      swap2\n      swap1\n      pop\n      jump\t// out\n        /* \"#utility.yul\":5915:6069   */\n    tag_39:\n        /* \"#utility.yul\":5999:6005   */\n      dup3\n        /* \"#utility.yul\":5994:5997   */\n      dup2\n        /* \"#utility.yul\":5989:5992   */\n      dup4\n        /* \"#utility.yul\":5976:6006   */\n      calldatacopy\n        /* \"#utility.yul\":6061:6062   */\n      0x00\n        /* \"#utility.yul\":6052:6058   */\n      dup4\n        /* \"#utility.yul\":6047:6050   */\n      dup4\n        /* \"#utility.yul\":6043:6059   */\n      add\n        /* \"#utility.yul\":6036:6063   */\n      mstore\n        /* \"#utility.yul\":5915:6069   */\n      pop\n      pop\n      pop\n      jump\t// out\n        /* \"#utility.yul\":6075:6382   */\n    tag_74:\n        /* \"#utility.yul\":6143:6144   */\n      0x00\n        /* \"#utility.yul\":6153:6266   */\n    tag_120:\n        /* \"#utility.yul\":6167:6173   */\n      dup4\n        /* \"#utility.yul\":6164:6165   */\n      dup2\n        /* \"#utility.yul\":6161:6174   */\n      lt\n        /* \"#utility.yul\":6153:6266   */\n      iszero\n      tag_122\n      jumpi\n        /* \"#utility.yul\":6252:6253   */\n      dup1\n        /* \"#utility.yul\":6247:6250   */\n      dup3\n        /* \"#utility.yul\":6243:6254   */\n      add\n        /* \"#utility.yul\":6237:6255   */\n      mload\n        /* \"#utility.yul\":6233:6234   */\n      dup2\n        /* \"#utility.yul\":6228:6231   */\n      dup5\n        /* \"#utility.yul\":6224:6235   */\n      add\n        /* \"#utility.yul\":6217:6256   */\n      mstore\n        /* \"#utility.yul\":6189:6191   */\n      0x20\n        /* \"#utility.yul\":6186:6187   */\n      dup2\n        /* \"#utility.yul\":6182:6192   */\n      add\n        /* \"#utility.yul\":6177:6192   */\n      swap1\n      pop\n        /* \"#utility.yul\":6153:6266   */\n      jump(tag_120)\n    tag_122:\n        /* \"#utility.yul\":6284:6290   */\n      dup4\n        /* \"#utility.yul\":6281:6282   */\n      dup2\n        /* \"#utility.yul\":6278:6291   */\n      gt\n        /* \"#utility.yul\":6275:6376   */\n      iszero\n      tag_123\n      jumpi\n        /* \"#utility.yul\":6364:6365   */\n      0x00\n        /* \"#utility.yul\":6355:6361   */\n      dup5\n        /* \"#utility.yul\":6350:6353   */\n      dup5\n        /* \"#utility.yul\":6346:6362   */\n      add\n        /* \"#utility.yul\":6339:6366   */\n      mstore\n        /* \"#utility.yul\":6275:6376   */\n    tag_123:\n        /* \"#utility.yul\":6124:6382   */\n      pop\n        /* \"#utility.yul\":6075:6382   */\n      pop\n      pop\n      pop\n      jump\t// out\n        /* \"#utility.yul\":6388:6669   */\n    tag_100:\n        /* \"#utility.yul\":6471:6498   */\n      tag_125\n        /* \"#utility.yul\":6493:6497   */\n      dup3\n        /* \"#utility.yul\":6471:6498   */\n      tag_107\n      jump\t// in\n    tag_125:\n        /* \"#utility.yul\":6463:6469   */\n      dup2\n        /* \"#utility.yul\":6459:6499   */\n      add\n        /* \"#utility.yul\":6601:6607   */\n      dup2\n        /* \"#utility.yul\":6589:6599   */\n      dup2\n        /* \"#utility.yul\":6586:6608   */\n      lt\n        /* \"#utility.yul\":6565:6583   */\n      0xffffffffffffffff\n        /* \"#utility.yul\":6553:6563   */\n      dup3\n        /* \"#utility.yul\":6550:6584   */\n      gt\n        /* \"#utility.yul\":6547:6609   */\n      or\n        /* \"#utility.yul\":6544:6632   */\n      iszero\n      tag_126\n      jumpi\n        /* \"#utility.yul\":6612:6630   */\n      tag_127\n      tag_105\n      jump\t// in\n    tag_127:\n        /* \"#utility.yul\":6544:6632   */\n    tag_126:\n        /* \"#utility.yul\":6652:6662   */\n      dup1\n        /* \"#utility.yul\":6648:6650   */\n      0x40\n        /* \"#utility.yul\":6641:6663   */\n      mstore\n        /* \"#utility.yul\":6431:6669   */\n      pop\n        /* \"#utility.yul\":6388:6669   */\n      pop\n      pop\n      jump\t// out\n        /* \"#utility.yul\":6675:6855   */\n    tag_105:\n        /* \"#utility.yul\":6723:6800   */\n      0x4e487b7100000000000000000000000000000000000000000000000000000000\n        /* \"#utility.yul\":6720:6721   */\n      0x00\n        /* \"#utility.yul\":6713:6801   */\n      mstore\n        /* \"#utility.yul\":6820:6824   */\n      0x41\n        /* \"#utility.yul\":6817:6818   */\n      0x04\n        /* \"#utility.yul\":6810:6825   */\n      mstore\n        /* \"#utility.yul\":6844:6848   */\n      0x24\n        /* \"#utility.yul\":6841:6842   */\n      0x00\n        /* \"#utility.yul\":6834:6849   */\n      revert\n        /* \"#utility.yul\":6861:6978   */\n    tag_44:\n        /* \"#utility.yul\":6970:6971   */\n      0x00\n        /* \"#utility.yul\":6967:6968   */\n      dup1\n        /* \"#utility.yul\":6960:6972   */\n      revert\n        /* \"#utility.yul\":6984:7101   */\n    tag_37:\n        /* \"#utility.yul\":7093:7094   */\n      0x00\n        /* \"#utility.yul\":7090:7091   */\n      dup1\n        /* \"#utility.yul\":7083:7095   */\n      revert\n        /* \"#utility.yul\":7107:7224   */\n    tag_56:\n        /* \"#utility.yul\":7216:7217   */\n      0x00\n        /* \"#utility.yul\":7213:7214   */\n      dup1\n        /* \"#utility.yul\":7206:7218   */\n      revert\n        /* \"#utility.yul\":7230:7347   */\n    tag_53:\n        /* \"#utility.yul\":7339:7340   */\n      0x00\n        /* \"#utility.yul\":7336:7337   */\n      dup1\n        /* \"#utility.yul\":7329:7341   */\n      revert\n        /* \"#utility.yul\":7353:7455   */\n    tag_107:\n        /* \"#utility.yul\":7394:7400   */\n      0x00\n        /* \"#utility.yul\":7445:7447   */\n      0x1f\n        /* \"#utility.yul\":7441:7448   */\n      not\n        /* \"#utility.yul\":7436:7438   */\n      0x1f\n        /* \"#utility.yul\":7429:7434   */\n      dup4\n        /* \"#utility.yul\":7425:7439   */\n      add\n        /* \"#utility.yul\":7421:7449   */\n      and\n        /* \"#utility.yul\":7411:7449   */\n      swap1\n      pop\n        /* \"#utility.yul\":7353:7455   */\n      swap2\n      swap1\n      pop\n      jump\t// out\n        /* \"#utility.yul\":7461:7615   */\n    tag_80:\n        /* \"#utility.yul\":7601:7607   */\n      0x686f6c6100000000000000000000000000000000000000000000000000000000\n        /* \"#utility.yul\":7597:7598   */\n      0x00\n        /* \"#utility.yul\":7589:7595   */\n      dup3\n        /* \"#utility.yul\":7585:7599   */\n      add\n        /* \"#utility.yul\":7578:7608   */\n      mstore\n        /* \"#utility.yul\":7461:7615   */\n      pop\n      jump\t// out\n        /* \"#utility.yul\":7621:7791   */\n    tag_85:\n        /* \"#utility.yul\":7761:7783   */\n      0x4e6f206572657320656c2070726f6665736f722e000000000000000000000000\n        /* \"#utility.yul\":7757:7758   */\n      0x00\n        /* \"#utility.yul\":7749:7755   */\n      dup3\n        /* \"#utility.yul\":7745:7759   */\n      add\n        /* \"#utility.yul\":7738:7784   */\n      mstore\n        /* \"#utility.yul\":7621:7791   */\n      pop\n      jump\t// out\n        /* \"#utility.yul\":7797:7919   */\n    tag_49:\n        /* \"#utility.yul\":7870:7894   */\n      tag_137\n        /* \"#utility.yul\":7888:7893   */\n      dup2\n        /* \"#utility.yul\":7870:7894   */\n      tag_116\n      jump\t// in\n    tag_137:\n        /* \"#utility.yul\":7863:7868   */\n      dup2\n        /* \"#utility.yul\":7860:7895   */\n      eq\n        /* \"#utility.yul\":7850:7913   */\n      tag_138\n      jumpi\n        /* \"#utility.yul\":7909:7910   */\n      0x00\n        /* \"#utility.yul\":7906:7907   */\n      dup1\n        /* \"#utility.yul\":7899:7911   */\n      revert\n        /* \"#utility.yul\":7850:7913   */\n    tag_138:\n        /* \"#utility.yul\":7797:7919   */\n      pop\n      jump\t// out\n\n    auxdata: 0xa264697066735822122029cea06536b584d755ce4481b5568e63a10d093fb6cdcd87a71fa3028cf6364264736f6c63430008070033\n}\n",
				"bytecode": {
					"linkReferences": {},
					"object": "608060405234801561001057600080fd5b50336000806101000a81548173ffffffffffffffffffffffffffffffffffffffff021916908373ffffffffffffffffffffffffffffffffffffffff160217905550610620806100606000396000f3fe608060405234801561001057600080fd5b50600436106100415760003560e01c8063383bebae146100465780638ba0500714610062578063df0965761461006c575b600080fd5b610060600480360381019061005b9190610279565b61008a565b005b61006a610199565b005b6100746101d0565b6040516100819190610381565b60405180910390f35b3360008054906101000a900473ffffffffffffffffffffffffffffffffffffffff1673ffffffffffffffffffffffffffffffffffffffff168173ffffffffffffffffffffffffffffffffffffffff1614610119576040517f08c379a0000000000000000000000000000000000000000000000000000000008152600401610110906103d7565b60405180910390fd5b60008360405160200161012c919061036a565b6040516020818303038152906040528051906020012090508260016000838152602001908152602001600020819055507f9129eeeb684507aca017f10030b70e5bf86d129f417fcc5840348a957eb12cee8160405161018b919061039c565b60405180910390a150505050565b7f46272b7009480cccdaf7ba3b742f05ab2943ba6c86425993149b74c65bc473e56040516101c6906103b7565b60405180910390a1565b60008054906101000a900473ffffffffffffffffffffffffffffffffffffffff1681565b60006102076102028461041c565b6103f7565b90508281526020810184848401111561022357610222610561565b5b61022e8482856104ba565b509392505050565b600082601f83011261024b5761024a61055c565b5b813561025b8482602086016101f4565b91505092915050565b600081359050610273816105d3565b92915050565b600080604083850312156102905761028f61056b565b5b600083013567ffffffffffffffff8111156102ae576102ad610566565b5b6102ba85828601610236565b92505060206102cb85828601610264565b9150509250929050565b6102de81610474565b82525050565b6102ed81610486565b82525050565b60006102fe8261044d565b6103088185610469565b93506103188185602086016104c9565b80840191505092915050565b6000610331600483610458565b915061033c82610581565b602082019050919050565b6000610354601483610458565b915061035f826105aa565b602082019050919050565b600061037682846102f3565b915081905092915050565b600060208201905061039660008301846102d5565b92915050565b60006020820190506103b160008301846102e4565b92915050565b600060208201905081810360008301526103d081610324565b9050919050565b600060208201905081810360008301526103f081610347565b9050919050565b6000610401610412565b905061040d82826104fc565b919050565b6000604051905090565b600067ffffffffffffffff8211156104375761043661052d565b5b61044082610570565b9050602081019050919050565b600081519050919050565b600082825260208201905092915050565b600081905092915050565b600061047f82610490565b9050919050565b6000819050919050565b600073ffffffffffffffffffffffffffffffffffffffff82169050919050565b6000819050919050565b82818337600083830152505050565b60005b838110156104e75780820151818401526020810190506104cc565b838111156104f6576000848401525b50505050565b61050582610570565b810181811067ffffffffffffffff821117156105245761052361052d565b5b80604052505050565b7f4e487b7100000000000000000000000000000000000000000000000000000000600052604160045260246000fd5b600080fd5b600080fd5b600080fd5b600080fd5b6000601f19601f8301169050919050565b7f686f6c6100000000000000000000000000000000000000000000000000000000600082015250565b7f4e6f206572657320656c2070726f6665736f722e000000000000000000000000600082015250565b6105dc816104b0565b81146105e757600080fd5b5056fea264697066735822122029cea06536b584d755ce4481b5568e63a10d093fb6cdcd87a71fa3028cf6364264736f6c63430008070033",
					"opcodes": "PUSH1 0x80 PUSH1 0x40 MSTORE CALLVALUE DUP1 ISZERO PUSH2 0x10 JUMPI PUSH1 0x0 DUP1 REVERT JUMPDEST POP CALLER PUSH1 0x0 DUP1 PUSH2 0x100 EXP DUP2 SLOAD DUP2 PUSH20 0xFFFFFFFFFFFFFFFFFFFFFFFFFFFFFFFFFFFFFFFF MUL NOT AND SWAP1 DUP4 PUSH20 0xFFFFFFFFFFFFFFFFFFFFFFFFFFFFFFFFFFFFFFFF AND MUL OR SWAP1 SSTORE POP PUSH2 0x620 DUP1 PUSH2 0x60 PUSH1 0x0 CODECOPY PUSH1 0x0 RETURN INVALID PUSH1 0x80 PUSH1 0x40 MSTORE CALLVALUE DUP1 ISZERO PUSH2 0x10 JUMPI PUSH1 0x0 DUP1 REVERT JUMPDEST POP PUSH1 0x4 CALLDATASIZE LT PUSH2 0x41 JUMPI PUSH1 0x0 CALLDATALOAD PUSH1 0xE0 SHR DUP1 PUSH4 0x383BEBAE EQ PUSH2 0x46 JUMPI DUP1 PUSH4 0x8BA05007 EQ PUSH2 0x62 JUMPI DUP1 PUSH4 0xDF096576 EQ PUSH2 0x6C JUMPI JUMPDEST PUSH1 0x0 DUP1 REVERT JUMPDEST PUSH2 0x60 PUSH1 0x4 DUP1 CALLDATASIZE SUB DUP2 ADD SWAP1 PUSH2 0x5B SWAP2 SWAP1 PUSH2 0x279 JUMP JUMPDEST PUSH2 0x8A JUMP JUMPDEST STOP JUMPDEST PUSH2 0x6A PUSH2 0x199 JUMP JUMPDEST STOP JUMPDEST PUSH2 0x74 PUSH2 0x1D0 JUMP JUMPDEST PUSH1 0x40 MLOAD PUSH2 0x81 SWAP2 SWAP1 PUSH2 0x381 JUMP JUMPDEST PUSH1 0x40 MLOAD DUP1 SWAP2 SUB SWAP1 RETURN JUMPDEST CALLER PUSH1 0x0 DUP1 SLOAD SWAP1 PUSH2 0x100 EXP SWAP1 DIV PUSH20 0xFFFFFFFFFFFFFFFFFFFFFFFFFFFFFFFFFFFFFFFF AND PUSH20 0xFFFFFFFFFFFFFFFFFFFFFFFFFFFFFFFFFFFFFFFF AND DUP2 PUSH20 0xFFFFFFFFFFFFFFFFFFFFFFFFFFFFFFFFFFFFFFFF AND EQ PUSH2 0x119 JUMPI PUSH1 0x40 MLOAD PUSH32 0x8C379A000000000000000000000000000000000000000000000000000000000 DUP2 MSTORE PUSH1 0x4 ADD PUSH2 0x110 SWAP1 PUSH2 0x3D7 JUMP JUMPDEST PUSH1 0x40 MLOAD DUP1 SWAP2 SUB SWAP1 REVERT JUMPDEST PUSH1 0x0 DUP4 PUSH1 0x40 MLOAD PUSH1 0x20 ADD PUSH2 0x12C SWAP2 SWAP1 PUSH2 0x36A JUMP JUMPDEST PUSH1 0x40 MLOAD PUSH1 0x20 DUP2 DUP4 SUB SUB DUP2 MSTORE SWAP1 PUSH1 0x40 MSTORE DUP1 MLOAD SWAP1 PUSH1 0x20 ADD KECCAK256 SWAP1 POP DUP3 PUSH1 0x1 PUSH1 0x0 DUP4 DUP2 MSTORE PUSH1 0x20 ADD SWAP1 DUP2 MSTORE PUSH1 0x20 ADD PUSH1 0x0 KECCAK256 DUP2 SWAP1 SSTORE POP PUSH32 0x9129EEEB684507ACA017F10030B70E5BF86D129F417FCC5840348A957EB12CEE DUP2 PUSH1 0x40 MLOAD PUSH2 0x18B SWAP2 SWAP1 PUSH2 0x39C JUMP JUMPDEST PUSH1 0x40 MLOAD DUP1 SWAP2 SUB SWAP1 LOG1 POP POP POP POP JUMP JUMPDEST PUSH32 0x46272B7009480CCCDAF7BA3B742F05AB2943BA6C86425993149B74C65BC473E5 PUSH1 0x40 MLOAD PUSH2 0x1C6 SWAP1 PUSH2 0x3B7 JUMP JUMPDEST PUSH1 0x40 MLOAD DUP1 SWAP2 SUB SWAP1 LOG1 JUMP JUMPDEST PUSH1 0x0 DUP1 SLOAD SWAP1 PUSH2 0x100 EXP SWAP1 DIV PUSH20 0xFFFFFFFFFFFFFFFFFFFFFFFFFFFFFFFFFFFFFFFF AND DUP2 JUMP JUMPDEST PUSH1 0x0 PUSH2 0x207 PUSH2 0x202 DUP5 PUSH2 0x41C JUMP JUMPDEST PUSH2 0x3F7 JUMP JUMPDEST SWAP1 POP DUP3 DUP2 MSTORE PUSH1 0x20 DUP2 ADD DUP5 DUP5 DUP5 ADD GT ISZERO PUSH2 0x223 JUMPI PUSH2 0x222 PUSH2 0x561 JUMP JUMPDEST JUMPDEST PUSH2 0x22E DUP5 DUP3 DUP6 PUSH2 0x4BA JUMP JUMPDEST POP SWAP4 SWAP3 POP POP POP JUMP JUMPDEST PUSH1 0x0 DUP3 PUSH1 0x1F DUP4 ADD SLT PUSH2 0x24B JUMPI PUSH2 0x24A PUSH2 0x55C JUMP JUMPDEST JUMPDEST DUP2 CALLDATALOAD PUSH2 0x25B DUP5 DUP3 PUSH1 0x20 DUP7 ADD PUSH2 0x1F4 JUMP JUMPDEST SWAP2 POP POP SWAP3 SWAP2 POP POP JUMP JUMPDEST PUSH1 0x0 DUP2 CALLDATALOAD SWAP1 POP PUSH2 0x273 DUP2 PUSH2 0x5D3 JUMP JUMPDEST SWAP3 SWAP2 POP POP JUMP JUMPDEST PUSH1 0x0 DUP1 PUSH1 0x40 DUP4 DUP6 SUB SLT ISZERO PUSH2 0x290 JUMPI PUSH2 0x28F PUSH2 0x56B JUMP JUMPDEST JUMPDEST PUSH1 0x0 DUP4 ADD CALLDATALOAD PUSH8 0xFFFFFFFFFFFFFFFF DUP2 GT ISZERO PUSH2 0x2AE JUMPI PUSH2 0x2AD PUSH2 0x566 JUMP JUMPDEST JUMPDEST PUSH2 0x2BA DUP6 DUP3 DUP7 ADD PUSH2 0x236 JUMP JUMPDEST SWAP3 POP POP PUSH1 0x20 PUSH2 0x2CB DUP6 DUP3 DUP7 ADD PUSH2 0x264 JUMP JUMPDEST SWAP2 POP POP SWAP3 POP SWAP3 SWAP1 POP JUMP JUMPDEST PUSH2 0x2DE DUP2 PUSH2 0x474 JUMP JUMPDEST DUP3 MSTORE POP POP JUMP JUMPDEST PUSH2 0x2ED DUP2 PUSH2 0x486 JUMP JUMPDEST DUP3 MSTORE POP POP JUMP JUMPDEST PUSH1 0x0 PUSH2 0x2FE DUP3 PUSH2 0x44D JUMP JUMPDEST PUSH2 0x308 DUP2 DUP6 PUSH2 0x469 JUMP JUMPDEST SWAP4 POP PUSH2 0x318 DUP2 DUP6 PUSH1 0x20 DUP7 ADD PUSH2 0x4C9 JUMP JUMPDEST DUP1 DUP5 ADD SWAP2 POP POP SWAP3 SWAP2 POP POP JUMP JUMPDEST PUSH1 0x0 PUSH2 0x331 PUSH1 0x4 DUP4 PUSH2 0x458 JUMP JUMPDEST SWAP2 POP PUSH2 0x33C DUP3 PUSH2 0x581 JUMP JUMPDEST PUSH1 0x20 DUP3 ADD SWAP1 POP SWAP2 SWAP1 POP JUMP JUMPDEST PUSH1 0x0 PUSH2 0x354 PUSH1 0x14 DUP4 PUSH2 0x458 JUMP JUMPDEST SWAP2 POP PUSH2 0x35F DUP3 PUSH2 0x5AA JUMP JUMPDEST PUSH1 0x20 DUP3 ADD SWAP1 POP SWAP2 SWAP1 POP JUMP JUMPDEST PUSH1 0x0 PUSH2 0x376 DUP3 DUP5 PUSH2 0x2F3 JUMP JUMPDEST SWAP2 POP DUP2 SWAP1 POP SWAP3 SWAP2 POP POP JUMP JUMPDEST PUSH1 0x0 PUSH1 0x20 DUP3 ADD SWAP1 POP PUSH2 0x396 PUSH1 0x0 DUP4 ADD DUP5 PUSH2 0x2D5 JUMP JUMPDEST SWAP3 SWAP2 POP POP JUMP JUMPDEST PUSH1 0x0 PUSH1 0x20 DUP3 ADD SWAP1 POP PUSH2 0x3B1 PUSH1 0x0 DUP4 ADD DUP5 PUSH2 0x2E4 JUMP JUMPDEST SWAP3 SWAP2 POP POP JUMP JUMPDEST PUSH1 0x0 PUSH1 0x20 DUP3 ADD SWAP1 POP DUP2 DUP2 SUB PUSH1 0x0 DUP4 ADD MSTORE PUSH2 0x3D0 DUP2 PUSH2 0x324 JUMP JUMPDEST SWAP1 POP SWAP2 SWAP1 POP JUMP JUMPDEST PUSH1 0x0 PUSH1 0x20 DUP3 ADD SWAP1 POP DUP2 DUP2 SUB PUSH1 0x0 DUP4 ADD MSTORE PUSH2 0x3F0 DUP2 PUSH2 0x347 JUMP JUMPDEST SWAP1 POP SWAP2 SWAP1 POP JUMP JUMPDEST PUSH1 0x0 PUSH2 0x401 PUSH2 0x412 JUMP JUMPDEST SWAP1 POP PUSH2 0x40D DUP3 DUP3 PUSH2 0x4FC JUMP JUMPDEST SWAP2 SWAP1 POP JUMP JUMPDEST PUSH1 0x0 PUSH1 0x40 MLOAD SWAP1 POP SWAP1 JUMP JUMPDEST PUSH1 0x0 PUSH8 0xFFFFFFFFFFFFFFFF DUP3 GT ISZERO PUSH2 0x437 JUMPI PUSH2 0x436 PUSH2 0x52D JUMP JUMPDEST JUMPDEST PUSH2 0x440 DUP3 PUSH2 0x570 JUMP JUMPDEST SWAP1 POP PUSH1 0x20 DUP2 ADD SWAP1 POP SWAP2 SWAP1 POP JUMP JUMPDEST PUSH1 0x0 DUP2 MLOAD SWAP1 POP SWAP2 SWAP1 POP JUMP JUMPDEST PUSH1 0x0 DUP3 DUP3 MSTORE PUSH1 0x20 DUP3 ADD SWAP1 POP SWAP3 SWAP2 POP POP JUMP JUMPDEST PUSH1 0x0 DUP2 SWAP1 POP SWAP3 SWAP2 POP POP JUMP JUMPDEST PUSH1 0x0 PUSH2 0x47F DUP3 PUSH2 0x490 JUMP JUMPDEST SWAP1 POP SWAP2 SWAP1 POP JUMP JUMPDEST PUSH1 0x0 DUP2 SWAP1 POP SWAP2 SWAP1 POP JUMP JUMPDEST PUSH1 0x0 PUSH20 0xFFFFFFFFFFFFFFFFFFFFFFFFFFFFFFFFFFFFFFFF DUP3 AND SWAP1 POP SWAP2 SWAP1 POP JUMP JUMPDEST PUSH1 0x0 DUP2 SWAP1 POP SWAP2 SWAP1 POP JUMP JUMPDEST DUP3 DUP2 DUP4 CALLDATACOPY PUSH1 0x0 DUP4 DUP4 ADD MSTORE POP POP POP JUMP JUMPDEST PUSH1 0x0 JUMPDEST DUP4 DUP2 LT ISZERO PUSH2 0x4E7 JUMPI DUP1 DUP3 ADD MLOAD DUP2 DUP5 ADD MSTORE PUSH1 0x20 DUP2 ADD SWAP1 POP PUSH2 0x4CC JUMP JUMPDEST DUP4 DUP2 GT ISZERO PUSH2 0x4F6 JUMPI PUSH1 0x0 DUP5 DUP5 ADD MSTORE JUMPDEST POP POP POP POP JUMP JUMPDEST PUSH2 0x505 DUP3 PUSH2 0x570 JUMP JUMPDEST DUP2 ADD DUP2 DUP2 LT PUSH8 0xFFFFFFFFFFFFFFFF DUP3 GT OR ISZERO PUSH2 0x524 JUMPI PUSH2 0x523 PUSH2 0x52D JUMP JUMPDEST JUMPDEST DUP1 PUSH1 0x40 MSTORE POP POP POP JUMP JUMPDEST PUSH32 0x4E487B7100000000000000000000000000000000000000000000000000000000 PUSH1 0x0 MSTORE PUSH1 0x41 PUSH1 0x4 MSTORE PUSH1 0x24 PUSH1 0x0 REVERT JUMPDEST PUSH1 0x0 DUP1 REVERT JUMPDEST PUSH1 0x0 DUP1 REVERT JUMPDEST PUSH1 0x0 DUP1 REVERT JUMPDEST PUSH1 0x0 DUP1 REVERT JUMPDEST PUSH1 0x0 PUSH1 0x1F NOT PUSH1 0x1F DUP4 ADD AND SWAP1 POP SWAP2 SWAP1 POP JUMP JUMPDEST PUSH32 0x686F6C6100000000000000000000000000000000000000000000000000000000 PUSH1 0x0 DUP3 ADD MSTORE POP JUMP JUMPDEST PUSH32 0x4E6F206572657320656C2070726F6665736F722E000000000000000000000000 PUSH1 0x0 DUP3 ADD MSTORE POP JUMP JUMPDEST PUSH2 0x5DC DUP2 PUSH2 0x4B0 JUMP JUMPDEST DUP2 EQ PUSH2 0x5E7 JUMPI PUSH1 0x0 DUP1 REVERT JUMPDEST POP JUMP INVALID LOG2 PUSH5 0x6970667358 0x22 SLT KECCAK256 0x29 0xCE LOG0 PUSH6 0x36B584D755CE DIFFICULTY DUP2 0xB5 JUMP DUP15 PUSH4 0xA10D093F 0xB6 0xCD 0xCD DUP8 0xA7 0x1F LOG3 MUL DUP13 0xF6 CALLDATASIZE TIMESTAMP PUSH5 0x736F6C6343 STOP ADDMOD SMOD STOP CALLER "
				},
				"gasEstimates": {
					"creation": {
						"codeDepositCost": "313600",
						"executionCost": "24615",
						"totalCost": "338215"
					},
					"external": {
						"evaluar(string,uint256)": "infinite",
						"profesor()": "2533",
						"salu()": "1946"
					}
				},
				"methodIdentifiers": {
					"evaluar(string,uint256)": "383bebae",
					"profesor()": "df096576",
					"salu()": "8ba05007"
				}
			},
			"storageLayout": {
				"storage": [
					{
						"astId": 4,
						"contract": "Notas/notas.sol:notas",
						"label": "profesor",
						"offset": 0,
						"slot": "0",
						"type": "t_address"
					},
					{
						"astId": 17,
						"contract": "Notas/notas.sol:notas",
						"label": "Notas",
						"offset": 0,
						"slot": "1",
						"type": "t_mapping(t_bytes32,t_uint256)"
					},
					{
						"astId": 20,
						"contract": "Notas/notas.sol:notas",
						"label": "revisiones",
						"offset": 0,
						"slot": "2",
						"type": "t_array(t_string_storage)dyn_storage"
					}
				],
				"types": {
					"t_address": {
						"encoding": "inplace",
						"label": "address",
						"numberOfBytes": "20"
					},
					"t_array(t_string_storage)dyn_storage": {
						"base": "t_string_storage",
						"encoding": "dynamic_array",
						"label": "string[]",
						"numberOfBytes": "32"
					},
					"t_bytes32": {
						"encoding": "inplace",
						"label": "bytes32",
						"numberOfBytes": "32"
					},
					"t_mapping(t_bytes32,t_uint256)": {
						"encoding": "mapping",
						"key": "t_bytes32",
						"label": "mapping(bytes32 => uint256)",
						"numberOfBytes": "32",
						"value": "t_uint256"
					},
					"t_string_storage": {
						"encoding": "bytes",
						"label": "string",
						"numberOfBytes": "32"
					},
					"t_uint256": {
						"encoding": "inplace",
						"label": "uint256",
						"numberOfBytes": "32"
					}
				}
			},
			"userdoc": {
				"kind": "user",
				"methods": {},
				"version": 1
			}
		}
	}
}