{
	"Notas/notas.sol": {
		"notas": {
			"abi": [
				{
					"inputs": [],
					"stateMutability": "nonpayable",
					"type": "constructor"
				},
				{
					"anonymous": false,
					"inputs": [
						{
							"indexed": false,
							"internalType": "bytes32",
							"name": "",
							"type": "bytes32"
						}
					],
					"name": "alumno_evaluado",
					"type": "event"
				},
				{
					"anonymous": false,
					"inputs": [
						{
							"indexed": false,
							"internalType": "string",
							"name": "",
							"type": "string"
						}
					],
					"name": "evento_revision",
					"type": "event"
				},
				{
					"inputs": [
						{
							"internalType": "string",
							"name": "_idAlumno",
							"type": "string"
						},
						{
							"internalType": "uint256",
							"name": "_nota",
							"type": "uint256"
						}
					],
					"name": "evaluar",
					"outputs": [],
					"stateMutability": "nonpayable",
					"type": "function"
				},
				{
					"inputs": [],
					"name": "profesor",
					"outputs": [
						{
							"internalType": "address",
							"name": "",
							"type": "address"
						}
					],
					"stateMutability": "view",
					"type": "function"
				},
				{
					"inputs": [
						{
							"internalType": "string",
							"name": "_idAlumno",
							"type": "string"
						}
					],
					"name": "verNotas",
					"outputs": [],
					"stateMutability": "view",
					"type": "function"
				}
			],
			"devdoc": {
				"kind": "dev",
				"methods": {},
				"version": 1
			},
			"evm": {
				"assembly": "    /* \"Notas/notas.sol\":97:1067  contract notas {\r... */\n  mstore(0x40, 0x80)\n    /* \"Notas/notas.sol\":219:273  constructor() {\r... */\n  callvalue\n  dup1\n  iszero\n  tag_1\n  jumpi\n  0x00\n  dup1\n  revert\ntag_1:\n  pop\n    /* \"Notas/notas.sol\":255:265  msg.sender */\n  caller\n    /* \"Notas/notas.sol\":244:252  profesor */\n  0x00\n  dup1\n    /* \"Notas/notas.sol\":244:265  profesor = msg.sender */\n  0x0100\n  exp\n  dup2\n  sload\n  dup2\n  0xffffffffffffffffffffffffffffffffffffffff\n  mul\n  not\n  and\n  swap1\n  dup4\n  0xffffffffffffffffffffffffffffffffffffffff\n  and\n  mul\n  or\n  swap1\n  sstore\n  pop\n    /* \"Notas/notas.sol\":97:1067  contract notas {\r... */\n  dataSize(sub_0)\n  dup1\n  dataOffset(sub_0)\n  0x00\n  codecopy\n  0x00\n  return\nstop\n\nsub_0: assembly {\n        /* \"Notas/notas.sol\":97:1067  contract notas {\r... */\n      mstore(0x40, 0x80)\n      callvalue\n      dup1\n      iszero\n      tag_1\n      jumpi\n      0x00\n      dup1\n      revert\n    tag_1:\n      pop\n      jumpi(tag_2, lt(calldatasize, 0x04))\n      shr(0xe0, calldataload(0x00))\n      dup1\n      0x383bebae\n      eq\n      tag_3\n      jumpi\n      dup1\n      0xdeafddae\n      eq\n      tag_4\n      jumpi\n      dup1\n      0xdf096576\n      eq\n      tag_5\n      jumpi\n    tag_2:\n      0x00\n      dup1\n      revert\n        /* \"Notas/notas.sol\":667:918  function evaluar(string memory _idAlumno, uint _nota) public OnlyTeacher(msg.sender) {\r... */\n    tag_3:\n      tag_6\n      0x04\n      dup1\n      calldatasize\n      sub\n      dup2\n      add\n      swap1\n      tag_7\n      swap2\n      swap1\n      tag_8\n      jump\t// in\n    tag_7:\n      tag_9\n      jump\t// in\n    tag_6:\n      stop\n        /* \"Notas/notas.sol\":926:1064  function verNotas(string memory _idAlumno) public view {\r... */\n    tag_4:\n      tag_10\n      0x04\n      dup1\n      calldatasize\n      sub\n      dup2\n      add\n      swap1\n      tag_11\n      swap2\n      swap1\n      tag_12\n      jump\t// in\n    tag_11:\n      tag_13\n      jump\t// in\n    tag_10:\n      stop\n        /* \"Notas/notas.sol\":119:142  address public profesor */\n    tag_5:\n      tag_14\n      tag_15\n      jump\t// in\n    tag_14:\n      mload(0x40)\n      tag_16\n      swap2\n      swap1\n      tag_17\n      jump\t// in\n    tag_16:\n      mload(0x40)\n      dup1\n      swap2\n      sub\n      swap1\n      return\n        /* \"Notas/notas.sol\":667:918  function evaluar(string memory _idAlumno, uint _nota) public OnlyTeacher(msg.sender) {\r... */\n    tag_9:\n        /* \"Notas/notas.sol\":740:750  msg.sender */\n      caller\n        /* \"Notas/notas.sol\":583:591  profesor */\n      0x00\n      dup1\n      sload\n      swap1\n      0x0100\n      exp\n      swap1\n      div\n      0xffffffffffffffffffffffffffffffffffffffff\n      and\n        /* \"Notas/notas.sol\":569:591  _direccion == profesor */\n      0xffffffffffffffffffffffffffffffffffffffff\n      and\n        /* \"Notas/notas.sol\":569:579  _direccion */\n      dup2\n        /* \"Notas/notas.sol\":569:591  _direccion == profesor */\n      0xffffffffffffffffffffffffffffffffffffffff\n      and\n      eq\n        /* \"Notas/notas.sol\":561:616  require(_direccion == profesor, \"No eres el profesor.\") */\n      tag_19\n      jumpi\n      mload(0x40)\n      0x08c379a000000000000000000000000000000000000000000000000000000000\n      dup2\n      mstore\n      0x04\n      add\n      tag_20\n      swap1\n      tag_21\n      jump\t// in\n    tag_20:\n      mload(0x40)\n      dup1\n      swap2\n      sub\n      swap1\n      revert\n    tag_19:\n        /* \"Notas/notas.sol\":763:784  bytes32 hash_idAlumno */\n      0x00\n        /* \"Notas/notas.sol\":814:823  _idAlumno */\n      dup4\n        /* \"Notas/notas.sol\":797:824  abi.encodePacked(_idAlumno) */\n      add(0x20, mload(0x40))\n      tag_23\n      swap2\n      swap1\n      tag_24\n      jump\t// in\n    tag_23:\n      mload(0x40)\n      0x20\n      dup2\n      dup4\n      sub\n      sub\n      dup2\n      mstore\n      swap1\n      0x40\n      mstore\n        /* \"Notas/notas.sol\":787:825  keccak256(abi.encodePacked(_idAlumno)) */\n      dup1\n      mload\n      swap1\n      0x20\n      add\n      keccak256\n        /* \"Notas/notas.sol\":763:825  bytes32 hash_idAlumno = keccak256(abi.encodePacked(_idAlumno)) */\n      swap1\n      pop\n        /* \"Notas/notas.sol\":859:864  _nota */\n      dup3\n        /* \"Notas/notas.sol\":836:841  Notas */\n      0x01\n        /* \"Notas/notas.sol\":836:856  Notas[hash_idAlumno] */\n      0x00\n        /* \"Notas/notas.sol\":842:855  hash_idAlumno */\n      dup4\n        /* \"Notas/notas.sol\":836:856  Notas[hash_idAlumno] */\n      dup2\n      mstore\n      0x20\n      add\n      swap1\n      dup2\n      mstore\n      0x20\n      add\n      0x00\n      keccak256\n        /* \"Notas/notas.sol\":836:864  Notas[hash_idAlumno] = _nota */\n      dup2\n      swap1\n      sstore\n      pop\n        /* \"Notas/notas.sol\":880:910  alumno_evaluado(hash_idAlumno) */\n      0x9129eeeb684507aca017f10030b70e5bf86d129f417fcc5840348a957eb12cee\n        /* \"Notas/notas.sol\":896:909  hash_idAlumno */\n      dup2\n        /* \"Notas/notas.sol\":880:910  alumno_evaluado(hash_idAlumno) */\n      mload(0x40)\n      tag_25\n      swap2\n      swap1\n      tag_26\n      jump\t// in\n    tag_25:\n      mload(0x40)\n      dup1\n      swap2\n      sub\n      swap1\n      log1\n        /* \"Notas/notas.sol\":752:918  {\r... */\n      pop\n        /* \"Notas/notas.sol\":667:918  function evaluar(string memory _idAlumno, uint _nota) public OnlyTeacher(msg.sender) {\r... */\n      pop\n      pop\n      pop\n      jump\t// out\n        /* \"Notas/notas.sol\":926:1064  function verNotas(string memory _idAlumno) public view {\r... */\n    tag_13:\n        /* \"Notas/notas.sol\":992:1013  bytes32 hash_idAlumno */\n      0x00\n        /* \"Notas/notas.sol\":1043:1052  _idAlumno */\n      dup2\n        /* \"Notas/notas.sol\":1026:1053  abi.encodePacked(_idAlumno) */\n      add(0x20, mload(0x40))\n      tag_28\n      swap2\n      swap1\n      tag_24\n      jump\t// in\n    tag_28:\n      mload(0x40)\n      0x20\n      dup2\n      dup4\n      sub\n      sub\n      dup2\n      mstore\n      swap1\n      0x40\n      mstore\n        /* \"Notas/notas.sol\":1016:1054  keccak256(abi.encodePacked(_idAlumno)) */\n      dup1\n      mload\n      swap1\n      0x20\n      add\n      keccak256\n        /* \"Notas/notas.sol\":992:1054  bytes32 hash_idAlumno = keccak256(abi.encodePacked(_idAlumno)) */\n      swap1\n      pop\n        /* \"Notas/notas.sol\":981:1064  {\r... */\n      pop\n        /* \"Notas/notas.sol\":926:1064  function verNotas(string memory _idAlumno) public view {\r... */\n      pop\n      jump\t// out\n        /* \"Notas/notas.sol\":119:142  address public profesor */\n    tag_15:\n      0x00\n      dup1\n      sload\n      swap1\n      0x0100\n      exp\n      swap1\n      div\n      0xffffffffffffffffffffffffffffffffffffffff\n      and\n      dup2\n      jump\t// out\n        /* \"#utility.yul\":7:419   */\n    tag_30:\n        /* \"#utility.yul\":85:90   */\n      0x00\n        /* \"#utility.yul\":110:176   */\n      tag_32\n        /* \"#utility.yul\":126:175   */\n      tag_33\n        /* \"#utility.yul\":168:174   */\n      dup5\n        /* \"#utility.yul\":126:175   */\n      tag_34\n      jump\t// in\n    tag_33:\n        /* \"#utility.yul\":110:176   */\n      tag_35\n      jump\t// in\n    tag_32:\n        /* \"#utility.yul\":101:176   */\n      swap1\n      pop\n        /* \"#utility.yul\":199:205   */\n      dup3\n        /* \"#utility.yul\":192:197   */\n      dup2\n        /* \"#utility.yul\":185:206   */\n      mstore\n        /* \"#utility.yul\":237:241   */\n      0x20\n        /* \"#utility.yul\":230:235   */\n      dup2\n        /* \"#utility.yul\":226:242   */\n      add\n        /* \"#utility.yul\":275:278   */\n      dup5\n        /* \"#utility.yul\":266:272   */\n      dup5\n        /* \"#utility.yul\":261:264   */\n      dup5\n        /* \"#utility.yul\":257:273   */\n      add\n        /* \"#utility.yul\":254:279   */\n      gt\n        /* \"#utility.yul\":251:363   */\n      iszero\n      tag_36\n      jumpi\n        /* \"#utility.yul\":282:361   */\n      tag_37\n      tag_38\n      jump\t// in\n    tag_37:\n        /* \"#utility.yul\":251:363   */\n    tag_36:\n        /* \"#utility.yul\":372:413   */\n      tag_39\n        /* \"#utility.yul\":406:412   */\n      dup5\n        /* \"#utility.yul\":401:404   */\n      dup3\n        /* \"#utility.yul\":396:399   */\n      dup6\n        /* \"#utility.yul\":372:413   */\n      tag_40\n      jump\t// in\n    tag_39:\n        /* \"#utility.yul\":91:419   */\n      pop\n        /* \"#utility.yul\":7:419   */\n      swap4\n      swap3\n      pop\n      pop\n      pop\n      jump\t// out\n        /* \"#utility.yul\":439:779   */\n    tag_41:\n        /* \"#utility.yul\":495:500   */\n      0x00\n        /* \"#utility.yul\":544:547   */\n      dup3\n        /* \"#utility.yul\":537:541   */\n      0x1f\n        /* \"#utility.yul\":529:535   */\n      dup4\n        /* \"#utility.yul\":525:542   */\n      add\n        /* \"#utility.yul\":521:548   */\n      slt\n        /* \"#utility.yul\":511:633   */\n      tag_43\n      jumpi\n        /* \"#utility.yul\":552:631   */\n      tag_44\n      tag_45\n      jump\t// in\n    tag_44:\n        /* \"#utility.yul\":511:633   */\n    tag_43:\n        /* \"#utility.yul\":669:675   */\n      dup2\n        /* \"#utility.yul\":656:676   */\n      calldataload\n        /* \"#utility.yul\":694:773   */\n      tag_46\n        /* \"#utility.yul\":769:772   */\n      dup5\n        /* \"#utility.yul\":761:767   */\n      dup3\n        /* \"#utility.yul\":754:758   */\n      0x20\n        /* \"#utility.yul\":746:752   */\n      dup7\n        /* \"#utility.yul\":742:759   */\n      add\n        /* \"#utility.yul\":694:773   */\n      tag_30\n      jump\t// in\n    tag_46:\n        /* \"#utility.yul\":685:773   */\n      swap2\n      pop\n        /* \"#utility.yul\":501:779   */\n      pop\n        /* \"#utility.yul\":439:779   */\n      swap3\n      swap2\n      pop\n      pop\n      jump\t// out\n        /* \"#utility.yul\":785:924   */\n    tag_47:\n        /* \"#utility.yul\":831:836   */\n      0x00\n        /* \"#utility.yul\":869:875   */\n      dup2\n        /* \"#utility.yul\":856:876   */\n      calldataload\n        /* \"#utility.yul\":847:876   */\n      swap1\n      pop\n        /* \"#utility.yul\":885:918   */\n      tag_49\n        /* \"#utility.yul\":912:917   */\n      dup2\n        /* \"#utility.yul\":885:918   */\n      tag_50\n      jump\t// in\n    tag_49:\n        /* \"#utility.yul\":785:924   */\n      swap3\n      swap2\n      pop\n      pop\n      jump\t// out\n        /* \"#utility.yul\":930:1439   */\n    tag_12:\n        /* \"#utility.yul\":999:1005   */\n      0x00\n        /* \"#utility.yul\":1048:1050   */\n      0x20\n        /* \"#utility.yul\":1036:1045   */\n      dup3\n        /* \"#utility.yul\":1027:1034   */\n      dup5\n        /* \"#utility.yul\":1023:1046   */\n      sub\n        /* \"#utility.yul\":1019:1051   */\n      slt\n        /* \"#utility.yul\":1016:1135   */\n      iszero\n      tag_52\n      jumpi\n        /* \"#utility.yul\":1054:1133   */\n      tag_53\n      tag_54\n      jump\t// in\n    tag_53:\n        /* \"#utility.yul\":1016:1135   */\n    tag_52:\n        /* \"#utility.yul\":1202:1203   */\n      0x00\n        /* \"#utility.yul\":1191:1200   */\n      dup3\n        /* \"#utility.yul\":1187:1204   */\n      add\n        /* \"#utility.yul\":1174:1205   */\n      calldataload\n        /* \"#utility.yul\":1232:1250   */\n      0xffffffffffffffff\n        /* \"#utility.yul\":1224:1230   */\n      dup2\n        /* \"#utility.yul\":1221:1251   */\n      gt\n        /* \"#utility.yul\":1218:1335   */\n      iszero\n      tag_55\n      jumpi\n        /* \"#utility.yul\":1254:1333   */\n      tag_56\n      tag_57\n      jump\t// in\n    tag_56:\n        /* \"#utility.yul\":1218:1335   */\n    tag_55:\n        /* \"#utility.yul\":1359:1422   */\n      tag_58\n        /* \"#utility.yul\":1414:1421   */\n      dup5\n        /* \"#utility.yul\":1405:1411   */\n      dup3\n        /* \"#utility.yul\":1394:1403   */\n      dup6\n        /* \"#utility.yul\":1390:1412   */\n      add\n        /* \"#utility.yul\":1359:1422   */\n      tag_41\n      jump\t// in\n    tag_58:\n        /* \"#utility.yul\":1349:1422   */\n      swap2\n      pop\n        /* \"#utility.yul\":1145:1432   */\n      pop\n        /* \"#utility.yul\":930:1439   */\n      swap3\n      swap2\n      pop\n      pop\n      jump\t// out\n        /* \"#utility.yul\":1445:2099   */\n    tag_8:\n        /* \"#utility.yul\":1523:1529   */\n      0x00\n        /* \"#utility.yul\":1531:1537   */\n      dup1\n        /* \"#utility.yul\":1580:1582   */\n      0x40\n        /* \"#utility.yul\":1568:1577   */\n      dup4\n        /* \"#utility.yul\":1559:1566   */\n      dup6\n        /* \"#utility.yul\":1555:1578   */\n      sub\n        /* \"#utility.yul\":1551:1583   */\n      slt\n        /* \"#utility.yul\":1548:1667   */\n      iszero\n      tag_60\n      jumpi\n        /* \"#utility.yul\":1586:1665   */\n      tag_61\n      tag_54\n      jump\t// in\n    tag_61:\n        /* \"#utility.yul\":1548:1667   */\n    tag_60:\n        /* \"#utility.yul\":1734:1735   */\n      0x00\n        /* \"#utility.yul\":1723:1732   */\n      dup4\n        /* \"#utility.yul\":1719:1736   */\n      add\n        /* \"#utility.yul\":1706:1737   */\n      calldataload\n        /* \"#utility.yul\":1764:1782   */\n      0xffffffffffffffff\n        /* \"#utility.yul\":1756:1762   */\n      dup2\n        /* \"#utility.yul\":1753:1783   */\n      gt\n        /* \"#utility.yul\":1750:1867   */\n      iszero\n      tag_62\n      jumpi\n        /* \"#utility.yul\":1786:1865   */\n      tag_63\n      tag_57\n      jump\t// in\n    tag_63:\n        /* \"#utility.yul\":1750:1867   */\n    tag_62:\n        /* \"#utility.yul\":1891:1954   */\n      tag_64\n        /* \"#utility.yul\":1946:1953   */\n      dup6\n        /* \"#utility.yul\":1937:1943   */\n      dup3\n        /* \"#utility.yul\":1926:1935   */\n      dup7\n        /* \"#utility.yul\":1922:1944   */\n      add\n        /* \"#utility.yul\":1891:1954   */\n      tag_41\n      jump\t// in\n    tag_64:\n        /* \"#utility.yul\":1881:1954   */\n      swap3\n      pop\n        /* \"#utility.yul\":1677:1964   */\n      pop\n        /* \"#utility.yul\":2003:2005   */\n      0x20\n        /* \"#utility.yul\":2029:2082   */\n      tag_65\n        /* \"#utility.yul\":2074:2081   */\n      dup6\n        /* \"#utility.yul\":2065:2071   */\n      dup3\n        /* \"#utility.yul\":2054:2063   */\n      dup7\n        /* \"#utility.yul\":2050:2072   */\n      add\n        /* \"#utility.yul\":2029:2082   */\n      tag_47\n      jump\t// in\n    tag_65:\n        /* \"#utility.yul\":2019:2082   */\n      swap2\n      pop\n        /* \"#utility.yul\":1974:2092   */\n      pop\n        /* \"#utility.yul\":1445:2099   */\n      swap3\n      pop\n      swap3\n      swap1\n      pop\n      jump\t// out\n        /* \"#utility.yul\":2105:2223   */\n    tag_66:\n        /* \"#utility.yul\":2192:2216   */\n      tag_68\n        /* \"#utility.yul\":2210:2215   */\n      dup2\n        /* \"#utility.yul\":2192:2216   */\n      tag_69\n      jump\t// in\n    tag_68:\n        /* \"#utility.yul\":2187:2190   */\n      dup3\n        /* \"#utility.yul\":2180:2217   */\n      mstore\n        /* \"#utility.yul\":2105:2223   */\n      pop\n      pop\n      jump\t// out\n        /* \"#utility.yul\":2229:2347   */\n    tag_70:\n        /* \"#utility.yul\":2316:2340   */\n      tag_72\n        /* \"#utility.yul\":2334:2339   */\n      dup2\n        /* \"#utility.yul\":2316:2340   */\n      tag_73\n      jump\t// in\n    tag_72:\n        /* \"#utility.yul\":2311:2314   */\n      dup3\n        /* \"#utility.yul\":2304:2341   */\n      mstore\n        /* \"#utility.yul\":2229:2347   */\n      pop\n      pop\n      jump\t// out\n        /* \"#utility.yul\":2353:2730   */\n    tag_74:\n        /* \"#utility.yul\":2459:2462   */\n      0x00\n        /* \"#utility.yul\":2487:2526   */\n      tag_76\n        /* \"#utility.yul\":2520:2525   */\n      dup3\n        /* \"#utility.yul\":2487:2526   */\n      tag_77\n      jump\t// in\n    tag_76:\n        /* \"#utility.yul\":2542:2631   */\n      tag_78\n        /* \"#utility.yul\":2624:2630   */\n      dup2\n        /* \"#utility.yul\":2619:2622   */\n      dup6\n        /* \"#utility.yul\":2542:2631   */\n      tag_79\n      jump\t// in\n    tag_78:\n        /* \"#utility.yul\":2535:2631   */\n      swap4\n      pop\n        /* \"#utility.yul\":2640:2692   */\n      tag_80\n        /* \"#utility.yul\":2685:2691   */\n      dup2\n        /* \"#utility.yul\":2680:2683   */\n      dup6\n        /* \"#utility.yul\":2673:2677   */\n      0x20\n        /* \"#utility.yul\":2666:2671   */\n      dup7\n        /* \"#utility.yul\":2662:2678   */\n      add\n        /* \"#utility.yul\":2640:2692   */\n      tag_81\n      jump\t// in\n    tag_80:\n        /* \"#utility.yul\":2717:2723   */\n      dup1\n        /* \"#utility.yul\":2712:2715   */\n      dup5\n        /* \"#utility.yul\":2708:2724   */\n      add\n        /* \"#utility.yul\":2701:2724   */\n      swap2\n      pop\n        /* \"#utility.yul\":2463:2730   */\n      pop\n        /* \"#utility.yul\":2353:2730   */\n      swap3\n      swap2\n      pop\n      pop\n      jump\t// out\n        /* \"#utility.yul\":2736:3102   */\n    tag_82:\n        /* \"#utility.yul\":2878:2881   */\n      0x00\n        /* \"#utility.yul\":2899:2966   */\n      tag_84\n        /* \"#utility.yul\":2963:2965   */\n      0x14\n        /* \"#utility.yul\":2958:2961   */\n      dup4\n        /* \"#utility.yul\":2899:2966   */\n      tag_85\n      jump\t// in\n    tag_84:\n        /* \"#utility.yul\":2892:2966   */\n      swap2\n      pop\n        /* \"#utility.yul\":2975:3068   */\n      tag_86\n        /* \"#utility.yul\":3064:3067   */\n      dup3\n        /* \"#utility.yul\":2975:3068   */\n      tag_87\n      jump\t// in\n    tag_86:\n        /* \"#utility.yul\":3093:3095   */\n      0x20\n        /* \"#utility.yul\":3088:3091   */\n      dup3\n        /* \"#utility.yul\":3084:3096   */\n      add\n        /* \"#utility.yul\":3077:3096   */\n      swap1\n      pop\n        /* \"#utility.yul\":2736:3102   */\n      swap2\n      swap1\n      pop\n      jump\t// out\n        /* \"#utility.yul\":3108:3383   */\n    tag_24:\n        /* \"#utility.yul\":3240:3243   */\n      0x00\n        /* \"#utility.yul\":3262:3357   */\n      tag_89\n        /* \"#utility.yul\":3353:3356   */\n      dup3\n        /* \"#utility.yul\":3344:3350   */\n      dup5\n        /* \"#utility.yul\":3262:3357   */\n      tag_74\n      jump\t// in\n    tag_89:\n        /* \"#utility.yul\":3255:3357   */\n      swap2\n      pop\n        /* \"#utility.yul\":3374:3377   */\n      dup2\n        /* \"#utility.yul\":3367:3377   */\n      swap1\n      pop\n        /* \"#utility.yul\":3108:3383   */\n      swap3\n      swap2\n      pop\n      pop\n      jump\t// out\n        /* \"#utility.yul\":3389:3611   */\n    tag_17:\n        /* \"#utility.yul\":3482:3486   */\n      0x00\n        /* \"#utility.yul\":3520:3522   */\n      0x20\n        /* \"#utility.yul\":3509:3518   */\n      dup3\n        /* \"#utility.yul\":3505:3523   */\n      add\n        /* \"#utility.yul\":3497:3523   */\n      swap1\n      pop\n        /* \"#utility.yul\":3533:3604   */\n      tag_91\n        /* \"#utility.yul\":3601:3602   */\n      0x00\n        /* \"#utility.yul\":3590:3599   */\n      dup4\n        /* \"#utility.yul\":3586:3603   */\n      add\n        /* \"#utility.yul\":3577:3583   */\n      dup5\n        /* \"#utility.yul\":3533:3604   */\n      tag_66\n      jump\t// in\n    tag_91:\n        /* \"#utility.yul\":3389:3611   */\n      swap3\n      swap2\n      pop\n      pop\n      jump\t// out\n        /* \"#utility.yul\":3617:3839   */\n    tag_26:\n        /* \"#utility.yul\":3710:3714   */\n      0x00\n        /* \"#utility.yul\":3748:3750   */\n      0x20\n        /* \"#utility.yul\":3737:3746   */\n      dup3\n        /* \"#utility.yul\":3733:3751   */\n      add\n        /* \"#utility.yul\":3725:3751   */\n      swap1\n      pop\n        /* \"#utility.yul\":3761:3832   */\n      tag_93\n        /* \"#utility.yul\":3829:3830   */\n      0x00\n        /* \"#utility.yul\":3818:3827   */\n      dup4\n        /* \"#utility.yul\":3814:3831   */\n      add\n        /* \"#utility.yul\":3805:3811   */\n      dup5\n        /* \"#utility.yul\":3761:3832   */\n      tag_70\n      jump\t// in\n    tag_93:\n        /* \"#utility.yul\":3617:3839   */\n      swap3\n      swap2\n      pop\n      pop\n      jump\t// out\n        /* \"#utility.yul\":3845:4264   */\n    tag_21:\n        /* \"#utility.yul\":4011:4015   */\n      0x00\n        /* \"#utility.yul\":4049:4051   */\n      0x20\n        /* \"#utility.yul\":4038:4047   */\n      dup3\n        /* \"#utility.yul\":4034:4052   */\n      add\n        /* \"#utility.yul\":4026:4052   */\n      swap1\n      pop\n        /* \"#utility.yul\":4098:4107   */\n      dup2\n        /* \"#utility.yul\":4092:4096   */\n      dup2\n        /* \"#utility.yul\":4088:4108   */\n      sub\n        /* \"#utility.yul\":4084:4085   */\n      0x00\n        /* \"#utility.yul\":4073:4082   */\n      dup4\n        /* \"#utility.yul\":4069:4086   */\n      add\n        /* \"#utility.yul\":4062:4109   */\n      mstore\n        /* \"#utility.yul\":4126:4257   */\n      tag_95\n        /* \"#utility.yul\":4252:4256   */\n      dup2\n        /* \"#utility.yul\":4126:4257   */\n      tag_82\n      jump\t// in\n    tag_95:\n        /* \"#utility.yul\":4118:4257   */\n      swap1\n      pop\n        /* \"#utility.yul\":3845:4264   */\n      swap2\n      swap1\n      pop\n      jump\t// out\n        /* \"#utility.yul\":4270:4399   */\n    tag_35:\n        /* \"#utility.yul\":4304:4310   */\n      0x00\n        /* \"#utility.yul\":4331:4351   */\n      tag_97\n      tag_98\n      jump\t// in\n    tag_97:\n        /* \"#utility.yul\":4321:4351   */\n      swap1\n      pop\n        /* \"#utility.yul\":4360:4393   */\n      tag_99\n        /* \"#utility.yul\":4388:4392   */\n      dup3\n        /* \"#utility.yul\":4380:4386   */\n      dup3\n        /* \"#utility.yul\":4360:4393   */\n      tag_100\n      jump\t// in\n    tag_99:\n        /* \"#utility.yul\":4270:4399   */\n      swap2\n      swap1\n      pop\n      jump\t// out\n        /* \"#utility.yul\":4405:4480   */\n    tag_98:\n        /* \"#utility.yul\":4438:4444   */\n      0x00\n        /* \"#utility.yul\":4471:4473   */\n      0x40\n        /* \"#utility.yul\":4465:4474   */\n      mload\n        /* \"#utility.yul\":4455:4474   */\n      swap1\n      pop\n        /* \"#utility.yul\":4405:4480   */\n      swap1\n      jump\t// out\n        /* \"#utility.yul\":4486:4794   */\n    tag_34:\n        /* \"#utility.yul\":4548:4552   */\n      0x00\n        /* \"#utility.yul\":4638:4656   */\n      0xffffffffffffffff\n        /* \"#utility.yul\":4630:4636   */\n      dup3\n        /* \"#utility.yul\":4627:4657   */\n      gt\n        /* \"#utility.yul\":4624:4680   */\n      iszero\n      tag_103\n      jumpi\n        /* \"#utility.yul\":4660:4678   */\n      tag_104\n      tag_105\n      jump\t// in\n    tag_104:\n        /* \"#utility.yul\":4624:4680   */\n    tag_103:\n        /* \"#utility.yul\":4698:4727   */\n      tag_106\n        /* \"#utility.yul\":4720:4726   */\n      dup3\n        /* \"#utility.yul\":4698:4727   */\n      tag_107\n      jump\t// in\n    tag_106:\n        /* \"#utility.yul\":4690:4727   */\n      swap1\n      pop\n        /* \"#utility.yul\":4782:4786   */\n      0x20\n        /* \"#utility.yul\":4776:4780   */\n      dup2\n        /* \"#utility.yul\":4772:4787   */\n      add\n        /* \"#utility.yul\":4764:4787   */\n      swap1\n      pop\n        /* \"#utility.yul\":4486:4794   */\n      swap2\n      swap1\n      pop\n      jump\t// out\n        /* \"#utility.yul\":4800:4899   */\n    tag_77:\n        /* \"#utility.yul\":4852:4858   */\n      0x00\n        /* \"#utility.yul\":4886:4891   */\n      dup2\n        /* \"#utility.yul\":4880:4892   */\n      mload\n        /* \"#utility.yul\":4870:4892   */\n      swap1\n      pop\n        /* \"#utility.yul\":4800:4899   */\n      swap2\n      swap1\n      pop\n      jump\t// out\n        /* \"#utility.yul\":4905:5074   */\n    tag_85:\n        /* \"#utility.yul\":4989:5000   */\n      0x00\n        /* \"#utility.yul\":5023:5029   */\n      dup3\n        /* \"#utility.yul\":5018:5021   */\n      dup3\n        /* \"#utility.yul\":5011:5030   */\n      mstore\n        /* \"#utility.yul\":5063:5067   */\n      0x20\n        /* \"#utility.yul\":5058:5061   */\n      dup3\n        /* \"#utility.yul\":5054:5068   */\n      add\n        /* \"#utility.yul\":5039:5068   */\n      swap1\n      pop\n        /* \"#utility.yul\":4905:5074   */\n      swap3\n      swap2\n      pop\n      pop\n      jump\t// out\n        /* \"#utility.yul\":5080:5228   */\n    tag_79:\n        /* \"#utility.yul\":5182:5193   */\n      0x00\n        /* \"#utility.yul\":5219:5222   */\n      dup2\n        /* \"#utility.yul\":5204:5222   */\n      swap1\n      pop\n        /* \"#utility.yul\":5080:5228   */\n      swap3\n      swap2\n      pop\n      pop\n      jump\t// out\n        /* \"#utility.yul\":5234:5330   */\n    tag_69:\n        /* \"#utility.yul\":5271:5278   */\n      0x00\n        /* \"#utility.yul\":5300:5324   */\n      tag_112\n        /* \"#utility.yul\":5318:5323   */\n      dup3\n        /* \"#utility.yul\":5300:5324   */\n      tag_113\n      jump\t// in\n    tag_112:\n        /* \"#utility.yul\":5289:5324   */\n      swap1\n      pop\n        /* \"#utility.yul\":5234:5330   */\n      swap2\n      swap1\n      pop\n      jump\t// out\n        /* \"#utility.yul\":5336:5413   */\n    tag_73:\n        /* \"#utility.yul\":5373:5380   */\n      0x00\n        /* \"#utility.yul\":5402:5407   */\n      dup2\n        /* \"#utility.yul\":5391:5407   */\n      swap1\n      pop\n        /* \"#utility.yul\":5336:5413   */\n      swap2\n      swap1\n      pop\n      jump\t// out\n        /* \"#utility.yul\":5419:5545   */\n    tag_113:\n        /* \"#utility.yul\":5456:5463   */\n      0x00\n        /* \"#utility.yul\":5496:5538   */\n      0xffffffffffffffffffffffffffffffffffffffff\n        /* \"#utility.yul\":5489:5494   */\n      dup3\n        /* \"#utility.yul\":5485:5539   */\n      and\n        /* \"#utility.yul\":5474:5539   */\n      swap1\n      pop\n        /* \"#utility.yul\":5419:5545   */\n      swap2\n      swap1\n      pop\n      jump\t// out\n        /* \"#utility.yul\":5551:5628   */\n    tag_116:\n        /* \"#utility.yul\":5588:5595   */\n      0x00\n        /* \"#utility.yul\":5617:5622   */\n      dup2\n        /* \"#utility.yul\":5606:5622   */\n      swap1\n      pop\n        /* \"#utility.yul\":5551:5628   */\n      swap2\n      swap1\n      pop\n      jump\t// out\n        /* \"#utility.yul\":5634:5788   */\n    tag_40:\n        /* \"#utility.yul\":5718:5724   */\n      dup3\n        /* \"#utility.yul\":5713:5716   */\n      dup2\n        /* \"#utility.yul\":5708:5711   */\n      dup4\n        /* \"#utility.yul\":5695:5725   */\n      calldatacopy\n        /* \"#utility.yul\":5780:5781   */\n      0x00\n        /* \"#utility.yul\":5771:5777   */\n      dup4\n        /* \"#utility.yul\":5766:5769   */\n      dup4\n        /* \"#utility.yul\":5762:5778   */\n      add\n        /* \"#utility.yul\":5755:5782   */\n      mstore\n        /* \"#utility.yul\":5634:5788   */\n      pop\n      pop\n      pop\n      jump\t// out\n        /* \"#utility.yul\":5794:6101   */\n    tag_81:\n        /* \"#utility.yul\":5862:5863   */\n      0x00\n        /* \"#utility.yul\":5872:5985   */\n    tag_120:\n        /* \"#utility.yul\":5886:5892   */\n      dup4\n        /* \"#utility.yul\":5883:5884   */\n      dup2\n        /* \"#utility.yul\":5880:5893   */\n      lt\n        /* \"#utility.yul\":5872:5985   */\n      iszero\n      tag_122\n      jumpi\n        /* \"#utility.yul\":5971:5972   */\n      dup1\n        /* \"#utility.yul\":5966:5969   */\n      dup3\n        /* \"#utility.yul\":5962:5973   */\n      add\n        /* \"#utility.yul\":5956:5974   */\n      mload\n        /* \"#utility.yul\":5952:5953   */\n      dup2\n        /* \"#utility.yul\":5947:5950   */\n      dup5\n        /* \"#utility.yul\":5943:5954   */\n      add\n        /* \"#utility.yul\":5936:5975   */\n      mstore\n        /* \"#utility.yul\":5908:5910   */\n      0x20\n        /* \"#utility.yul\":5905:5906   */\n      dup2\n        /* \"#utility.yul\":5901:5911   */\n      add\n        /* \"#utility.yul\":5896:5911   */\n      swap1\n      pop\n        /* \"#utility.yul\":5872:5985   */\n      jump(tag_120)\n    tag_122:\n        /* \"#utility.yul\":6003:6009   */\n      dup4\n        /* \"#utility.yul\":6000:6001   */\n      dup2\n        /* \"#utility.yul\":5997:6010   */\n      gt\n        /* \"#utility.yul\":5994:6095   */\n      iszero\n      tag_123\n      jumpi\n        /* \"#utility.yul\":6083:6084   */\n      0x00\n        /* \"#utility.yul\":6074:6080   */\n      dup5\n        /* \"#utility.yul\":6069:6072   */\n      dup5\n        /* \"#utility.yul\":6065:6081   */\n      add\n        /* \"#utility.yul\":6058:6085   */\n      mstore\n        /* \"#utility.yul\":5994:6095   */\n    tag_123:\n        /* \"#utility.yul\":5843:6101   */\n      pop\n        /* \"#utility.yul\":5794:6101   */\n      pop\n      pop\n      pop\n      jump\t// out\n        /* \"#utility.yul\":6107:6388   */\n    tag_100:\n        /* \"#utility.yul\":6190:6217   */\n      tag_125\n        /* \"#utility.yul\":6212:6216   */\n      dup3\n        /* \"#utility.yul\":6190:6217   */\n      tag_107\n      jump\t// in\n    tag_125:\n        /* \"#utility.yul\":6182:6188   */\n      dup2\n        /* \"#utility.yul\":6178:6218   */\n      add\n        /* \"#utility.yul\":6320:6326   */\n      dup2\n        /* \"#utility.yul\":6308:6318   */\n      dup2\n        /* \"#utility.yul\":6305:6327   */\n      lt\n        /* \"#utility.yul\":6284:6302   */\n      0xffffffffffffffff\n        /* \"#utility.yul\":6272:6282   */\n      dup3\n        /* \"#utility.yul\":6269:6303   */\n      gt\n        /* \"#utility.yul\":6266:6328   */\n      or\n        /* \"#utility.yul\":6263:6351   */\n      iszero\n      tag_126\n      jumpi\n        /* \"#utility.yul\":6331:6349   */\n      tag_127\n      tag_105\n      jump\t// in\n    tag_127:\n        /* \"#utility.yul\":6263:6351   */\n    tag_126:\n        /* \"#utility.yul\":6371:6381   */\n      dup1\n        /* \"#utility.yul\":6367:6369   */\n      0x40\n        /* \"#utility.yul\":6360:6382   */\n      mstore\n        /* \"#utility.yul\":6150:6388   */\n      pop\n        /* \"#utility.yul\":6107:6388   */\n      pop\n      pop\n      jump\t// out\n        /* \"#utility.yul\":6394:6574   */\n    tag_105:\n        /* \"#utility.yul\":6442:6519   */\n      0x4e487b7100000000000000000000000000000000000000000000000000000000\n        /* \"#utility.yul\":6439:6440   */\n      0x00\n        /* \"#utility.yul\":6432:6520   */\n      mstore\n        /* \"#utility.yul\":6539:6543   */\n      0x41\n        /* \"#utility.yul\":6536:6537   */\n      0x04\n        /* \"#utility.yul\":6529:6544   */\n      mstore\n        /* \"#utility.yul\":6563:6567   */\n      0x24\n        /* \"#utility.yul\":6560:6561   */\n      0x00\n        /* \"#utility.yul\":6553:6568   */\n      revert\n        /* \"#utility.yul\":6580:6697   */\n    tag_45:\n        /* \"#utility.yul\":6689:6690   */\n      0x00\n        /* \"#utility.yul\":6686:6687   */\n      dup1\n        /* \"#utility.yul\":6679:6691   */\n      revert\n        /* \"#utility.yul\":6703:6820   */\n    tag_38:\n        /* \"#utility.yul\":6812:6813   */\n      0x00\n        /* \"#utility.yul\":6809:6810   */\n      dup1\n        /* \"#utility.yul\":6802:6814   */\n      revert\n        /* \"#utility.yul\":6826:6943   */\n    tag_57:\n        /* \"#utility.yul\":6935:6936   */\n      0x00\n        /* \"#utility.yul\":6932:6933   */\n      dup1\n        /* \"#utility.yul\":6925:6937   */\n      revert\n        /* \"#utility.yul\":6949:7066   */\n    tag_54:\n        /* \"#utility.yul\":7058:7059   */\n      0x00\n        /* \"#utility.yul\":7055:7056   */\n      dup1\n        /* \"#utility.yul\":7048:7060   */\n      revert\n        /* \"#utility.yul\":7072:7174   */\n    tag_107:\n        /* \"#utility.yul\":7113:7119   */\n      0x00\n        /* \"#utility.yul\":7164:7166   */\n      0x1f\n        /* \"#utility.yul\":7160:7167   */\n      not\n        /* \"#utility.yul\":7155:7157   */\n      0x1f\n        /* \"#utility.yul\":7148:7153   */\n      dup4\n        /* \"#utility.yul\":7144:7158   */\n      add\n        /* \"#utility.yul\":7140:7168   */\n      and\n        /* \"#utility.yul\":7130:7168   */\n      swap1\n      pop\n        /* \"#utility.yul\":7072:7174   */\n      swap2\n      swap1\n      pop\n      jump\t// out\n        /* \"#utility.yul\":7180:7350   */\n    tag_87:\n        /* \"#utility.yul\":7320:7342   */\n      0x4e6f206572657320656c2070726f6665736f722e000000000000000000000000\n        /* \"#utility.yul\":7316:7317   */\n      0x00\n        /* \"#utility.yul\":7308:7314   */\n      dup3\n        /* \"#utility.yul\":7304:7318   */\n      add\n        /* \"#utility.yul\":7297:7343   */\n      mstore\n        /* \"#utility.yul\":7180:7350   */\n      pop\n      jump\t// out\n        /* \"#utility.yul\":7356:7478   */\n    tag_50:\n        /* \"#utility.yul\":7429:7453   */\n      tag_136\n        /* \"#utility.yul\":7447:7452   */\n      dup2\n        /* \"#utility.yul\":7429:7453   */\n      tag_116\n      jump\t// in\n    tag_136:\n        /* \"#utility.yul\":7422:7427   */\n      dup2\n        /* \"#utility.yul\":7419:7454   */\n      eq\n        /* \"#utility.yul\":7409:7472   */\n      tag_137\n      jumpi\n        /* \"#utility.yul\":7468:7469   */\n      0x00\n        /* \"#utility.yul\":7465:7466   */\n      dup1\n        /* \"#utility.yul\":7458:7470   */\n      revert\n        /* \"#utility.yul\":7409:7472   */\n    tag_137:\n        /* \"#utility.yul\":7356:7478   */\n      pop\n      jump\t// out\n\n    auxdata: 0xa2646970667358221220cdbbebb913690bf600be9d68cce48dab326055e4092b2e8fcd5e4857733bda3164736f6c63430008070033\n}\n",
				"bytecode": {
					"linkReferences": {},
					"object": "608060405234801561001057600080fd5b50336000806101000a81548173ffffffffffffffffffffffffffffffffffffffff021916908373ffffffffffffffffffffffffffffffffffffffff160217905550610607806100606000396000f3fe608060405234801561001057600080fd5b50600436106100415760003560e01c8063383bebae14610046578063deafddae14610062578063df0965761461007e575b600080fd5b610060600480360381019061005b91906102cc565b61009c565b005b61007c60048036038101906100779190610283565b6101ab565b005b6100866101da565b60405161009391906103b1565b60405180910390f35b3360008054906101000a900473ffffffffffffffffffffffffffffffffffffffff1673ffffffffffffffffffffffffffffffffffffffff168173ffffffffffffffffffffffffffffffffffffffff161461012b576040517f08c379a0000000000000000000000000000000000000000000000000000000008152600401610122906103e7565b60405180910390fd5b60008360405160200161013e919061039a565b6040516020818303038152906040528051906020012090508260016000838152602001908152602001600020819055507f9129eeeb684507aca017f10030b70e5bf86d129f417fcc5840348a957eb12cee8160405161019d91906103cc565b60405180910390a150505050565b6000816040516020016101be919061039a565b6040516020818303038152906040528051906020012090505050565b60008054906101000a900473ffffffffffffffffffffffffffffffffffffffff1681565b600061021161020c8461042c565b610407565b90508281526020810184848401111561022d5761022c610571565b5b6102388482856104ca565b509392505050565b600082601f8301126102555761025461056c565b5b81356102658482602086016101fe565b91505092915050565b60008135905061027d816105ba565b92915050565b6000602082840312156102995761029861057b565b5b600082013567ffffffffffffffff8111156102b7576102b6610576565b5b6102c384828501610240565b91505092915050565b600080604083850312156102e3576102e261057b565b5b600083013567ffffffffffffffff81111561030157610300610576565b5b61030d85828601610240565b925050602061031e8582860161026e565b9150509250929050565b61033181610484565b82525050565b61034081610496565b82525050565b60006103518261045d565b61035b8185610479565b935061036b8185602086016104d9565b80840191505092915050565b6000610384601483610468565b915061038f82610591565b602082019050919050565b60006103a68284610346565b915081905092915050565b60006020820190506103c66000830184610328565b92915050565b60006020820190506103e16000830184610337565b92915050565b6000602082019050818103600083015261040081610377565b9050919050565b6000610411610422565b905061041d828261050c565b919050565b6000604051905090565b600067ffffffffffffffff8211156104475761044661053d565b5b61045082610580565b9050602081019050919050565b600081519050919050565b600082825260208201905092915050565b600081905092915050565b600061048f826104a0565b9050919050565b6000819050919050565b600073ffffffffffffffffffffffffffffffffffffffff82169050919050565b6000819050919050565b82818337600083830152505050565b60005b838110156104f75780820151818401526020810190506104dc565b83811115610506576000848401525b50505050565b61051582610580565b810181811067ffffffffffffffff821117156105345761053361053d565b5b80604052505050565b7f4e487b7100000000000000000000000000000000000000000000000000000000600052604160045260246000fd5b600080fd5b600080fd5b600080fd5b600080fd5b6000601f19601f8301169050919050565b7f4e6f206572657320656c2070726f6665736f722e000000000000000000000000600082015250565b6105c3816104c0565b81146105ce57600080fd5b5056fea2646970667358221220cdbbebb913690bf600be9d68cce48dab326055e4092b2e8fcd5e4857733bda3164736f6c63430008070033",
					"opcodes": "PUSH1 0x80 PUSH1 0x40 MSTORE CALLVALUE DUP1 ISZERO PUSH2 0x10 JUMPI PUSH1 0x0 DUP1 REVERT JUMPDEST POP CALLER PUSH1 0x0 DUP1 PUSH2 0x100 EXP DUP2 SLOAD DUP2 PUSH20 0xFFFFFFFFFFFFFFFFFFFFFFFFFFFFFFFFFFFFFFFF MUL NOT AND SWAP1 DUP4 PUSH20 0xFFFFFFFFFFFFFFFFFFFFFFFFFFFFFFFFFFFFFFFF AND MUL OR SWAP1 SSTORE POP PUSH2 0x607 DUP1 PUSH2 0x60 PUSH1 0x0 CODECOPY PUSH1 0x0 RETURN INVALID PUSH1 0x80 PUSH1 0x40 MSTORE CALLVALUE DUP1 ISZERO PUSH2 0x10 JUMPI PUSH1 0x0 DUP1 REVERT JUMPDEST POP PUSH1 0x4 CALLDATASIZE LT PUSH2 0x41 JUMPI PUSH1 0x0 CALLDATALOAD PUSH1 0xE0 SHR DUP1 PUSH4 0x383BEBAE EQ PUSH2 0x46 JUMPI DUP1 PUSH4 0xDEAFDDAE EQ PUSH2 0x62 JUMPI DUP1 PUSH4 0xDF096576 EQ PUSH2 0x7E JUMPI JUMPDEST PUSH1 0x0 DUP1 REVERT JUMPDEST PUSH2 0x60 PUSH1 0x4 DUP1 CALLDATASIZE SUB DUP2 ADD SWAP1 PUSH2 0x5B SWAP2 SWAP1 PUSH2 0x2CC JUMP JUMPDEST PUSH2 0x9C JUMP JUMPDEST STOP JUMPDEST PUSH2 0x7C PUSH1 0x4 DUP1 CALLDATASIZE SUB DUP2 ADD SWAP1 PUSH2 0x77 SWAP2 SWAP1 PUSH2 0x283 JUMP JUMPDEST PUSH2 0x1AB JUMP JUMPDEST STOP JUMPDEST PUSH2 0x86 PUSH2 0x1DA JUMP JUMPDEST PUSH1 0x40 MLOAD PUSH2 0x93 SWAP2 SWAP1 PUSH2 0x3B1 JUMP JUMPDEST PUSH1 0x40 MLOAD DUP1 SWAP2 SUB SWAP1 RETURN JUMPDEST CALLER PUSH1 0x0 DUP1 SLOAD SWAP1 PUSH2 0x100 EXP SWAP1 DIV PUSH20 0xFFFFFFFFFFFFFFFFFFFFFFFFFFFFFFFFFFFFFFFF AND PUSH20 0xFFFFFFFFFFFFFFFFFFFFFFFFFFFFFFFFFFFFFFFF AND DUP2 PUSH20 0xFFFFFFFFFFFFFFFFFFFFFFFFFFFFFFFFFFFFFFFF AND EQ PUSH2 0x12B JUMPI PUSH1 0x40 MLOAD PUSH32 0x8C379A000000000000000000000000000000000000000000000000000000000 DUP2 MSTORE PUSH1 0x4 ADD PUSH2 0x122 SWAP1 PUSH2 0x3E7 JUMP JUMPDEST PUSH1 0x40 MLOAD DUP1 SWAP2 SUB SWAP1 REVERT JUMPDEST PUSH1 0x0 DUP4 PUSH1 0x40 MLOAD PUSH1 0x20 ADD PUSH2 0x13E SWAP2 SWAP1 PUSH2 0x39A JUMP JUMPDEST PUSH1 0x40 MLOAD PUSH1 0x20 DUP2 DUP4 SUB SUB DUP2 MSTORE SWAP1 PUSH1 0x40 MSTORE DUP1 MLOAD SWAP1 PUSH1 0x20 ADD KECCAK256 SWAP1 POP DUP3 PUSH1 0x1 PUSH1 0x0 DUP4 DUP2 MSTORE PUSH1 0x20 ADD SWAP1 DUP2 MSTORE PUSH1 0x20 ADD PUSH1 0x0 KECCAK256 DUP2 SWAP1 SSTORE POP PUSH32 0x9129EEEB684507ACA017F10030B70E5BF86D129F417FCC5840348A957EB12CEE DUP2 PUSH1 0x40 MLOAD PUSH2 0x19D SWAP2 SWAP1 PUSH2 0x3CC JUMP JUMPDEST PUSH1 0x40 MLOAD DUP1 SWAP2 SUB SWAP1 LOG1 POP POP POP POP JUMP JUMPDEST PUSH1 0x0 DUP2 PUSH1 0x40 MLOAD PUSH1 0x20 ADD PUSH2 0x1BE SWAP2 SWAP1 PUSH2 0x39A JUMP JUMPDEST PUSH1 0x40 MLOAD PUSH1 0x20 DUP2 DUP4 SUB SUB DUP2 MSTORE SWAP1 PUSH1 0x40 MSTORE DUP1 MLOAD SWAP1 PUSH1 0x20 ADD KECCAK256 SWAP1 POP POP POP JUMP JUMPDEST PUSH1 0x0 DUP1 SLOAD SWAP1 PUSH2 0x100 EXP SWAP1 DIV PUSH20 0xFFFFFFFFFFFFFFFFFFFFFFFFFFFFFFFFFFFFFFFF AND DUP2 JUMP JUMPDEST PUSH1 0x0 PUSH2 0x211 PUSH2 0x20C DUP5 PUSH2 0x42C JUMP JUMPDEST PUSH2 0x407 JUMP JUMPDEST SWAP1 POP DUP3 DUP2 MSTORE PUSH1 0x20 DUP2 ADD DUP5 DUP5 DUP5 ADD GT ISZERO PUSH2 0x22D JUMPI PUSH2 0x22C PUSH2 0x571 JUMP JUMPDEST JUMPDEST PUSH2 0x238 DUP5 DUP3 DUP6 PUSH2 0x4CA JUMP JUMPDEST POP SWAP4 SWAP3 POP POP POP JUMP JUMPDEST PUSH1 0x0 DUP3 PUSH1 0x1F DUP4 ADD SLT PUSH2 0x255 JUMPI PUSH2 0x254 PUSH2 0x56C JUMP JUMPDEST JUMPDEST DUP2 CALLDATALOAD PUSH2 0x265 DUP5 DUP3 PUSH1 0x20 DUP7 ADD PUSH2 0x1FE JUMP JUMPDEST SWAP2 POP POP SWAP3 SWAP2 POP POP JUMP JUMPDEST PUSH1 0x0 DUP2 CALLDATALOAD SWAP1 POP PUSH2 0x27D DUP2 PUSH2 0x5BA JUMP JUMPDEST SWAP3 SWAP2 POP POP JUMP JUMPDEST PUSH1 0x0 PUSH1 0x20 DUP3 DUP5 SUB SLT ISZERO PUSH2 0x299 JUMPI PUSH2 0x298 PUSH2 0x57B JUMP JUMPDEST JUMPDEST PUSH1 0x0 DUP3 ADD CALLDATALOAD PUSH8 0xFFFFFFFFFFFFFFFF DUP2 GT ISZERO PUSH2 0x2B7 JUMPI PUSH2 0x2B6 PUSH2 0x576 JUMP JUMPDEST JUMPDEST PUSH2 0x2C3 DUP5 DUP3 DUP6 ADD PUSH2 0x240 JUMP JUMPDEST SWAP2 POP POP SWAP3 SWAP2 POP POP JUMP JUMPDEST PUSH1 0x0 DUP1 PUSH1 0x40 DUP4 DUP6 SUB SLT ISZERO PUSH2 0x2E3 JUMPI PUSH2 0x2E2 PUSH2 0x57B JUMP JUMPDEST JUMPDEST PUSH1 0x0 DUP4 ADD CALLDATALOAD PUSH8 0xFFFFFFFFFFFFFFFF DUP2 GT ISZERO PUSH2 0x301 JUMPI PUSH2 0x300 PUSH2 0x576 JUMP JUMPDEST JUMPDEST PUSH2 0x30D DUP6 DUP3 DUP7 ADD PUSH2 0x240 JUMP JUMPDEST SWAP3 POP POP PUSH1 0x20 PUSH2 0x31E DUP6 DUP3 DUP7 ADD PUSH2 0x26E JUMP JUMPDEST SWAP2 POP POP SWAP3 POP SWAP3 SWAP1 POP JUMP JUMPDEST PUSH2 0x331 DUP2 PUSH2 0x484 JUMP JUMPDEST DUP3 MSTORE POP POP JUMP JUMPDEST PUSH2 0x340 DUP2 PUSH2 0x496 JUMP JUMPDEST DUP3 MSTORE POP POP JUMP JUMPDEST PUSH1 0x0 PUSH2 0x351 DUP3 PUSH2 0x45D JUMP JUMPDEST PUSH2 0x35B DUP2 DUP6 PUSH2 0x479 JUMP JUMPDEST SWAP4 POP PUSH2 0x36B DUP2 DUP6 PUSH1 0x20 DUP7 ADD PUSH2 0x4D9 JUMP JUMPDEST DUP1 DUP5 ADD SWAP2 POP POP SWAP3 SWAP2 POP POP JUMP JUMPDEST PUSH1 0x0 PUSH2 0x384 PUSH1 0x14 DUP4 PUSH2 0x468 JUMP JUMPDEST SWAP2 POP PUSH2 0x38F DUP3 PUSH2 0x591 JUMP JUMPDEST PUSH1 0x20 DUP3 ADD SWAP1 POP SWAP2 SWAP1 POP JUMP JUMPDEST PUSH1 0x0 PUSH2 0x3A6 DUP3 DUP5 PUSH2 0x346 JUMP JUMPDEST SWAP2 POP DUP2 SWAP1 POP SWAP3 SWAP2 POP POP JUMP JUMPDEST PUSH1 0x0 PUSH1 0x20 DUP3 ADD SWAP1 POP PUSH2 0x3C6 PUSH1 0x0 DUP4 ADD DUP5 PUSH2 0x328 JUMP JUMPDEST SWAP3 SWAP2 POP POP JUMP JUMPDEST PUSH1 0x0 PUSH1 0x20 DUP3 ADD SWAP1 POP PUSH2 0x3E1 PUSH1 0x0 DUP4 ADD DUP5 PUSH2 0x337 JUMP JUMPDEST SWAP3 SWAP2 POP POP JUMP JUMPDEST PUSH1 0x0 PUSH1 0x20 DUP3 ADD SWAP1 POP DUP2 DUP2 SUB PUSH1 0x0 DUP4 ADD MSTORE PUSH2 0x400 DUP2 PUSH2 0x377 JUMP JUMPDEST SWAP1 POP SWAP2 SWAP1 POP JUMP JUMPDEST PUSH1 0x0 PUSH2 0x411 PUSH2 0x422 JUMP JUMPDEST SWAP1 POP PUSH2 0x41D DUP3 DUP3 PUSH2 0x50C JUMP JUMPDEST SWAP2 SWAP1 POP JUMP JUMPDEST PUSH1 0x0 PUSH1 0x40 MLOAD SWAP1 POP SWAP1 JUMP JUMPDEST PUSH1 0x0 PUSH8 0xFFFFFFFFFFFFFFFF DUP3 GT ISZERO PUSH2 0x447 JUMPI PUSH2 0x446 PUSH2 0x53D JUMP JUMPDEST JUMPDEST PUSH2 0x450 DUP3 PUSH2 0x580 JUMP JUMPDEST SWAP1 POP PUSH1 0x20 DUP2 ADD SWAP1 POP SWAP2 SWAP1 POP JUMP JUMPDEST PUSH1 0x0 DUP2 MLOAD SWAP1 POP SWAP2 SWAP1 POP JUMP JUMPDEST PUSH1 0x0 DUP3 DUP3 MSTORE PUSH1 0x20 DUP3 ADD SWAP1 POP SWAP3 SWAP2 POP POP JUMP JUMPDEST PUSH1 0x0 DUP2 SWAP1 POP SWAP3 SWAP2 POP POP JUMP JUMPDEST PUSH1 0x0 PUSH2 0x48F DUP3 PUSH2 0x4A0 JUMP JUMPDEST SWAP1 POP SWAP2 SWAP1 POP JUMP JUMPDEST PUSH1 0x0 DUP2 SWAP1 POP SWAP2 SWAP1 POP JUMP JUMPDEST PUSH1 0x0 PUSH20 0xFFFFFFFFFFFFFFFFFFFFFFFFFFFFFFFFFFFFFFFF DUP3 AND SWAP1 POP SWAP2 SWAP1 POP JUMP JUMPDEST PUSH1 0x0 DUP2 SWAP1 POP SWAP2 SWAP1 POP JUMP JUMPDEST DUP3 DUP2 DUP4 CALLDATACOPY PUSH1 0x0 DUP4 DUP4 ADD MSTORE POP POP POP JUMP JUMPDEST PUSH1 0x0 JUMPDEST DUP4 DUP2 LT ISZERO PUSH2 0x4F7 JUMPI DUP1 DUP3 ADD MLOAD DUP2 DUP5 ADD MSTORE PUSH1 0x20 DUP2 ADD SWAP1 POP PUSH2 0x4DC JUMP JUMPDEST DUP4 DUP2 GT ISZERO PUSH2 0x506 JUMPI PUSH1 0x0 DUP5 DUP5 ADD MSTORE JUMPDEST POP POP POP POP JUMP JUMPDEST PUSH2 0x515 DUP3 PUSH2 0x580 JUMP JUMPDEST DUP2 ADD DUP2 DUP2 LT PUSH8 0xFFFFFFFFFFFFFFFF DUP3 GT OR ISZERO PUSH2 0x534 JUMPI PUSH2 0x533 PUSH2 0x53D JUMP JUMPDEST JUMPDEST DUP1 PUSH1 0x40 MSTORE POP POP POP JUMP JUMPDEST PUSH32 0x4E487B7100000000000000000000000000000000000000000000000000000000 PUSH1 0x0 MSTORE PUSH1 0x41 PUSH1 0x4 MSTORE PUSH1 0x24 PUSH1 0x0 REVERT JUMPDEST PUSH1 0x0 DUP1 REVERT JUMPDEST PUSH1 0x0 DUP1 REVERT JUMPDEST PUSH1 0x0 DUP1 REVERT JUMPDEST PUSH1 0x0 DUP1 REVERT JUMPDEST PUSH1 0x0 PUSH1 0x1F NOT PUSH1 0x1F DUP4 ADD AND SWAP1 POP SWAP2 SWAP1 POP JUMP JUMPDEST PUSH32 0x4E6F206572657320656C2070726F6665736F722E000000000000000000000000 PUSH1 0x0 DUP3 ADD MSTORE POP JUMP JUMPDEST PUSH2 0x5C3 DUP2 PUSH2 0x4C0 JUMP JUMPDEST DUP2 EQ PUSH2 0x5CE JUMPI PUSH1 0x0 DUP1 REVERT JUMPDEST POP JUMP INVALID LOG2 PUSH5 0x6970667358 0x22 SLT KECCAK256 0xCD 0xBB 0xEB 0xB9 SGT PUSH10 0xBF600BE9D68CCE48DAB ORIGIN PUSH1 0x55 0xE4 MULMOD 0x2B 0x2E DUP16 0xCD 0x5E BASEFEE JUMPI PUSH20 0x3BDA3164736F6C63430008070033000000000000 "
				},
				"gasEstimates": {
					"creation": {
						"codeDepositCost": "308600",
						"executionCost": "24615",
						"totalCost": "333215"
					},
					"external": {
						"evaluar(string,uint256)": "infinite",
						"profesor()": "2533",
						"verNotas(string)": "infinite"
					}
				},
				"methodIdentifiers": {
					"evaluar(string,uint256)": "383bebae",
					"profesor()": "df096576",
					"verNotas(string)": "deafddae"
				}
			},
			"storageLayout": {
				"storage": [
					{
						"astId": 4,
						"contract": "Notas/notas.sol:notas",
						"label": "profesor",
						"offset": 0,
						"slot": "0",
						"type": "t_address"
					},
					{
						"astId": 17,
						"contract": "Notas/notas.sol:notas",
						"label": "Notas",
						"offset": 0,
						"slot": "1",
						"type": "t_mapping(t_bytes32,t_uint256)"
					},
					{
						"astId": 20,
						"contract": "Notas/notas.sol:notas",
						"label": "revisiones",
						"offset": 0,
						"slot": "2",
						"type": "t_array(t_string_storage)dyn_storage"
					}
				],
				"types": {
					"t_address": {
						"encoding": "inplace",
						"label": "address",
						"numberOfBytes": "20"
					},
					"t_array(t_string_storage)dyn_storage": {
						"base": "t_string_storage",
						"encoding": "dynamic_array",
						"label": "string[]",
						"numberOfBytes": "32"
					},
					"t_bytes32": {
						"encoding": "inplace",
						"label": "bytes32",
						"numberOfBytes": "32"
					},
					"t_mapping(t_bytes32,t_uint256)": {
						"encoding": "mapping",
						"key": "t_bytes32",
						"label": "mapping(bytes32 => uint256)",
						"numberOfBytes": "32",
						"value": "t_uint256"
					},
					"t_string_storage": {
						"encoding": "bytes",
						"label": "string",
						"numberOfBytes": "32"
					},
					"t_uint256": {
						"encoding": "inplace",
						"label": "uint256",
						"numberOfBytes": "32"
					}
				}
			},
			"userdoc": {
				"kind": "user",
				"methods": {},
				"version": 1
			}
		}
	}
}