{
	"Notas/notas.sol": {
		"notas": {
			"abi": [
				{
					"inputs": [],
					"stateMutability": "nonpayable",
					"type": "constructor"
				},
				{
					"anonymous": false,
					"inputs": [
						{
							"indexed": false,
							"internalType": "bytes32",
							"name": "",
							"type": "bytes32"
						}
					],
					"name": "alumno_evaluado",
					"type": "event"
				},
				{
					"anonymous": false,
					"inputs": [
						{
							"indexed": false,
							"internalType": "string",
							"name": "",
							"type": "string"
						}
					],
					"name": "evento_revision",
					"type": "event"
				},
				{
					"inputs": [
						{
							"internalType": "string",
							"name": "_idAlumno",
							"type": "string"
						},
						{
							"internalType": "uint256",
							"name": "_nota",
							"type": "uint256"
						}
					],
					"name": "evaluar",
					"outputs": [],
					"stateMutability": "nonpayable",
					"type": "function"
				},
				{
					"inputs": [],
					"name": "profesor",
					"outputs": [
						{
							"internalType": "address",
							"name": "",
							"type": "address"
						}
					],
					"stateMutability": "view",
					"type": "function"
				},
				{
					"inputs": [
						{
							"internalType": "string",
							"name": "_idAlumno",
							"type": "string"
						}
					],
					"name": "revision",
					"outputs": [],
					"stateMutability": "nonpayable",
					"type": "function"
				},
				{
					"inputs": [
						{
							"internalType": "string",
							"name": "_idAlumno",
							"type": "string"
						}
					],
					"name": "verNotas",
					"outputs": [
						{
							"internalType": "uint256",
							"name": "",
							"type": "uint256"
						}
					],
					"stateMutability": "view",
					"type": "function"
				},
				{
					"inputs": [],
					"name": "verRevision",
					"outputs": [],
					"stateMutability": "view",
					"type": "function"
				}
			],
			"devdoc": {
				"kind": "dev",
				"methods": {},
				"version": 1
			},
			"evm": {
				"assembly": "    /* \"Notas/notas.sol\":97:1385  contract notas {\r... */\n  mstore(0x40, 0x80)\n    /* \"Notas/notas.sol\":219:273  constructor() {\r... */\n  callvalue\n  dup1\n  iszero\n  tag_1\n  jumpi\n  0x00\n  dup1\n  revert\ntag_1:\n  pop\n    /* \"Notas/notas.sol\":255:265  msg.sender */\n  caller\n    /* \"Notas/notas.sol\":244:252  profesor */\n  0x00\n  dup1\n    /* \"Notas/notas.sol\":244:265  profesor = msg.sender */\n  0x0100\n  exp\n  dup2\n  sload\n  dup2\n  0xffffffffffffffffffffffffffffffffffffffff\n  mul\n  not\n  and\n  swap1\n  dup4\n  0xffffffffffffffffffffffffffffffffffffffff\n  and\n  mul\n  or\n  swap1\n  sstore\n  pop\n    /* \"Notas/notas.sol\":97:1385  contract notas {\r... */\n  dataSize(sub_0)\n  dup1\n  dataOffset(sub_0)\n  0x00\n  codecopy\n  0x00\n  return\nstop\n\nsub_0: assembly {\n        /* \"Notas/notas.sol\":97:1385  contract notas {\r... */\n      mstore(0x40, 0x80)\n      callvalue\n      dup1\n      iszero\n      tag_1\n      jumpi\n      0x00\n      dup1\n      revert\n    tag_1:\n      pop\n      jumpi(tag_2, lt(calldatasize, 0x04))\n      shr(0xe0, calldataload(0x00))\n      dup1\n      0x383bebae\n      eq\n      tag_3\n      jumpi\n      dup1\n      0x7345fc20\n      eq\n      tag_4\n      jumpi\n      dup1\n      0xca981d91\n      eq\n      tag_5\n      jumpi\n      dup1\n      0xdeafddae\n      eq\n      tag_6\n      jumpi\n      dup1\n      0xdf096576\n      eq\n      tag_7\n      jumpi\n    tag_2:\n      0x00\n      dup1\n      revert\n        /* \"Notas/notas.sol\":667:918  function evaluar(string memory _idAlumno, uint _nota) public OnlyTeacher(msg.sender) {\r... */\n    tag_3:\n      tag_8\n      0x04\n      dup1\n      calldatasize\n      sub\n      dup2\n      add\n      swap1\n      tag_9\n      swap2\n      swap1\n      tag_10\n      jump\t// in\n    tag_9:\n      tag_11\n      jump\t// in\n    tag_8:\n      stop\n        /* \"Notas/notas.sol\":1313:1382  function verRevision() public view OnlyTeacher(msg.sender) {\r... */\n    tag_4:\n      tag_12\n      tag_13\n      jump\t// in\n    tag_12:\n      stop\n        /* \"Notas/notas.sol\":1168:1305  function revision(string memory _idAlumno) public {\r... */\n    tag_5:\n      tag_14\n      0x04\n      dup1\n      calldatasize\n      sub\n      dup2\n      add\n      swap1\n      tag_15\n      swap2\n      swap1\n      tag_16\n      jump\t// in\n    tag_15:\n      tag_17\n      jump\t// in\n    tag_14:\n      stop\n        /* \"Notas/notas.sol\":926:1156  function verNotas(string memory _idAlumno) public view returns(uint) {\r... */\n    tag_6:\n      tag_18\n      0x04\n      dup1\n      calldatasize\n      sub\n      dup2\n      add\n      swap1\n      tag_19\n      swap2\n      swap1\n      tag_16\n      jump\t// in\n    tag_19:\n      tag_20\n      jump\t// in\n    tag_18:\n      mload(0x40)\n      tag_21\n      swap2\n      swap1\n      tag_22\n      jump\t// in\n    tag_21:\n      mload(0x40)\n      dup1\n      swap2\n      sub\n      swap1\n      return\n        /* \"Notas/notas.sol\":119:142  address public profesor */\n    tag_7:\n      tag_23\n      tag_24\n      jump\t// in\n    tag_23:\n      mload(0x40)\n      tag_25\n      swap2\n      swap1\n      tag_26\n      jump\t// in\n    tag_25:\n      mload(0x40)\n      dup1\n      swap2\n      sub\n      swap1\n      return\n        /* \"Notas/notas.sol\":667:918  function evaluar(string memory _idAlumno, uint _nota) public OnlyTeacher(msg.sender) {\r... */\n    tag_11:\n        /* \"Notas/notas.sol\":740:750  msg.sender */\n      caller\n        /* \"Notas/notas.sol\":583:591  profesor */\n      0x00\n      dup1\n      sload\n      swap1\n      0x0100\n      exp\n      swap1\n      div\n      0xffffffffffffffffffffffffffffffffffffffff\n      and\n        /* \"Notas/notas.sol\":569:591  _direccion == profesor */\n      0xffffffffffffffffffffffffffffffffffffffff\n      and\n        /* \"Notas/notas.sol\":569:579  _direccion */\n      dup2\n        /* \"Notas/notas.sol\":569:591  _direccion == profesor */\n      0xffffffffffffffffffffffffffffffffffffffff\n      and\n      eq\n        /* \"Notas/notas.sol\":561:616  require(_direccion == profesor, \"No eres el profesor.\") */\n      tag_28\n      jumpi\n      mload(0x40)\n      0x08c379a000000000000000000000000000000000000000000000000000000000\n      dup2\n      mstore\n      0x04\n      add\n      tag_29\n      swap1\n      tag_30\n      jump\t// in\n    tag_29:\n      mload(0x40)\n      dup1\n      swap2\n      sub\n      swap1\n      revert\n    tag_28:\n        /* \"Notas/notas.sol\":763:784  bytes32 hash_idAlumno */\n      0x00\n        /* \"Notas/notas.sol\":814:823  _idAlumno */\n      dup4\n        /* \"Notas/notas.sol\":797:824  abi.encodePacked(_idAlumno) */\n      add(0x20, mload(0x40))\n      tag_32\n      swap2\n      swap1\n      tag_33\n      jump\t// in\n    tag_32:\n      mload(0x40)\n      0x20\n      dup2\n      dup4\n      sub\n      sub\n      dup2\n      mstore\n      swap1\n      0x40\n      mstore\n        /* \"Notas/notas.sol\":787:825  keccak256(abi.encodePacked(_idAlumno)) */\n      dup1\n      mload\n      swap1\n      0x20\n      add\n      keccak256\n        /* \"Notas/notas.sol\":763:825  bytes32 hash_idAlumno = keccak256(abi.encodePacked(_idAlumno)) */\n      swap1\n      pop\n        /* \"Notas/notas.sol\":859:864  _nota */\n      dup3\n        /* \"Notas/notas.sol\":836:841  Notas */\n      0x01\n        /* \"Notas/notas.sol\":836:856  Notas[hash_idAlumno] */\n      0x00\n        /* \"Notas/notas.sol\":842:855  hash_idAlumno */\n      dup4\n        /* \"Notas/notas.sol\":836:856  Notas[hash_idAlumno] */\n      dup2\n      mstore\n      0x20\n      add\n      swap1\n      dup2\n      mstore\n      0x20\n      add\n      0x00\n      keccak256\n        /* \"Notas/notas.sol\":836:864  Notas[hash_idAlumno] = _nota */\n      dup2\n      swap1\n      sstore\n      pop\n        /* \"Notas/notas.sol\":880:910  alumno_evaluado(hash_idAlumno) */\n      0x9129eeeb684507aca017f10030b70e5bf86d129f417fcc5840348a957eb12cee\n        /* \"Notas/notas.sol\":896:909  hash_idAlumno */\n      dup2\n        /* \"Notas/notas.sol\":880:910  alumno_evaluado(hash_idAlumno) */\n      mload(0x40)\n      tag_34\n      swap2\n      swap1\n      tag_35\n      jump\t// in\n    tag_34:\n      mload(0x40)\n      dup1\n      swap2\n      sub\n      swap1\n      log1\n        /* \"Notas/notas.sol\":752:918  {\r... */\n      pop\n        /* \"Notas/notas.sol\":667:918  function evaluar(string memory _idAlumno, uint _nota) public OnlyTeacher(msg.sender) {\r... */\n      pop\n      pop\n      pop\n      jump\t// out\n        /* \"Notas/notas.sol\":1313:1382  function verRevision() public view OnlyTeacher(msg.sender) {\r... */\n    tag_13:\n        /* \"Notas/notas.sol\":1360:1370  msg.sender */\n      caller\n        /* \"Notas/notas.sol\":583:591  profesor */\n      0x00\n      dup1\n      sload\n      swap1\n      0x0100\n      exp\n      swap1\n      div\n      0xffffffffffffffffffffffffffffffffffffffff\n      and\n        /* \"Notas/notas.sol\":569:591  _direccion == profesor */\n      0xffffffffffffffffffffffffffffffffffffffff\n      and\n        /* \"Notas/notas.sol\":569:579  _direccion */\n      dup2\n        /* \"Notas/notas.sol\":569:591  _direccion == profesor */\n      0xffffffffffffffffffffffffffffffffffffffff\n      and\n      eq\n        /* \"Notas/notas.sol\":561:616  require(_direccion == profesor, \"No eres el profesor.\") */\n      tag_37\n      jumpi\n      mload(0x40)\n      0x08c379a000000000000000000000000000000000000000000000000000000000\n      dup2\n      mstore\n      0x04\n      add\n      tag_38\n      swap1\n      tag_30\n      jump\t// in\n    tag_38:\n      mload(0x40)\n      dup1\n      swap2\n      sub\n      swap1\n      revert\n    tag_37:\n        /* \"Notas/notas.sol\":1313:1382  function verRevision() public view OnlyTeacher(msg.sender) {\r... */\n      pop\n      jump\t// out\n        /* \"Notas/notas.sol\":1168:1305  function revision(string memory _idAlumno) public {\r... */\n    tag_17:\n        /* \"Notas/notas.sol\":1229:1239  revisiones */\n      0x02\n        /* \"Notas/notas.sol\":1245:1254  _idAlumno */\n      dup2\n        /* \"Notas/notas.sol\":1229:1255  revisiones.push(_idAlumno) */\n      swap1\n      dup1\n      0x01\n      dup2\n      sload\n      add\n      dup1\n      dup3\n      sstore\n      dup1\n      swap2\n      pop\n      pop\n      0x01\n      swap1\n      sub\n      swap1\n      0x00\n      mstore\n      keccak256(0x00, 0x20)\n      add\n      0x00\n      swap1\n      swap2\n      swap1\n      swap2\n      swap1\n      swap2\n      pop\n      swap1\n      dup1\n      mload\n      swap1\n      0x20\n      add\n      swap1\n      tag_42\n      swap3\n      swap2\n      swap1\n      tag_43\n      jump\t// in\n    tag_42:\n      pop\n        /* \"Notas/notas.sol\":1271:1297  evento_revision(_idAlumno) */\n      0xafd73f39162aa4c0421f362f3a3d26f44b23c73253256cfc1c68794b0973e0a0\n        /* \"Notas/notas.sol\":1287:1296  _idAlumno */\n      dup2\n        /* \"Notas/notas.sol\":1271:1297  evento_revision(_idAlumno) */\n      mload(0x40)\n      tag_44\n      swap2\n      swap1\n      tag_45\n      jump\t// in\n    tag_44:\n      mload(0x40)\n      dup1\n      swap2\n      sub\n      swap1\n      log1\n        /* \"Notas/notas.sol\":1168:1305  function revision(string memory _idAlumno) public {\r... */\n      pop\n      jump\t// out\n        /* \"Notas/notas.sol\":926:1156  function verNotas(string memory _idAlumno) public view returns(uint) {\r... */\n    tag_20:\n        /* \"Notas/notas.sol\":989:993  uint */\n      0x00\n        /* \"Notas/notas.sol\":1006:1027  bytes32 hash_idAlumno */\n      dup1\n        /* \"Notas/notas.sol\":1057:1066  _idAlumno */\n      dup3\n        /* \"Notas/notas.sol\":1040:1067  abi.encodePacked(_idAlumno) */\n      add(0x20, mload(0x40))\n      tag_47\n      swap2\n      swap1\n      tag_33\n      jump\t// in\n    tag_47:\n      mload(0x40)\n      0x20\n      dup2\n      dup4\n      sub\n      sub\n      dup2\n      mstore\n      swap1\n      0x40\n      mstore\n        /* \"Notas/notas.sol\":1030:1068  keccak256(abi.encodePacked(_idAlumno)) */\n      dup1\n      mload\n      swap1\n      0x20\n      add\n      keccak256\n        /* \"Notas/notas.sol\":1006:1068  bytes32 hash_idAlumno = keccak256(abi.encodePacked(_idAlumno)) */\n      swap1\n      pop\n        /* \"Notas/notas.sol\":1079:1095  uint nota_alumno */\n      0x00\n        /* \"Notas/notas.sol\":1098:1103  Notas */\n      0x01\n        /* \"Notas/notas.sol\":1098:1118  Notas[hash_idAlumno] */\n      0x00\n        /* \"Notas/notas.sol\":1104:1117  hash_idAlumno */\n      dup4\n        /* \"Notas/notas.sol\":1098:1118  Notas[hash_idAlumno] */\n      dup2\n      mstore\n      0x20\n      add\n      swap1\n      dup2\n      mstore\n      0x20\n      add\n      0x00\n      keccak256\n      sload\n        /* \"Notas/notas.sol\":1079:1118  uint nota_alumno = Notas[hash_idAlumno] */\n      swap1\n      pop\n        /* \"Notas/notas.sol\":1137:1148  nota_alumno */\n      dup1\n        /* \"Notas/notas.sol\":1129:1148  return  nota_alumno */\n      swap3\n      pop\n      pop\n      pop\n        /* \"Notas/notas.sol\":926:1156  function verNotas(string memory _idAlumno) public view returns(uint) {\r... */\n      swap2\n      swap1\n      pop\n      jump\t// out\n        /* \"Notas/notas.sol\":119:142  address public profesor */\n    tag_24:\n      0x00\n      dup1\n      sload\n      swap1\n      0x0100\n      exp\n      swap1\n      div\n      0xffffffffffffffffffffffffffffffffffffffff\n      and\n      dup2\n      jump\t// out\n    tag_43:\n      dup3\n      dup1\n      sload\n      tag_48\n      swap1\n      tag_49\n      jump\t// in\n    tag_48:\n      swap1\n      0x00\n      mstore\n      keccak256(0x00, 0x20)\n      swap1\n      0x1f\n      add\n      0x20\n      swap1\n      div\n      dup2\n      add\n      swap3\n      dup3\n      tag_51\n      jumpi\n      0x00\n      dup6\n      sstore\n      jump(tag_50)\n    tag_51:\n      dup3\n      0x1f\n      lt\n      tag_52\n      jumpi\n      dup1\n      mload\n      not(0xff)\n      and\n      dup4\n      dup1\n      add\n      or\n      dup6\n      sstore\n      jump(tag_50)\n    tag_52:\n      dup3\n      dup1\n      add\n      0x01\n      add\n      dup6\n      sstore\n      dup3\n      iszero\n      tag_50\n      jumpi\n      swap2\n      dup3\n      add\n    tag_53:\n      dup3\n      dup2\n      gt\n      iszero\n      tag_54\n      jumpi\n      dup3\n      mload\n      dup3\n      sstore\n      swap2\n      0x20\n      add\n      swap2\n      swap1\n      0x01\n      add\n      swap1\n      jump(tag_53)\n    tag_54:\n    tag_50:\n      pop\n      swap1\n      pop\n      tag_55\n      swap2\n      swap1\n      tag_56\n      jump\t// in\n    tag_55:\n      pop\n      swap1\n      jump\t// out\n    tag_56:\n    tag_57:\n      dup1\n      dup3\n      gt\n      iszero\n      tag_58\n      jumpi\n      0x00\n      dup2\n      0x00\n      swap1\n      sstore\n      pop\n      0x01\n      add\n      jump(tag_57)\n    tag_58:\n      pop\n      swap1\n      jump\t// out\n        /* \"#utility.yul\":7:419   */\n    tag_60:\n        /* \"#utility.yul\":85:90   */\n      0x00\n        /* \"#utility.yul\":110:176   */\n      tag_62\n        /* \"#utility.yul\":126:175   */\n      tag_63\n        /* \"#utility.yul\":168:174   */\n      dup5\n        /* \"#utility.yul\":126:175   */\n      tag_64\n      jump\t// in\n    tag_63:\n        /* \"#utility.yul\":110:176   */\n      tag_65\n      jump\t// in\n    tag_62:\n        /* \"#utility.yul\":101:176   */\n      swap1\n      pop\n        /* \"#utility.yul\":199:205   */\n      dup3\n        /* \"#utility.yul\":192:197   */\n      dup2\n        /* \"#utility.yul\":185:206   */\n      mstore\n        /* \"#utility.yul\":237:241   */\n      0x20\n        /* \"#utility.yul\":230:235   */\n      dup2\n        /* \"#utility.yul\":226:242   */\n      add\n        /* \"#utility.yul\":275:278   */\n      dup5\n        /* \"#utility.yul\":266:272   */\n      dup5\n        /* \"#utility.yul\":261:264   */\n      dup5\n        /* \"#utility.yul\":257:273   */\n      add\n        /* \"#utility.yul\":254:279   */\n      gt\n        /* \"#utility.yul\":251:363   */\n      iszero\n      tag_66\n      jumpi\n        /* \"#utility.yul\":282:361   */\n      tag_67\n      tag_68\n      jump\t// in\n    tag_67:\n        /* \"#utility.yul\":251:363   */\n    tag_66:\n        /* \"#utility.yul\":372:413   */\n      tag_69\n        /* \"#utility.yul\":406:412   */\n      dup5\n        /* \"#utility.yul\":401:404   */\n      dup3\n        /* \"#utility.yul\":396:399   */\n      dup6\n        /* \"#utility.yul\":372:413   */\n      tag_70\n      jump\t// in\n    tag_69:\n        /* \"#utility.yul\":91:419   */\n      pop\n        /* \"#utility.yul\":7:419   */\n      swap4\n      swap3\n      pop\n      pop\n      pop\n      jump\t// out\n        /* \"#utility.yul\":439:779   */\n    tag_71:\n        /* \"#utility.yul\":495:500   */\n      0x00\n        /* \"#utility.yul\":544:547   */\n      dup3\n        /* \"#utility.yul\":537:541   */\n      0x1f\n        /* \"#utility.yul\":529:535   */\n      dup4\n        /* \"#utility.yul\":525:542   */\n      add\n        /* \"#utility.yul\":521:548   */\n      slt\n        /* \"#utility.yul\":511:633   */\n      tag_73\n      jumpi\n        /* \"#utility.yul\":552:631   */\n      tag_74\n      tag_75\n      jump\t// in\n    tag_74:\n        /* \"#utility.yul\":511:633   */\n    tag_73:\n        /* \"#utility.yul\":669:675   */\n      dup2\n        /* \"#utility.yul\":656:676   */\n      calldataload\n        /* \"#utility.yul\":694:773   */\n      tag_76\n        /* \"#utility.yul\":769:772   */\n      dup5\n        /* \"#utility.yul\":761:767   */\n      dup3\n        /* \"#utility.yul\":754:758   */\n      0x20\n        /* \"#utility.yul\":746:752   */\n      dup7\n        /* \"#utility.yul\":742:759   */\n      add\n        /* \"#utility.yul\":694:773   */\n      tag_60\n      jump\t// in\n    tag_76:\n        /* \"#utility.yul\":685:773   */\n      swap2\n      pop\n        /* \"#utility.yul\":501:779   */\n      pop\n        /* \"#utility.yul\":439:779   */\n      swap3\n      swap2\n      pop\n      pop\n      jump\t// out\n        /* \"#utility.yul\":785:924   */\n    tag_77:\n        /* \"#utility.yul\":831:836   */\n      0x00\n        /* \"#utility.yul\":869:875   */\n      dup2\n        /* \"#utility.yul\":856:876   */\n      calldataload\n        /* \"#utility.yul\":847:876   */\n      swap1\n      pop\n        /* \"#utility.yul\":885:918   */\n      tag_79\n        /* \"#utility.yul\":912:917   */\n      dup2\n        /* \"#utility.yul\":885:918   */\n      tag_80\n      jump\t// in\n    tag_79:\n        /* \"#utility.yul\":785:924   */\n      swap3\n      swap2\n      pop\n      pop\n      jump\t// out\n        /* \"#utility.yul\":930:1439   */\n    tag_16:\n        /* \"#utility.yul\":999:1005   */\n      0x00\n        /* \"#utility.yul\":1048:1050   */\n      0x20\n        /* \"#utility.yul\":1036:1045   */\n      dup3\n        /* \"#utility.yul\":1027:1034   */\n      dup5\n        /* \"#utility.yul\":1023:1046   */\n      sub\n        /* \"#utility.yul\":1019:1051   */\n      slt\n        /* \"#utility.yul\":1016:1135   */\n      iszero\n      tag_82\n      jumpi\n        /* \"#utility.yul\":1054:1133   */\n      tag_83\n      tag_84\n      jump\t// in\n    tag_83:\n        /* \"#utility.yul\":1016:1135   */\n    tag_82:\n        /* \"#utility.yul\":1202:1203   */\n      0x00\n        /* \"#utility.yul\":1191:1200   */\n      dup3\n        /* \"#utility.yul\":1187:1204   */\n      add\n        /* \"#utility.yul\":1174:1205   */\n      calldataload\n        /* \"#utility.yul\":1232:1250   */\n      0xffffffffffffffff\n        /* \"#utility.yul\":1224:1230   */\n      dup2\n        /* \"#utility.yul\":1221:1251   */\n      gt\n        /* \"#utility.yul\":1218:1335   */\n      iszero\n      tag_85\n      jumpi\n        /* \"#utility.yul\":1254:1333   */\n      tag_86\n      tag_87\n      jump\t// in\n    tag_86:\n        /* \"#utility.yul\":1218:1335   */\n    tag_85:\n        /* \"#utility.yul\":1359:1422   */\n      tag_88\n        /* \"#utility.yul\":1414:1421   */\n      dup5\n        /* \"#utility.yul\":1405:1411   */\n      dup3\n        /* \"#utility.yul\":1394:1403   */\n      dup6\n        /* \"#utility.yul\":1390:1412   */\n      add\n        /* \"#utility.yul\":1359:1422   */\n      tag_71\n      jump\t// in\n    tag_88:\n        /* \"#utility.yul\":1349:1422   */\n      swap2\n      pop\n        /* \"#utility.yul\":1145:1432   */\n      pop\n        /* \"#utility.yul\":930:1439   */\n      swap3\n      swap2\n      pop\n      pop\n      jump\t// out\n        /* \"#utility.yul\":1445:2099   */\n    tag_10:\n        /* \"#utility.yul\":1523:1529   */\n      0x00\n        /* \"#utility.yul\":1531:1537   */\n      dup1\n        /* \"#utility.yul\":1580:1582   */\n      0x40\n        /* \"#utility.yul\":1568:1577   */\n      dup4\n        /* \"#utility.yul\":1559:1566   */\n      dup6\n        /* \"#utility.yul\":1555:1578   */\n      sub\n        /* \"#utility.yul\":1551:1583   */\n      slt\n        /* \"#utility.yul\":1548:1667   */\n      iszero\n      tag_90\n      jumpi\n        /* \"#utility.yul\":1586:1665   */\n      tag_91\n      tag_84\n      jump\t// in\n    tag_91:\n        /* \"#utility.yul\":1548:1667   */\n    tag_90:\n        /* \"#utility.yul\":1734:1735   */\n      0x00\n        /* \"#utility.yul\":1723:1732   */\n      dup4\n        /* \"#utility.yul\":1719:1736   */\n      add\n        /* \"#utility.yul\":1706:1737   */\n      calldataload\n        /* \"#utility.yul\":1764:1782   */\n      0xffffffffffffffff\n        /* \"#utility.yul\":1756:1762   */\n      dup2\n        /* \"#utility.yul\":1753:1783   */\n      gt\n        /* \"#utility.yul\":1750:1867   */\n      iszero\n      tag_92\n      jumpi\n        /* \"#utility.yul\":1786:1865   */\n      tag_93\n      tag_87\n      jump\t// in\n    tag_93:\n        /* \"#utility.yul\":1750:1867   */\n    tag_92:\n        /* \"#utility.yul\":1891:1954   */\n      tag_94\n        /* \"#utility.yul\":1946:1953   */\n      dup6\n        /* \"#utility.yul\":1937:1943   */\n      dup3\n        /* \"#utility.yul\":1926:1935   */\n      dup7\n        /* \"#utility.yul\":1922:1944   */\n      add\n        /* \"#utility.yul\":1891:1954   */\n      tag_71\n      jump\t// in\n    tag_94:\n        /* \"#utility.yul\":1881:1954   */\n      swap3\n      pop\n        /* \"#utility.yul\":1677:1964   */\n      pop\n        /* \"#utility.yul\":2003:2005   */\n      0x20\n        /* \"#utility.yul\":2029:2082   */\n      tag_95\n        /* \"#utility.yul\":2074:2081   */\n      dup6\n        /* \"#utility.yul\":2065:2071   */\n      dup3\n        /* \"#utility.yul\":2054:2063   */\n      dup7\n        /* \"#utility.yul\":2050:2072   */\n      add\n        /* \"#utility.yul\":2029:2082   */\n      tag_77\n      jump\t// in\n    tag_95:\n        /* \"#utility.yul\":2019:2082   */\n      swap2\n      pop\n        /* \"#utility.yul\":1974:2092   */\n      pop\n        /* \"#utility.yul\":1445:2099   */\n      swap3\n      pop\n      swap3\n      swap1\n      pop\n      jump\t// out\n        /* \"#utility.yul\":2105:2223   */\n    tag_96:\n        /* \"#utility.yul\":2192:2216   */\n      tag_98\n        /* \"#utility.yul\":2210:2215   */\n      dup2\n        /* \"#utility.yul\":2192:2216   */\n      tag_99\n      jump\t// in\n    tag_98:\n        /* \"#utility.yul\":2187:2190   */\n      dup3\n        /* \"#utility.yul\":2180:2217   */\n      mstore\n        /* \"#utility.yul\":2105:2223   */\n      pop\n      pop\n      jump\t// out\n        /* \"#utility.yul\":2229:2347   */\n    tag_100:\n        /* \"#utility.yul\":2316:2340   */\n      tag_102\n        /* \"#utility.yul\":2334:2339   */\n      dup2\n        /* \"#utility.yul\":2316:2340   */\n      tag_103\n      jump\t// in\n    tag_102:\n        /* \"#utility.yul\":2311:2314   */\n      dup3\n        /* \"#utility.yul\":2304:2341   */\n      mstore\n        /* \"#utility.yul\":2229:2347   */\n      pop\n      pop\n      jump\t// out\n        /* \"#utility.yul\":2353:2717   */\n    tag_104:\n        /* \"#utility.yul\":2441:2444   */\n      0x00\n        /* \"#utility.yul\":2469:2508   */\n      tag_106\n        /* \"#utility.yul\":2502:2507   */\n      dup3\n        /* \"#utility.yul\":2469:2508   */\n      tag_107\n      jump\t// in\n    tag_106:\n        /* \"#utility.yul\":2524:2595   */\n      tag_108\n        /* \"#utility.yul\":2588:2594   */\n      dup2\n        /* \"#utility.yul\":2583:2586   */\n      dup6\n        /* \"#utility.yul\":2524:2595   */\n      tag_109\n      jump\t// in\n    tag_108:\n        /* \"#utility.yul\":2517:2595   */\n      swap4\n      pop\n        /* \"#utility.yul\":2604:2656   */\n      tag_110\n        /* \"#utility.yul\":2649:2655   */\n      dup2\n        /* \"#utility.yul\":2644:2647   */\n      dup6\n        /* \"#utility.yul\":2637:2641   */\n      0x20\n        /* \"#utility.yul\":2630:2635   */\n      dup7\n        /* \"#utility.yul\":2626:2642   */\n      add\n        /* \"#utility.yul\":2604:2656   */\n      tag_111\n      jump\t// in\n    tag_110:\n        /* \"#utility.yul\":2681:2710   */\n      tag_112\n        /* \"#utility.yul\":2703:2709   */\n      dup2\n        /* \"#utility.yul\":2681:2710   */\n      tag_113\n      jump\t// in\n    tag_112:\n        /* \"#utility.yul\":2676:2679   */\n      dup5\n        /* \"#utility.yul\":2672:2711   */\n      add\n        /* \"#utility.yul\":2665:2711   */\n      swap2\n      pop\n        /* \"#utility.yul\":2445:2717   */\n      pop\n        /* \"#utility.yul\":2353:2717   */\n      swap3\n      swap2\n      pop\n      pop\n      jump\t// out\n        /* \"#utility.yul\":2723:3100   */\n    tag_114:\n        /* \"#utility.yul\":2829:2832   */\n      0x00\n        /* \"#utility.yul\":2857:2896   */\n      tag_116\n        /* \"#utility.yul\":2890:2895   */\n      dup3\n        /* \"#utility.yul\":2857:2896   */\n      tag_107\n      jump\t// in\n    tag_116:\n        /* \"#utility.yul\":2912:3001   */\n      tag_117\n        /* \"#utility.yul\":2994:3000   */\n      dup2\n        /* \"#utility.yul\":2989:2992   */\n      dup6\n        /* \"#utility.yul\":2912:3001   */\n      tag_118\n      jump\t// in\n    tag_117:\n        /* \"#utility.yul\":2905:3001   */\n      swap4\n      pop\n        /* \"#utility.yul\":3010:3062   */\n      tag_119\n        /* \"#utility.yul\":3055:3061   */\n      dup2\n        /* \"#utility.yul\":3050:3053   */\n      dup6\n        /* \"#utility.yul\":3043:3047   */\n      0x20\n        /* \"#utility.yul\":3036:3041   */\n      dup7\n        /* \"#utility.yul\":3032:3048   */\n      add\n        /* \"#utility.yul\":3010:3062   */\n      tag_111\n      jump\t// in\n    tag_119:\n        /* \"#utility.yul\":3087:3093   */\n      dup1\n        /* \"#utility.yul\":3082:3085   */\n      dup5\n        /* \"#utility.yul\":3078:3094   */\n      add\n        /* \"#utility.yul\":3071:3094   */\n      swap2\n      pop\n        /* \"#utility.yul\":2833:3100   */\n      pop\n        /* \"#utility.yul\":2723:3100   */\n      swap3\n      swap2\n      pop\n      pop\n      jump\t// out\n        /* \"#utility.yul\":3106:3472   */\n    tag_120:\n        /* \"#utility.yul\":3248:3251   */\n      0x00\n        /* \"#utility.yul\":3269:3336   */\n      tag_122\n        /* \"#utility.yul\":3333:3335   */\n      0x14\n        /* \"#utility.yul\":3328:3331   */\n      dup4\n        /* \"#utility.yul\":3269:3336   */\n      tag_109\n      jump\t// in\n    tag_122:\n        /* \"#utility.yul\":3262:3336   */\n      swap2\n      pop\n        /* \"#utility.yul\":3345:3438   */\n      tag_123\n        /* \"#utility.yul\":3434:3437   */\n      dup3\n        /* \"#utility.yul\":3345:3438   */\n      tag_124\n      jump\t// in\n    tag_123:\n        /* \"#utility.yul\":3463:3465   */\n      0x20\n        /* \"#utility.yul\":3458:3461   */\n      dup3\n        /* \"#utility.yul\":3454:3466   */\n      add\n        /* \"#utility.yul\":3447:3466   */\n      swap1\n      pop\n        /* \"#utility.yul\":3106:3472   */\n      swap2\n      swap1\n      pop\n      jump\t// out\n        /* \"#utility.yul\":3478:3596   */\n    tag_125:\n        /* \"#utility.yul\":3565:3589   */\n      tag_127\n        /* \"#utility.yul\":3583:3588   */\n      dup2\n        /* \"#utility.yul\":3565:3589   */\n      tag_128\n      jump\t// in\n    tag_127:\n        /* \"#utility.yul\":3560:3563   */\n      dup3\n        /* \"#utility.yul\":3553:3590   */\n      mstore\n        /* \"#utility.yul\":3478:3596   */\n      pop\n      pop\n      jump\t// out\n        /* \"#utility.yul\":3602:3877   */\n    tag_33:\n        /* \"#utility.yul\":3734:3737   */\n      0x00\n        /* \"#utility.yul\":3756:3851   */\n      tag_130\n        /* \"#utility.yul\":3847:3850   */\n      dup3\n        /* \"#utility.yul\":3838:3844   */\n      dup5\n        /* \"#utility.yul\":3756:3851   */\n      tag_114\n      jump\t// in\n    tag_130:\n        /* \"#utility.yul\":3749:3851   */\n      swap2\n      pop\n        /* \"#utility.yul\":3868:3871   */\n      dup2\n        /* \"#utility.yul\":3861:3871   */\n      swap1\n      pop\n        /* \"#utility.yul\":3602:3877   */\n      swap3\n      swap2\n      pop\n      pop\n      jump\t// out\n        /* \"#utility.yul\":3883:4105   */\n    tag_26:\n        /* \"#utility.yul\":3976:3980   */\n      0x00\n        /* \"#utility.yul\":4014:4016   */\n      0x20\n        /* \"#utility.yul\":4003:4012   */\n      dup3\n        /* \"#utility.yul\":3999:4017   */\n      add\n        /* \"#utility.yul\":3991:4017   */\n      swap1\n      pop\n        /* \"#utility.yul\":4027:4098   */\n      tag_132\n        /* \"#utility.yul\":4095:4096   */\n      0x00\n        /* \"#utility.yul\":4084:4093   */\n      dup4\n        /* \"#utility.yul\":4080:4097   */\n      add\n        /* \"#utility.yul\":4071:4077   */\n      dup5\n        /* \"#utility.yul\":4027:4098   */\n      tag_96\n      jump\t// in\n    tag_132:\n        /* \"#utility.yul\":3883:4105   */\n      swap3\n      swap2\n      pop\n      pop\n      jump\t// out\n        /* \"#utility.yul\":4111:4333   */\n    tag_35:\n        /* \"#utility.yul\":4204:4208   */\n      0x00\n        /* \"#utility.yul\":4242:4244   */\n      0x20\n        /* \"#utility.yul\":4231:4240   */\n      dup3\n        /* \"#utility.yul\":4227:4245   */\n      add\n        /* \"#utility.yul\":4219:4245   */\n      swap1\n      pop\n        /* \"#utility.yul\":4255:4326   */\n      tag_134\n        /* \"#utility.yul\":4323:4324   */\n      0x00\n        /* \"#utility.yul\":4312:4321   */\n      dup4\n        /* \"#utility.yul\":4308:4325   */\n      add\n        /* \"#utility.yul\":4299:4305   */\n      dup5\n        /* \"#utility.yul\":4255:4326   */\n      tag_100\n      jump\t// in\n    tag_134:\n        /* \"#utility.yul\":4111:4333   */\n      swap3\n      swap2\n      pop\n      pop\n      jump\t// out\n        /* \"#utility.yul\":4339:4652   */\n    tag_45:\n        /* \"#utility.yul\":4452:4456   */\n      0x00\n        /* \"#utility.yul\":4490:4492   */\n      0x20\n        /* \"#utility.yul\":4479:4488   */\n      dup3\n        /* \"#utility.yul\":4475:4493   */\n      add\n        /* \"#utility.yul\":4467:4493   */\n      swap1\n      pop\n        /* \"#utility.yul\":4539:4548   */\n      dup2\n        /* \"#utility.yul\":4533:4537   */\n      dup2\n        /* \"#utility.yul\":4529:4549   */\n      sub\n        /* \"#utility.yul\":4525:4526   */\n      0x00\n        /* \"#utility.yul\":4514:4523   */\n      dup4\n        /* \"#utility.yul\":4510:4527   */\n      add\n        /* \"#utility.yul\":4503:4550   */\n      mstore\n        /* \"#utility.yul\":4567:4645   */\n      tag_136\n        /* \"#utility.yul\":4640:4644   */\n      dup2\n        /* \"#utility.yul\":4631:4637   */\n      dup5\n        /* \"#utility.yul\":4567:4645   */\n      tag_104\n      jump\t// in\n    tag_136:\n        /* \"#utility.yul\":4559:4645   */\n      swap1\n      pop\n        /* \"#utility.yul\":4339:4652   */\n      swap3\n      swap2\n      pop\n      pop\n      jump\t// out\n        /* \"#utility.yul\":4658:5077   */\n    tag_30:\n        /* \"#utility.yul\":4824:4828   */\n      0x00\n        /* \"#utility.yul\":4862:4864   */\n      0x20\n        /* \"#utility.yul\":4851:4860   */\n      dup3\n        /* \"#utility.yul\":4847:4865   */\n      add\n        /* \"#utility.yul\":4839:4865   */\n      swap1\n      pop\n        /* \"#utility.yul\":4911:4920   */\n      dup2\n        /* \"#utility.yul\":4905:4909   */\n      dup2\n        /* \"#utility.yul\":4901:4921   */\n      sub\n        /* \"#utility.yul\":4897:4898   */\n      0x00\n        /* \"#utility.yul\":4886:4895   */\n      dup4\n        /* \"#utility.yul\":4882:4899   */\n      add\n        /* \"#utility.yul\":4875:4922   */\n      mstore\n        /* \"#utility.yul\":4939:5070   */\n      tag_138\n        /* \"#utility.yul\":5065:5069   */\n      dup2\n        /* \"#utility.yul\":4939:5070   */\n      tag_120\n      jump\t// in\n    tag_138:\n        /* \"#utility.yul\":4931:5070   */\n      swap1\n      pop\n        /* \"#utility.yul\":4658:5077   */\n      swap2\n      swap1\n      pop\n      jump\t// out\n        /* \"#utility.yul\":5083:5305   */\n    tag_22:\n        /* \"#utility.yul\":5176:5180   */\n      0x00\n        /* \"#utility.yul\":5214:5216   */\n      0x20\n        /* \"#utility.yul\":5203:5212   */\n      dup3\n        /* \"#utility.yul\":5199:5217   */\n      add\n        /* \"#utility.yul\":5191:5217   */\n      swap1\n      pop\n        /* \"#utility.yul\":5227:5298   */\n      tag_140\n        /* \"#utility.yul\":5295:5296   */\n      0x00\n        /* \"#utility.yul\":5284:5293   */\n      dup4\n        /* \"#utility.yul\":5280:5297   */\n      add\n        /* \"#utility.yul\":5271:5277   */\n      dup5\n        /* \"#utility.yul\":5227:5298   */\n      tag_125\n      jump\t// in\n    tag_140:\n        /* \"#utility.yul\":5083:5305   */\n      swap3\n      swap2\n      pop\n      pop\n      jump\t// out\n        /* \"#utility.yul\":5311:5440   */\n    tag_65:\n        /* \"#utility.yul\":5345:5351   */\n      0x00\n        /* \"#utility.yul\":5372:5392   */\n      tag_142\n      tag_143\n      jump\t// in\n    tag_142:\n        /* \"#utility.yul\":5362:5392   */\n      swap1\n      pop\n        /* \"#utility.yul\":5401:5434   */\n      tag_144\n        /* \"#utility.yul\":5429:5433   */\n      dup3\n        /* \"#utility.yul\":5421:5427   */\n      dup3\n        /* \"#utility.yul\":5401:5434   */\n      tag_145\n      jump\t// in\n    tag_144:\n        /* \"#utility.yul\":5311:5440   */\n      swap2\n      swap1\n      pop\n      jump\t// out\n        /* \"#utility.yul\":5446:5521   */\n    tag_143:\n        /* \"#utility.yul\":5479:5485   */\n      0x00\n        /* \"#utility.yul\":5512:5514   */\n      0x40\n        /* \"#utility.yul\":5506:5515   */\n      mload\n        /* \"#utility.yul\":5496:5515   */\n      swap1\n      pop\n        /* \"#utility.yul\":5446:5521   */\n      swap1\n      jump\t// out\n        /* \"#utility.yul\":5527:5835   */\n    tag_64:\n        /* \"#utility.yul\":5589:5593   */\n      0x00\n        /* \"#utility.yul\":5679:5697   */\n      0xffffffffffffffff\n        /* \"#utility.yul\":5671:5677   */\n      dup3\n        /* \"#utility.yul\":5668:5698   */\n      gt\n        /* \"#utility.yul\":5665:5721   */\n      iszero\n      tag_148\n      jumpi\n        /* \"#utility.yul\":5701:5719   */\n      tag_149\n      tag_150\n      jump\t// in\n    tag_149:\n        /* \"#utility.yul\":5665:5721   */\n    tag_148:\n        /* \"#utility.yul\":5739:5768   */\n      tag_151\n        /* \"#utility.yul\":5761:5767   */\n      dup3\n        /* \"#utility.yul\":5739:5768   */\n      tag_113\n      jump\t// in\n    tag_151:\n        /* \"#utility.yul\":5731:5768   */\n      swap1\n      pop\n        /* \"#utility.yul\":5823:5827   */\n      0x20\n        /* \"#utility.yul\":5817:5821   */\n      dup2\n        /* \"#utility.yul\":5813:5828   */\n      add\n        /* \"#utility.yul\":5805:5828   */\n      swap1\n      pop\n        /* \"#utility.yul\":5527:5835   */\n      swap2\n      swap1\n      pop\n      jump\t// out\n        /* \"#utility.yul\":5841:5940   */\n    tag_107:\n        /* \"#utility.yul\":5893:5899   */\n      0x00\n        /* \"#utility.yul\":5927:5932   */\n      dup2\n        /* \"#utility.yul\":5921:5933   */\n      mload\n        /* \"#utility.yul\":5911:5933   */\n      swap1\n      pop\n        /* \"#utility.yul\":5841:5940   */\n      swap2\n      swap1\n      pop\n      jump\t// out\n        /* \"#utility.yul\":5946:6115   */\n    tag_109:\n        /* \"#utility.yul\":6030:6041   */\n      0x00\n        /* \"#utility.yul\":6064:6070   */\n      dup3\n        /* \"#utility.yul\":6059:6062   */\n      dup3\n        /* \"#utility.yul\":6052:6071   */\n      mstore\n        /* \"#utility.yul\":6104:6108   */\n      0x20\n        /* \"#utility.yul\":6099:6102   */\n      dup3\n        /* \"#utility.yul\":6095:6109   */\n      add\n        /* \"#utility.yul\":6080:6109   */\n      swap1\n      pop\n        /* \"#utility.yul\":5946:6115   */\n      swap3\n      swap2\n      pop\n      pop\n      jump\t// out\n        /* \"#utility.yul\":6121:6269   */\n    tag_118:\n        /* \"#utility.yul\":6223:6234   */\n      0x00\n        /* \"#utility.yul\":6260:6263   */\n      dup2\n        /* \"#utility.yul\":6245:6263   */\n      swap1\n      pop\n        /* \"#utility.yul\":6121:6269   */\n      swap3\n      swap2\n      pop\n      pop\n      jump\t// out\n        /* \"#utility.yul\":6275:6371   */\n    tag_99:\n        /* \"#utility.yul\":6312:6319   */\n      0x00\n        /* \"#utility.yul\":6341:6365   */\n      tag_156\n        /* \"#utility.yul\":6359:6364   */\n      dup3\n        /* \"#utility.yul\":6341:6365   */\n      tag_157\n      jump\t// in\n    tag_156:\n        /* \"#utility.yul\":6330:6365   */\n      swap1\n      pop\n        /* \"#utility.yul\":6275:6371   */\n      swap2\n      swap1\n      pop\n      jump\t// out\n        /* \"#utility.yul\":6377:6454   */\n    tag_103:\n        /* \"#utility.yul\":6414:6421   */\n      0x00\n        /* \"#utility.yul\":6443:6448   */\n      dup2\n        /* \"#utility.yul\":6432:6448   */\n      swap1\n      pop\n        /* \"#utility.yul\":6377:6454   */\n      swap2\n      swap1\n      pop\n      jump\t// out\n        /* \"#utility.yul\":6460:6586   */\n    tag_157:\n        /* \"#utility.yul\":6497:6504   */\n      0x00\n        /* \"#utility.yul\":6537:6579   */\n      0xffffffffffffffffffffffffffffffffffffffff\n        /* \"#utility.yul\":6530:6535   */\n      dup3\n        /* \"#utility.yul\":6526:6580   */\n      and\n        /* \"#utility.yul\":6515:6580   */\n      swap1\n      pop\n        /* \"#utility.yul\":6460:6586   */\n      swap2\n      swap1\n      pop\n      jump\t// out\n        /* \"#utility.yul\":6592:6669   */\n    tag_128:\n        /* \"#utility.yul\":6629:6636   */\n      0x00\n        /* \"#utility.yul\":6658:6663   */\n      dup2\n        /* \"#utility.yul\":6647:6663   */\n      swap1\n      pop\n        /* \"#utility.yul\":6592:6669   */\n      swap2\n      swap1\n      pop\n      jump\t// out\n        /* \"#utility.yul\":6675:6829   */\n    tag_70:\n        /* \"#utility.yul\":6759:6765   */\n      dup3\n        /* \"#utility.yul\":6754:6757   */\n      dup2\n        /* \"#utility.yul\":6749:6752   */\n      dup4\n        /* \"#utility.yul\":6736:6766   */\n      calldatacopy\n        /* \"#utility.yul\":6821:6822   */\n      0x00\n        /* \"#utility.yul\":6812:6818   */\n      dup4\n        /* \"#utility.yul\":6807:6810   */\n      dup4\n        /* \"#utility.yul\":6803:6819   */\n      add\n        /* \"#utility.yul\":6796:6823   */\n      mstore\n        /* \"#utility.yul\":6675:6829   */\n      pop\n      pop\n      pop\n      jump\t// out\n        /* \"#utility.yul\":6835:7142   */\n    tag_111:\n        /* \"#utility.yul\":6903:6904   */\n      0x00\n        /* \"#utility.yul\":6913:7026   */\n    tag_163:\n        /* \"#utility.yul\":6927:6933   */\n      dup4\n        /* \"#utility.yul\":6924:6925   */\n      dup2\n        /* \"#utility.yul\":6921:6934   */\n      lt\n        /* \"#utility.yul\":6913:7026   */\n      iszero\n      tag_165\n      jumpi\n        /* \"#utility.yul\":7012:7013   */\n      dup1\n        /* \"#utility.yul\":7007:7010   */\n      dup3\n        /* \"#utility.yul\":7003:7014   */\n      add\n        /* \"#utility.yul\":6997:7015   */\n      mload\n        /* \"#utility.yul\":6993:6994   */\n      dup2\n        /* \"#utility.yul\":6988:6991   */\n      dup5\n        /* \"#utility.yul\":6984:6995   */\n      add\n        /* \"#utility.yul\":6977:7016   */\n      mstore\n        /* \"#utility.yul\":6949:6951   */\n      0x20\n        /* \"#utility.yul\":6946:6947   */\n      dup2\n        /* \"#utility.yul\":6942:6952   */\n      add\n        /* \"#utility.yul\":6937:6952   */\n      swap1\n      pop\n        /* \"#utility.yul\":6913:7026   */\n      jump(tag_163)\n    tag_165:\n        /* \"#utility.yul\":7044:7050   */\n      dup4\n        /* \"#utility.yul\":7041:7042   */\n      dup2\n        /* \"#utility.yul\":7038:7051   */\n      gt\n        /* \"#utility.yul\":7035:7136   */\n      iszero\n      tag_166\n      jumpi\n        /* \"#utility.yul\":7124:7125   */\n      0x00\n        /* \"#utility.yul\":7115:7121   */\n      dup5\n        /* \"#utility.yul\":7110:7113   */\n      dup5\n        /* \"#utility.yul\":7106:7122   */\n      add\n        /* \"#utility.yul\":7099:7126   */\n      mstore\n        /* \"#utility.yul\":7035:7136   */\n    tag_166:\n        /* \"#utility.yul\":6884:7142   */\n      pop\n        /* \"#utility.yul\":6835:7142   */\n      pop\n      pop\n      pop\n      jump\t// out\n        /* \"#utility.yul\":7148:7468   */\n    tag_49:\n        /* \"#utility.yul\":7192:7198   */\n      0x00\n        /* \"#utility.yul\":7229:7230   */\n      0x02\n        /* \"#utility.yul\":7223:7227   */\n      dup3\n        /* \"#utility.yul\":7219:7231   */\n      div\n        /* \"#utility.yul\":7209:7231   */\n      swap1\n      pop\n        /* \"#utility.yul\":7276:7277   */\n      0x01\n        /* \"#utility.yul\":7270:7274   */\n      dup3\n        /* \"#utility.yul\":7266:7278   */\n      and\n        /* \"#utility.yul\":7297:7315   */\n      dup1\n        /* \"#utility.yul\":7287:7368   */\n      tag_168\n      jumpi\n        /* \"#utility.yul\":7353:7357   */\n      0x7f\n        /* \"#utility.yul\":7345:7351   */\n      dup3\n        /* \"#utility.yul\":7341:7358   */\n      and\n        /* \"#utility.yul\":7331:7358   */\n      swap2\n      pop\n        /* \"#utility.yul\":7287:7368   */\n    tag_168:\n        /* \"#utility.yul\":7415:7417   */\n      0x20\n        /* \"#utility.yul\":7407:7413   */\n      dup3\n        /* \"#utility.yul\":7404:7418   */\n      lt\n        /* \"#utility.yul\":7384:7402   */\n      dup2\n        /* \"#utility.yul\":7381:7419   */\n      eq\n        /* \"#utility.yul\":7378:7462   */\n      iszero\n      tag_169\n      jumpi\n        /* \"#utility.yul\":7434:7452   */\n      tag_170\n      tag_171\n      jump\t// in\n    tag_170:\n        /* \"#utility.yul\":7378:7462   */\n    tag_169:\n        /* \"#utility.yul\":7199:7468   */\n      pop\n        /* \"#utility.yul\":7148:7468   */\n      swap2\n      swap1\n      pop\n      jump\t// out\n        /* \"#utility.yul\":7474:7755   */\n    tag_145:\n        /* \"#utility.yul\":7557:7584   */\n      tag_173\n        /* \"#utility.yul\":7579:7583   */\n      dup3\n        /* \"#utility.yul\":7557:7584   */\n      tag_113\n      jump\t// in\n    tag_173:\n        /* \"#utility.yul\":7549:7555   */\n      dup2\n        /* \"#utility.yul\":7545:7585   */\n      add\n        /* \"#utility.yul\":7687:7693   */\n      dup2\n        /* \"#utility.yul\":7675:7685   */\n      dup2\n        /* \"#utility.yul\":7672:7694   */\n      lt\n        /* \"#utility.yul\":7651:7669   */\n      0xffffffffffffffff\n        /* \"#utility.yul\":7639:7649   */\n      dup3\n        /* \"#utility.yul\":7636:7670   */\n      gt\n        /* \"#utility.yul\":7633:7695   */\n      or\n        /* \"#utility.yul\":7630:7718   */\n      iszero\n      tag_174\n      jumpi\n        /* \"#utility.yul\":7698:7716   */\n      tag_175\n      tag_150\n      jump\t// in\n    tag_175:\n        /* \"#utility.yul\":7630:7718   */\n    tag_174:\n        /* \"#utility.yul\":7738:7748   */\n      dup1\n        /* \"#utility.yul\":7734:7736   */\n      0x40\n        /* \"#utility.yul\":7727:7749   */\n      mstore\n        /* \"#utility.yul\":7517:7755   */\n      pop\n        /* \"#utility.yul\":7474:7755   */\n      pop\n      pop\n      jump\t// out\n        /* \"#utility.yul\":7761:7941   */\n    tag_171:\n        /* \"#utility.yul\":7809:7886   */\n      0x4e487b7100000000000000000000000000000000000000000000000000000000\n        /* \"#utility.yul\":7806:7807   */\n      0x00\n        /* \"#utility.yul\":7799:7887   */\n      mstore\n        /* \"#utility.yul\":7906:7910   */\n      0x22\n        /* \"#utility.yul\":7903:7904   */\n      0x04\n        /* \"#utility.yul\":7896:7911   */\n      mstore\n        /* \"#utility.yul\":7930:7934   */\n      0x24\n        /* \"#utility.yul\":7927:7928   */\n      0x00\n        /* \"#utility.yul\":7920:7935   */\n      revert\n        /* \"#utility.yul\":7947:8127   */\n    tag_150:\n        /* \"#utility.yul\":7995:8072   */\n      0x4e487b7100000000000000000000000000000000000000000000000000000000\n        /* \"#utility.yul\":7992:7993   */\n      0x00\n        /* \"#utility.yul\":7985:8073   */\n      mstore\n        /* \"#utility.yul\":8092:8096   */\n      0x41\n        /* \"#utility.yul\":8089:8090   */\n      0x04\n        /* \"#utility.yul\":8082:8097   */\n      mstore\n        /* \"#utility.yul\":8116:8120   */\n      0x24\n        /* \"#utility.yul\":8113:8114   */\n      0x00\n        /* \"#utility.yul\":8106:8121   */\n      revert\n        /* \"#utility.yul\":8133:8250   */\n    tag_75:\n        /* \"#utility.yul\":8242:8243   */\n      0x00\n        /* \"#utility.yul\":8239:8240   */\n      dup1\n        /* \"#utility.yul\":8232:8244   */\n      revert\n        /* \"#utility.yul\":8256:8373   */\n    tag_68:\n        /* \"#utility.yul\":8365:8366   */\n      0x00\n        /* \"#utility.yul\":8362:8363   */\n      dup1\n        /* \"#utility.yul\":8355:8367   */\n      revert\n        /* \"#utility.yul\":8379:8496   */\n    tag_87:\n        /* \"#utility.yul\":8488:8489   */\n      0x00\n        /* \"#utility.yul\":8485:8486   */\n      dup1\n        /* \"#utility.yul\":8478:8490   */\n      revert\n        /* \"#utility.yul\":8502:8619   */\n    tag_84:\n        /* \"#utility.yul\":8611:8612   */\n      0x00\n        /* \"#utility.yul\":8608:8609   */\n      dup1\n        /* \"#utility.yul\":8601:8613   */\n      revert\n        /* \"#utility.yul\":8625:8727   */\n    tag_113:\n        /* \"#utility.yul\":8666:8672   */\n      0x00\n        /* \"#utility.yul\":8717:8719   */\n      0x1f\n        /* \"#utility.yul\":8713:8720   */\n      not\n        /* \"#utility.yul\":8708:8710   */\n      0x1f\n        /* \"#utility.yul\":8701:8706   */\n      dup4\n        /* \"#utility.yul\":8697:8711   */\n      add\n        /* \"#utility.yul\":8693:8721   */\n      and\n        /* \"#utility.yul\":8683:8721   */\n      swap1\n      pop\n        /* \"#utility.yul\":8625:8727   */\n      swap2\n      swap1\n      pop\n      jump\t// out\n        /* \"#utility.yul\":8733:8903   */\n    tag_124:\n        /* \"#utility.yul\":8873:8895   */\n      0x4e6f206572657320656c2070726f6665736f722e000000000000000000000000\n        /* \"#utility.yul\":8869:8870   */\n      0x00\n        /* \"#utility.yul\":8861:8867   */\n      dup3\n        /* \"#utility.yul\":8857:8871   */\n      add\n        /* \"#utility.yul\":8850:8896   */\n      mstore\n        /* \"#utility.yul\":8733:8903   */\n      pop\n      jump\t// out\n        /* \"#utility.yul\":8909:9031   */\n    tag_80:\n        /* \"#utility.yul\":8982:9006   */\n      tag_185\n        /* \"#utility.yul\":9000:9005   */\n      dup2\n        /* \"#utility.yul\":8982:9006   */\n      tag_128\n      jump\t// in\n    tag_185:\n        /* \"#utility.yul\":8975:8980   */\n      dup2\n        /* \"#utility.yul\":8972:9007   */\n      eq\n        /* \"#utility.yul\":8962:9025   */\n      tag_186\n      jumpi\n        /* \"#utility.yul\":9021:9022   */\n      0x00\n        /* \"#utility.yul\":9018:9019   */\n      dup1\n        /* \"#utility.yul\":9011:9023   */\n      revert\n        /* \"#utility.yul\":8962:9025   */\n    tag_186:\n        /* \"#utility.yul\":8909:9031   */\n      pop\n      jump\t// out\n\n    auxdata: 0xa2646970667358221220f392aebb5fae7bfc158b5de40775fc899f97896085c1177eb0834eafa813505964736f6c63430008070033\n}\n",
				"bytecode": {
					"linkReferences": {},
					"object": "608060405234801561001057600080fd5b50336000806101000a81548173ffffffffffffffffffffffffffffffffffffffff021916908373ffffffffffffffffffffffffffffffffffffffff160217905550610907806100606000396000f3fe608060405234801561001057600080fd5b50600436106100575760003560e01c8063383bebae1461005c5780637345fc2014610078578063ca981d9114610082578063deafddae1461009e578063df096576146100ce575b600080fd5b610076600480360381019061007191906104e6565b6100ec565b005b6100806101fb565b005b61009c6004803603810190610097919061049d565b61028d565b005b6100b860048036038101906100b3919061049d565b610303565b6040516100c5919061068b565b60405180910390f35b6100d6610351565b6040516100e39190610613565b60405180910390f35b3360008054906101000a900473ffffffffffffffffffffffffffffffffffffffff1673ffffffffffffffffffffffffffffffffffffffff168173ffffffffffffffffffffffffffffffffffffffff161461017b576040517f08c379a00000000000000000000000000000000000000000000000000000000081526004016101729061066b565b60405180910390fd5b60008360405160200161018e91906105fc565b6040516020818303038152906040528051906020012090508260016000838152602001908152602001600020819055507f9129eeeb684507aca017f10030b70e5bf86d129f417fcc5840348a957eb12cee816040516101ed919061062e565b60405180910390a150505050565b3360008054906101000a900473ffffffffffffffffffffffffffffffffffffffff1673ffffffffffffffffffffffffffffffffffffffff168173ffffffffffffffffffffffffffffffffffffffff161461028a576040517f08c379a00000000000000000000000000000000000000000000000000000000081526004016102819061066b565b60405180910390fd5b50565b6002819080600181540180825580915050600190039060005260206000200160009091909190915090805190602001906102c8929190610375565b507fafd73f39162aa4c0421f362f3a3d26f44b23c73253256cfc1c68794b0973e0a0816040516102f89190610649565b60405180910390a150565b6000808260405160200161031791906105fc565b6040516020818303038152906040528051906020012090506000600160008381526020019081526020016000205490508092505050919050565b60008054906101000a900473ffffffffffffffffffffffffffffffffffffffff1681565b828054610381906107ab565b90600052602060002090601f0160209004810192826103a357600085556103ea565b82601f106103bc57805160ff19168380011785556103ea565b828001600101855582156103ea579182015b828111156103e95782518255916020019190600101906103ce565b5b5090506103f791906103fb565b5090565b5b808211156104145760008160009055506001016103fc565b5090565b600061042b610426846106cb565b6106a6565b90508281526020810184848401111561044757610446610871565b5b610452848285610769565b509392505050565b600082601f83011261046f5761046e61086c565b5b813561047f848260208601610418565b91505092915050565b600081359050610497816108ba565b92915050565b6000602082840312156104b3576104b261087b565b5b600082013567ffffffffffffffff8111156104d1576104d0610876565b5b6104dd8482850161045a565b91505092915050565b600080604083850312156104fd576104fc61087b565b5b600083013567ffffffffffffffff81111561051b5761051a610876565b5b6105278582860161045a565b925050602061053885828601610488565b9150509250929050565b61054b81610723565b82525050565b61055a81610735565b82525050565b600061056b826106fc565b6105758185610707565b9350610585818560208601610778565b61058e81610880565b840191505092915050565b60006105a4826106fc565b6105ae8185610718565b93506105be818560208601610778565b80840191505092915050565b60006105d7601483610707565b91506105e282610891565b602082019050919050565b6105f68161075f565b82525050565b60006106088284610599565b915081905092915050565b60006020820190506106286000830184610542565b92915050565b60006020820190506106436000830184610551565b92915050565b600060208201905081810360008301526106638184610560565b905092915050565b60006020820190508181036000830152610684816105ca565b9050919050565b60006020820190506106a060008301846105ed565b92915050565b60006106b06106c1565b90506106bc82826107dd565b919050565b6000604051905090565b600067ffffffffffffffff8211156106e6576106e561083d565b5b6106ef82610880565b9050602081019050919050565b600081519050919050565b600082825260208201905092915050565b600081905092915050565b600061072e8261073f565b9050919050565b6000819050919050565b600073ffffffffffffffffffffffffffffffffffffffff82169050919050565b6000819050919050565b82818337600083830152505050565b60005b8381101561079657808201518184015260208101905061077b565b838111156107a5576000848401525b50505050565b600060028204905060018216806107c357607f821691505b602082108114156107d7576107d661080e565b5b50919050565b6107e682610880565b810181811067ffffffffffffffff821117156108055761080461083d565b5b80604052505050565b7f4e487b7100000000000000000000000000000000000000000000000000000000600052602260045260246000fd5b7f4e487b7100000000000000000000000000000000000000000000000000000000600052604160045260246000fd5b600080fd5b600080fd5b600080fd5b600080fd5b6000601f19601f8301169050919050565b7f4e6f206572657320656c2070726f6665736f722e000000000000000000000000600082015250565b6108c38161075f565b81146108ce57600080fd5b5056fea2646970667358221220f392aebb5fae7bfc158b5de40775fc899f97896085c1177eb0834eafa813505964736f6c63430008070033",
					"opcodes": "PUSH1 0x80 PUSH1 0x40 MSTORE CALLVALUE DUP1 ISZERO PUSH2 0x10 JUMPI PUSH1 0x0 DUP1 REVERT JUMPDEST POP CALLER PUSH1 0x0 DUP1 PUSH2 0x100 EXP DUP2 SLOAD DUP2 PUSH20 0xFFFFFFFFFFFFFFFFFFFFFFFFFFFFFFFFFFFFFFFF MUL NOT AND SWAP1 DUP4 PUSH20 0xFFFFFFFFFFFFFFFFFFFFFFFFFFFFFFFFFFFFFFFF AND MUL OR SWAP1 SSTORE POP PUSH2 0x907 DUP1 PUSH2 0x60 PUSH1 0x0 CODECOPY PUSH1 0x0 RETURN INVALID PUSH1 0x80 PUSH1 0x40 MSTORE CALLVALUE DUP1 ISZERO PUSH2 0x10 JUMPI PUSH1 0x0 DUP1 REVERT JUMPDEST POP PUSH1 0x4 CALLDATASIZE LT PUSH2 0x57 JUMPI PUSH1 0x0 CALLDATALOAD PUSH1 0xE0 SHR DUP1 PUSH4 0x383BEBAE EQ PUSH2 0x5C JUMPI DUP1 PUSH4 0x7345FC20 EQ PUSH2 0x78 JUMPI DUP1 PUSH4 0xCA981D91 EQ PUSH2 0x82 JUMPI DUP1 PUSH4 0xDEAFDDAE EQ PUSH2 0x9E JUMPI DUP1 PUSH4 0xDF096576 EQ PUSH2 0xCE JUMPI JUMPDEST PUSH1 0x0 DUP1 REVERT JUMPDEST PUSH2 0x76 PUSH1 0x4 DUP1 CALLDATASIZE SUB DUP2 ADD SWAP1 PUSH2 0x71 SWAP2 SWAP1 PUSH2 0x4E6 JUMP JUMPDEST PUSH2 0xEC JUMP JUMPDEST STOP JUMPDEST PUSH2 0x80 PUSH2 0x1FB JUMP JUMPDEST STOP JUMPDEST PUSH2 0x9C PUSH1 0x4 DUP1 CALLDATASIZE SUB DUP2 ADD SWAP1 PUSH2 0x97 SWAP2 SWAP1 PUSH2 0x49D JUMP JUMPDEST PUSH2 0x28D JUMP JUMPDEST STOP JUMPDEST PUSH2 0xB8 PUSH1 0x4 DUP1 CALLDATASIZE SUB DUP2 ADD SWAP1 PUSH2 0xB3 SWAP2 SWAP1 PUSH2 0x49D JUMP JUMPDEST PUSH2 0x303 JUMP JUMPDEST PUSH1 0x40 MLOAD PUSH2 0xC5 SWAP2 SWAP1 PUSH2 0x68B JUMP JUMPDEST PUSH1 0x40 MLOAD DUP1 SWAP2 SUB SWAP1 RETURN JUMPDEST PUSH2 0xD6 PUSH2 0x351 JUMP JUMPDEST PUSH1 0x40 MLOAD PUSH2 0xE3 SWAP2 SWAP1 PUSH2 0x613 JUMP JUMPDEST PUSH1 0x40 MLOAD DUP1 SWAP2 SUB SWAP1 RETURN JUMPDEST CALLER PUSH1 0x0 DUP1 SLOAD SWAP1 PUSH2 0x100 EXP SWAP1 DIV PUSH20 0xFFFFFFFFFFFFFFFFFFFFFFFFFFFFFFFFFFFFFFFF AND PUSH20 0xFFFFFFFFFFFFFFFFFFFFFFFFFFFFFFFFFFFFFFFF AND DUP2 PUSH20 0xFFFFFFFFFFFFFFFFFFFFFFFFFFFFFFFFFFFFFFFF AND EQ PUSH2 0x17B JUMPI PUSH1 0x40 MLOAD PUSH32 0x8C379A000000000000000000000000000000000000000000000000000000000 DUP2 MSTORE PUSH1 0x4 ADD PUSH2 0x172 SWAP1 PUSH2 0x66B JUMP JUMPDEST PUSH1 0x40 MLOAD DUP1 SWAP2 SUB SWAP1 REVERT JUMPDEST PUSH1 0x0 DUP4 PUSH1 0x40 MLOAD PUSH1 0x20 ADD PUSH2 0x18E SWAP2 SWAP1 PUSH2 0x5FC JUMP JUMPDEST PUSH1 0x40 MLOAD PUSH1 0x20 DUP2 DUP4 SUB SUB DUP2 MSTORE SWAP1 PUSH1 0x40 MSTORE DUP1 MLOAD SWAP1 PUSH1 0x20 ADD KECCAK256 SWAP1 POP DUP3 PUSH1 0x1 PUSH1 0x0 DUP4 DUP2 MSTORE PUSH1 0x20 ADD SWAP1 DUP2 MSTORE PUSH1 0x20 ADD PUSH1 0x0 KECCAK256 DUP2 SWAP1 SSTORE POP PUSH32 0x9129EEEB684507ACA017F10030B70E5BF86D129F417FCC5840348A957EB12CEE DUP2 PUSH1 0x40 MLOAD PUSH2 0x1ED SWAP2 SWAP1 PUSH2 0x62E JUMP JUMPDEST PUSH1 0x40 MLOAD DUP1 SWAP2 SUB SWAP1 LOG1 POP POP POP POP JUMP JUMPDEST CALLER PUSH1 0x0 DUP1 SLOAD SWAP1 PUSH2 0x100 EXP SWAP1 DIV PUSH20 0xFFFFFFFFFFFFFFFFFFFFFFFFFFFFFFFFFFFFFFFF AND PUSH20 0xFFFFFFFFFFFFFFFFFFFFFFFFFFFFFFFFFFFFFFFF AND DUP2 PUSH20 0xFFFFFFFFFFFFFFFFFFFFFFFFFFFFFFFFFFFFFFFF AND EQ PUSH2 0x28A JUMPI PUSH1 0x40 MLOAD PUSH32 0x8C379A000000000000000000000000000000000000000000000000000000000 DUP2 MSTORE PUSH1 0x4 ADD PUSH2 0x281 SWAP1 PUSH2 0x66B JUMP JUMPDEST PUSH1 0x40 MLOAD DUP1 SWAP2 SUB SWAP1 REVERT JUMPDEST POP JUMP JUMPDEST PUSH1 0x2 DUP2 SWAP1 DUP1 PUSH1 0x1 DUP2 SLOAD ADD DUP1 DUP3 SSTORE DUP1 SWAP2 POP POP PUSH1 0x1 SWAP1 SUB SWAP1 PUSH1 0x0 MSTORE PUSH1 0x20 PUSH1 0x0 KECCAK256 ADD PUSH1 0x0 SWAP1 SWAP2 SWAP1 SWAP2 SWAP1 SWAP2 POP SWAP1 DUP1 MLOAD SWAP1 PUSH1 0x20 ADD SWAP1 PUSH2 0x2C8 SWAP3 SWAP2 SWAP1 PUSH2 0x375 JUMP JUMPDEST POP PUSH32 0xAFD73F39162AA4C0421F362F3A3D26F44B23C73253256CFC1C68794B0973E0A0 DUP2 PUSH1 0x40 MLOAD PUSH2 0x2F8 SWAP2 SWAP1 PUSH2 0x649 JUMP JUMPDEST PUSH1 0x40 MLOAD DUP1 SWAP2 SUB SWAP1 LOG1 POP JUMP JUMPDEST PUSH1 0x0 DUP1 DUP3 PUSH1 0x40 MLOAD PUSH1 0x20 ADD PUSH2 0x317 SWAP2 SWAP1 PUSH2 0x5FC JUMP JUMPDEST PUSH1 0x40 MLOAD PUSH1 0x20 DUP2 DUP4 SUB SUB DUP2 MSTORE SWAP1 PUSH1 0x40 MSTORE DUP1 MLOAD SWAP1 PUSH1 0x20 ADD KECCAK256 SWAP1 POP PUSH1 0x0 PUSH1 0x1 PUSH1 0x0 DUP4 DUP2 MSTORE PUSH1 0x20 ADD SWAP1 DUP2 MSTORE PUSH1 0x20 ADD PUSH1 0x0 KECCAK256 SLOAD SWAP1 POP DUP1 SWAP3 POP POP POP SWAP2 SWAP1 POP JUMP JUMPDEST PUSH1 0x0 DUP1 SLOAD SWAP1 PUSH2 0x100 EXP SWAP1 DIV PUSH20 0xFFFFFFFFFFFFFFFFFFFFFFFFFFFFFFFFFFFFFFFF AND DUP2 JUMP JUMPDEST DUP3 DUP1 SLOAD PUSH2 0x381 SWAP1 PUSH2 0x7AB JUMP JUMPDEST SWAP1 PUSH1 0x0 MSTORE PUSH1 0x20 PUSH1 0x0 KECCAK256 SWAP1 PUSH1 0x1F ADD PUSH1 0x20 SWAP1 DIV DUP2 ADD SWAP3 DUP3 PUSH2 0x3A3 JUMPI PUSH1 0x0 DUP6 SSTORE PUSH2 0x3EA JUMP JUMPDEST DUP3 PUSH1 0x1F LT PUSH2 0x3BC JUMPI DUP1 MLOAD PUSH1 0xFF NOT AND DUP4 DUP1 ADD OR DUP6 SSTORE PUSH2 0x3EA JUMP JUMPDEST DUP3 DUP1 ADD PUSH1 0x1 ADD DUP6 SSTORE DUP3 ISZERO PUSH2 0x3EA JUMPI SWAP2 DUP3 ADD JUMPDEST DUP3 DUP2 GT ISZERO PUSH2 0x3E9 JUMPI DUP3 MLOAD DUP3 SSTORE SWAP2 PUSH1 0x20 ADD SWAP2 SWAP1 PUSH1 0x1 ADD SWAP1 PUSH2 0x3CE JUMP JUMPDEST JUMPDEST POP SWAP1 POP PUSH2 0x3F7 SWAP2 SWAP1 PUSH2 0x3FB JUMP JUMPDEST POP SWAP1 JUMP JUMPDEST JUMPDEST DUP1 DUP3 GT ISZERO PUSH2 0x414 JUMPI PUSH1 0x0 DUP2 PUSH1 0x0 SWAP1 SSTORE POP PUSH1 0x1 ADD PUSH2 0x3FC JUMP JUMPDEST POP SWAP1 JUMP JUMPDEST PUSH1 0x0 PUSH2 0x42B PUSH2 0x426 DUP5 PUSH2 0x6CB JUMP JUMPDEST PUSH2 0x6A6 JUMP JUMPDEST SWAP1 POP DUP3 DUP2 MSTORE PUSH1 0x20 DUP2 ADD DUP5 DUP5 DUP5 ADD GT ISZERO PUSH2 0x447 JUMPI PUSH2 0x446 PUSH2 0x871 JUMP JUMPDEST JUMPDEST PUSH2 0x452 DUP5 DUP3 DUP6 PUSH2 0x769 JUMP JUMPDEST POP SWAP4 SWAP3 POP POP POP JUMP JUMPDEST PUSH1 0x0 DUP3 PUSH1 0x1F DUP4 ADD SLT PUSH2 0x46F JUMPI PUSH2 0x46E PUSH2 0x86C JUMP JUMPDEST JUMPDEST DUP2 CALLDATALOAD PUSH2 0x47F DUP5 DUP3 PUSH1 0x20 DUP7 ADD PUSH2 0x418 JUMP JUMPDEST SWAP2 POP POP SWAP3 SWAP2 POP POP JUMP JUMPDEST PUSH1 0x0 DUP2 CALLDATALOAD SWAP1 POP PUSH2 0x497 DUP2 PUSH2 0x8BA JUMP JUMPDEST SWAP3 SWAP2 POP POP JUMP JUMPDEST PUSH1 0x0 PUSH1 0x20 DUP3 DUP5 SUB SLT ISZERO PUSH2 0x4B3 JUMPI PUSH2 0x4B2 PUSH2 0x87B JUMP JUMPDEST JUMPDEST PUSH1 0x0 DUP3 ADD CALLDATALOAD PUSH8 0xFFFFFFFFFFFFFFFF DUP2 GT ISZERO PUSH2 0x4D1 JUMPI PUSH2 0x4D0 PUSH2 0x876 JUMP JUMPDEST JUMPDEST PUSH2 0x4DD DUP5 DUP3 DUP6 ADD PUSH2 0x45A JUMP JUMPDEST SWAP2 POP POP SWAP3 SWAP2 POP POP JUMP JUMPDEST PUSH1 0x0 DUP1 PUSH1 0x40 DUP4 DUP6 SUB SLT ISZERO PUSH2 0x4FD JUMPI PUSH2 0x4FC PUSH2 0x87B JUMP JUMPDEST JUMPDEST PUSH1 0x0 DUP4 ADD CALLDATALOAD PUSH8 0xFFFFFFFFFFFFFFFF DUP2 GT ISZERO PUSH2 0x51B JUMPI PUSH2 0x51A PUSH2 0x876 JUMP JUMPDEST JUMPDEST PUSH2 0x527 DUP6 DUP3 DUP7 ADD PUSH2 0x45A JUMP JUMPDEST SWAP3 POP POP PUSH1 0x20 PUSH2 0x538 DUP6 DUP3 DUP7 ADD PUSH2 0x488 JUMP JUMPDEST SWAP2 POP POP SWAP3 POP SWAP3 SWAP1 POP JUMP JUMPDEST PUSH2 0x54B DUP2 PUSH2 0x723 JUMP JUMPDEST DUP3 MSTORE POP POP JUMP JUMPDEST PUSH2 0x55A DUP2 PUSH2 0x735 JUMP JUMPDEST DUP3 MSTORE POP POP JUMP JUMPDEST PUSH1 0x0 PUSH2 0x56B DUP3 PUSH2 0x6FC JUMP JUMPDEST PUSH2 0x575 DUP2 DUP6 PUSH2 0x707 JUMP JUMPDEST SWAP4 POP PUSH2 0x585 DUP2 DUP6 PUSH1 0x20 DUP7 ADD PUSH2 0x778 JUMP JUMPDEST PUSH2 0x58E DUP2 PUSH2 0x880 JUMP JUMPDEST DUP5 ADD SWAP2 POP POP SWAP3 SWAP2 POP POP JUMP JUMPDEST PUSH1 0x0 PUSH2 0x5A4 DUP3 PUSH2 0x6FC JUMP JUMPDEST PUSH2 0x5AE DUP2 DUP6 PUSH2 0x718 JUMP JUMPDEST SWAP4 POP PUSH2 0x5BE DUP2 DUP6 PUSH1 0x20 DUP7 ADD PUSH2 0x778 JUMP JUMPDEST DUP1 DUP5 ADD SWAP2 POP POP SWAP3 SWAP2 POP POP JUMP JUMPDEST PUSH1 0x0 PUSH2 0x5D7 PUSH1 0x14 DUP4 PUSH2 0x707 JUMP JUMPDEST SWAP2 POP PUSH2 0x5E2 DUP3 PUSH2 0x891 JUMP JUMPDEST PUSH1 0x20 DUP3 ADD SWAP1 POP SWAP2 SWAP1 POP JUMP JUMPDEST PUSH2 0x5F6 DUP2 PUSH2 0x75F JUMP JUMPDEST DUP3 MSTORE POP POP JUMP JUMPDEST PUSH1 0x0 PUSH2 0x608 DUP3 DUP5 PUSH2 0x599 JUMP JUMPDEST SWAP2 POP DUP2 SWAP1 POP SWAP3 SWAP2 POP POP JUMP JUMPDEST PUSH1 0x0 PUSH1 0x20 DUP3 ADD SWAP1 POP PUSH2 0x628 PUSH1 0x0 DUP4 ADD DUP5 PUSH2 0x542 JUMP JUMPDEST SWAP3 SWAP2 POP POP JUMP JUMPDEST PUSH1 0x0 PUSH1 0x20 DUP3 ADD SWAP1 POP PUSH2 0x643 PUSH1 0x0 DUP4 ADD DUP5 PUSH2 0x551 JUMP JUMPDEST SWAP3 SWAP2 POP POP JUMP JUMPDEST PUSH1 0x0 PUSH1 0x20 DUP3 ADD SWAP1 POP DUP2 DUP2 SUB PUSH1 0x0 DUP4 ADD MSTORE PUSH2 0x663 DUP2 DUP5 PUSH2 0x560 JUMP JUMPDEST SWAP1 POP SWAP3 SWAP2 POP POP JUMP JUMPDEST PUSH1 0x0 PUSH1 0x20 DUP3 ADD SWAP1 POP DUP2 DUP2 SUB PUSH1 0x0 DUP4 ADD MSTORE PUSH2 0x684 DUP2 PUSH2 0x5CA JUMP JUMPDEST SWAP1 POP SWAP2 SWAP1 POP JUMP JUMPDEST PUSH1 0x0 PUSH1 0x20 DUP3 ADD SWAP1 POP PUSH2 0x6A0 PUSH1 0x0 DUP4 ADD DUP5 PUSH2 0x5ED JUMP JUMPDEST SWAP3 SWAP2 POP POP JUMP JUMPDEST PUSH1 0x0 PUSH2 0x6B0 PUSH2 0x6C1 JUMP JUMPDEST SWAP1 POP PUSH2 0x6BC DUP3 DUP3 PUSH2 0x7DD JUMP JUMPDEST SWAP2 SWAP1 POP JUMP JUMPDEST PUSH1 0x0 PUSH1 0x40 MLOAD SWAP1 POP SWAP1 JUMP JUMPDEST PUSH1 0x0 PUSH8 0xFFFFFFFFFFFFFFFF DUP3 GT ISZERO PUSH2 0x6E6 JUMPI PUSH2 0x6E5 PUSH2 0x83D JUMP JUMPDEST JUMPDEST PUSH2 0x6EF DUP3 PUSH2 0x880 JUMP JUMPDEST SWAP1 POP PUSH1 0x20 DUP2 ADD SWAP1 POP SWAP2 SWAP1 POP JUMP JUMPDEST PUSH1 0x0 DUP2 MLOAD SWAP1 POP SWAP2 SWAP1 POP JUMP JUMPDEST PUSH1 0x0 DUP3 DUP3 MSTORE PUSH1 0x20 DUP3 ADD SWAP1 POP SWAP3 SWAP2 POP POP JUMP JUMPDEST PUSH1 0x0 DUP2 SWAP1 POP SWAP3 SWAP2 POP POP JUMP JUMPDEST PUSH1 0x0 PUSH2 0x72E DUP3 PUSH2 0x73F JUMP JUMPDEST SWAP1 POP SWAP2 SWAP1 POP JUMP JUMPDEST PUSH1 0x0 DUP2 SWAP1 POP SWAP2 SWAP1 POP JUMP JUMPDEST PUSH1 0x0 PUSH20 0xFFFFFFFFFFFFFFFFFFFFFFFFFFFFFFFFFFFFFFFF DUP3 AND SWAP1 POP SWAP2 SWAP1 POP JUMP JUMPDEST PUSH1 0x0 DUP2 SWAP1 POP SWAP2 SWAP1 POP JUMP JUMPDEST DUP3 DUP2 DUP4 CALLDATACOPY PUSH1 0x0 DUP4 DUP4 ADD MSTORE POP POP POP JUMP JUMPDEST PUSH1 0x0 JUMPDEST DUP4 DUP2 LT ISZERO PUSH2 0x796 JUMPI DUP1 DUP3 ADD MLOAD DUP2 DUP5 ADD MSTORE PUSH1 0x20 DUP2 ADD SWAP1 POP PUSH2 0x77B JUMP JUMPDEST DUP4 DUP2 GT ISZERO PUSH2 0x7A5 JUMPI PUSH1 0x0 DUP5 DUP5 ADD MSTORE JUMPDEST POP POP POP POP JUMP JUMPDEST PUSH1 0x0 PUSH1 0x2 DUP3 DIV SWAP1 POP PUSH1 0x1 DUP3 AND DUP1 PUSH2 0x7C3 JUMPI PUSH1 0x7F DUP3 AND SWAP2 POP JUMPDEST PUSH1 0x20 DUP3 LT DUP2 EQ ISZERO PUSH2 0x7D7 JUMPI PUSH2 0x7D6 PUSH2 0x80E JUMP JUMPDEST JUMPDEST POP SWAP2 SWAP1 POP JUMP JUMPDEST PUSH2 0x7E6 DUP3 PUSH2 0x880 JUMP JUMPDEST DUP2 ADD DUP2 DUP2 LT PUSH8 0xFFFFFFFFFFFFFFFF DUP3 GT OR ISZERO PUSH2 0x805 JUMPI PUSH2 0x804 PUSH2 0x83D JUMP JUMPDEST JUMPDEST DUP1 PUSH1 0x40 MSTORE POP POP POP JUMP JUMPDEST PUSH32 0x4E487B7100000000000000000000000000000000000000000000000000000000 PUSH1 0x0 MSTORE PUSH1 0x22 PUSH1 0x4 MSTORE PUSH1 0x24 PUSH1 0x0 REVERT JUMPDEST PUSH32 0x4E487B7100000000000000000000000000000000000000000000000000000000 PUSH1 0x0 MSTORE PUSH1 0x41 PUSH1 0x4 MSTORE PUSH1 0x24 PUSH1 0x0 REVERT JUMPDEST PUSH1 0x0 DUP1 REVERT JUMPDEST PUSH1 0x0 DUP1 REVERT JUMPDEST PUSH1 0x0 DUP1 REVERT JUMPDEST PUSH1 0x0 DUP1 REVERT JUMPDEST PUSH1 0x0 PUSH1 0x1F NOT PUSH1 0x1F DUP4 ADD AND SWAP1 POP SWAP2 SWAP1 POP JUMP JUMPDEST PUSH32 0x4E6F206572657320656C2070726F6665736F722E000000000000000000000000 PUSH1 0x0 DUP3 ADD MSTORE POP JUMP JUMPDEST PUSH2 0x8C3 DUP2 PUSH2 0x75F JUMP JUMPDEST DUP2 EQ PUSH2 0x8CE JUMPI PUSH1 0x0 DUP1 REVERT JUMPDEST POP JUMP INVALID LOG2 PUSH5 0x6970667358 0x22 SLT KECCAK256 RETURN SWAP3 0xAE 0xBB 0x5F 0xAE PUSH28 0xFC158B5DE40775FC899F97896085C1177EB0834EAFA813505964736F PUSH13 0x63430008070033000000000000 "
				},
				"gasEstimates": {
					"creation": {
						"codeDepositCost": "462200",
						"executionCost": "24765",
						"totalCost": "486965"
					},
					"external": {
						"evaluar(string,uint256)": "infinite",
						"profesor()": "2577",
						"revision(string)": "infinite",
						"verNotas(string)": "infinite",
						"verRevision()": "2603"
					}
				},
				"methodIdentifiers": {
					"evaluar(string,uint256)": "383bebae",
					"profesor()": "df096576",
					"revision(string)": "ca981d91",
					"verNotas(string)": "deafddae",
					"verRevision()": "7345fc20"
				}
			},
			"storageLayout": {
				"storage": [
					{
						"astId": 4,
						"contract": "Notas/notas.sol:notas",
						"label": "profesor",
						"offset": 0,
						"slot": "0",
						"type": "t_address"
					},
					{
						"astId": 17,
						"contract": "Notas/notas.sol:notas",
						"label": "Notas",
						"offset": 0,
						"slot": "1",
						"type": "t_mapping(t_bytes32,t_uint256)"
					},
					{
						"astId": 20,
						"contract": "Notas/notas.sol:notas",
						"label": "revisiones",
						"offset": 0,
						"slot": "2",
						"type": "t_array(t_string_storage)dyn_storage"
					}
				],
				"types": {
					"t_address": {
						"encoding": "inplace",
						"label": "address",
						"numberOfBytes": "20"
					},
					"t_array(t_string_storage)dyn_storage": {
						"base": "t_string_storage",
						"encoding": "dynamic_array",
						"label": "string[]",
						"numberOfBytes": "32"
					},
					"t_bytes32": {
						"encoding": "inplace",
						"label": "bytes32",
						"numberOfBytes": "32"
					},
					"t_mapping(t_bytes32,t_uint256)": {
						"encoding": "mapping",
						"key": "t_bytes32",
						"label": "mapping(bytes32 => uint256)",
						"numberOfBytes": "32",
						"value": "t_uint256"
					},
					"t_string_storage": {
						"encoding": "bytes",
						"label": "string",
						"numberOfBytes": "32"
					},
					"t_uint256": {
						"encoding": "inplace",
						"label": "uint256",
						"numberOfBytes": "32"
					}
				}
			},
			"userdoc": {
				"kind": "user",
				"methods": {},
				"version": 1
			}
		}
	}
}