{
	"Notas/notas.sol": {
		"notas": {
			"abi": [
				{
					"inputs": [],
					"stateMutability": "nonpayable",
					"type": "constructor"
				},
				{
					"anonymous": false,
					"inputs": [
						{
							"indexed": false,
							"internalType": "bytes32",
							"name": "",
							"type": "bytes32"
						}
					],
					"name": "alumno_evaluado",
					"type": "event"
				},
				{
					"anonymous": false,
					"inputs": [
						{
							"indexed": false,
							"internalType": "string",
							"name": "",
							"type": "string"
						}
					],
					"name": "evento_revision",
					"type": "event"
				},
				{
					"inputs": [
						{
							"internalType": "string",
							"name": "_idAlumno",
							"type": "string"
						},
						{
							"internalType": "uint256",
							"name": "_nota",
							"type": "uint256"
						}
					],
					"name": "evaluar",
					"outputs": [],
					"stateMutability": "nonpayable",
					"type": "function"
				},
				{
					"inputs": [],
					"name": "profesor",
					"outputs": [
						{
							"internalType": "address",
							"name": "",
							"type": "address"
						}
					],
					"stateMutability": "view",
					"type": "function"
				},
				{
					"inputs": [
						{
							"internalType": "string",
							"name": "_idAlumno",
							"type": "string"
						}
					],
					"name": "revision",
					"outputs": [],
					"stateMutability": "nonpayable",
					"type": "function"
				},
				{
					"inputs": [
						{
							"internalType": "string",
							"name": "_idAlumno",
							"type": "string"
						}
					],
					"name": "verNotas",
					"outputs": [
						{
							"internalType": "uint256",
							"name": "",
							"type": "uint256"
						}
					],
					"stateMutability": "view",
					"type": "function"
				}
			],
			"devdoc": {
				"kind": "dev",
				"methods": {},
				"version": 1
			},
			"evm": {
				"assembly": "    /* \"Notas/notas.sol\":97:1266  contract notas {\r... */\n  mstore(0x40, 0x80)\n    /* \"Notas/notas.sol\":219:273  constructor() {\r... */\n  callvalue\n  dup1\n  iszero\n  tag_1\n  jumpi\n  0x00\n  dup1\n  revert\ntag_1:\n  pop\n    /* \"Notas/notas.sol\":255:265  msg.sender */\n  caller\n    /* \"Notas/notas.sol\":244:252  profesor */\n  0x00\n  dup1\n    /* \"Notas/notas.sol\":244:265  profesor = msg.sender */\n  0x0100\n  exp\n  dup2\n  sload\n  dup2\n  0xffffffffffffffffffffffffffffffffffffffff\n  mul\n  not\n  and\n  swap1\n  dup4\n  0xffffffffffffffffffffffffffffffffffffffff\n  and\n  mul\n  or\n  swap1\n  sstore\n  pop\n    /* \"Notas/notas.sol\":97:1266  contract notas {\r... */\n  dataSize(sub_0)\n  dup1\n  dataOffset(sub_0)\n  0x00\n  codecopy\n  0x00\n  return\nstop\n\nsub_0: assembly {\n        /* \"Notas/notas.sol\":97:1266  contract notas {\r... */\n      mstore(0x40, 0x80)\n      callvalue\n      dup1\n      iszero\n      tag_1\n      jumpi\n      0x00\n      dup1\n      revert\n    tag_1:\n      pop\n      jumpi(tag_2, lt(calldatasize, 0x04))\n      shr(0xe0, calldataload(0x00))\n      dup1\n      0x383bebae\n      eq\n      tag_3\n      jumpi\n      dup1\n      0xca981d91\n      eq\n      tag_4\n      jumpi\n      dup1\n      0xdeafddae\n      eq\n      tag_5\n      jumpi\n      dup1\n      0xdf096576\n      eq\n      tag_6\n      jumpi\n    tag_2:\n      0x00\n      dup1\n      revert\n        /* \"Notas/notas.sol\":667:918  function evaluar(string memory _idAlumno, uint _nota) public OnlyTeacher(msg.sender) {\r... */\n    tag_3:\n      tag_7\n      0x04\n      dup1\n      calldatasize\n      sub\n      dup2\n      add\n      swap1\n      tag_8\n      swap2\n      swap1\n      tag_9\n      jump\t// in\n    tag_8:\n      tag_10\n      jump\t// in\n    tag_7:\n      stop\n        /* \"Notas/notas.sol\":1168:1263  function revision(string memory _idAlumno) public {\r... */\n    tag_4:\n      tag_11\n      0x04\n      dup1\n      calldatasize\n      sub\n      dup2\n      add\n      swap1\n      tag_12\n      swap2\n      swap1\n      tag_13\n      jump\t// in\n    tag_12:\n      tag_14\n      jump\t// in\n    tag_11:\n      stop\n        /* \"Notas/notas.sol\":926:1156  function verNotas(string memory _idAlumno) public view returns(uint) {\r... */\n    tag_5:\n      tag_15\n      0x04\n      dup1\n      calldatasize\n      sub\n      dup2\n      add\n      swap1\n      tag_16\n      swap2\n      swap1\n      tag_13\n      jump\t// in\n    tag_16:\n      tag_17\n      jump\t// in\n    tag_15:\n      mload(0x40)\n      tag_18\n      swap2\n      swap1\n      tag_19\n      jump\t// in\n    tag_18:\n      mload(0x40)\n      dup1\n      swap2\n      sub\n      swap1\n      return\n        /* \"Notas/notas.sol\":119:142  address public profesor */\n    tag_6:\n      tag_20\n      tag_21\n      jump\t// in\n    tag_20:\n      mload(0x40)\n      tag_22\n      swap2\n      swap1\n      tag_23\n      jump\t// in\n    tag_22:\n      mload(0x40)\n      dup1\n      swap2\n      sub\n      swap1\n      return\n        /* \"Notas/notas.sol\":667:918  function evaluar(string memory _idAlumno, uint _nota) public OnlyTeacher(msg.sender) {\r... */\n    tag_10:\n        /* \"Notas/notas.sol\":740:750  msg.sender */\n      caller\n        /* \"Notas/notas.sol\":583:591  profesor */\n      0x00\n      dup1\n      sload\n      swap1\n      0x0100\n      exp\n      swap1\n      div\n      0xffffffffffffffffffffffffffffffffffffffff\n      and\n        /* \"Notas/notas.sol\":569:591  _direccion == profesor */\n      0xffffffffffffffffffffffffffffffffffffffff\n      and\n        /* \"Notas/notas.sol\":569:579  _direccion */\n      dup2\n        /* \"Notas/notas.sol\":569:591  _direccion == profesor */\n      0xffffffffffffffffffffffffffffffffffffffff\n      and\n      eq\n        /* \"Notas/notas.sol\":561:616  require(_direccion == profesor, \"No eres el profesor.\") */\n      tag_25\n      jumpi\n      mload(0x40)\n      0x08c379a000000000000000000000000000000000000000000000000000000000\n      dup2\n      mstore\n      0x04\n      add\n      tag_26\n      swap1\n      tag_27\n      jump\t// in\n    tag_26:\n      mload(0x40)\n      dup1\n      swap2\n      sub\n      swap1\n      revert\n    tag_25:\n        /* \"Notas/notas.sol\":763:784  bytes32 hash_idAlumno */\n      0x00\n        /* \"Notas/notas.sol\":814:823  _idAlumno */\n      dup4\n        /* \"Notas/notas.sol\":797:824  abi.encodePacked(_idAlumno) */\n      add(0x20, mload(0x40))\n      tag_29\n      swap2\n      swap1\n      tag_30\n      jump\t// in\n    tag_29:\n      mload(0x40)\n      0x20\n      dup2\n      dup4\n      sub\n      sub\n      dup2\n      mstore\n      swap1\n      0x40\n      mstore\n        /* \"Notas/notas.sol\":787:825  keccak256(abi.encodePacked(_idAlumno)) */\n      dup1\n      mload\n      swap1\n      0x20\n      add\n      keccak256\n        /* \"Notas/notas.sol\":763:825  bytes32 hash_idAlumno = keccak256(abi.encodePacked(_idAlumno)) */\n      swap1\n      pop\n        /* \"Notas/notas.sol\":859:864  _nota */\n      dup3\n        /* \"Notas/notas.sol\":836:841  Notas */\n      0x01\n        /* \"Notas/notas.sol\":836:856  Notas[hash_idAlumno] */\n      0x00\n        /* \"Notas/notas.sol\":842:855  hash_idAlumno */\n      dup4\n        /* \"Notas/notas.sol\":836:856  Notas[hash_idAlumno] */\n      dup2\n      mstore\n      0x20\n      add\n      swap1\n      dup2\n      mstore\n      0x20\n      add\n      0x00\n      keccak256\n        /* \"Notas/notas.sol\":836:864  Notas[hash_idAlumno] = _nota */\n      dup2\n      swap1\n      sstore\n      pop\n        /* \"Notas/notas.sol\":880:910  alumno_evaluado(hash_idAlumno) */\n      0x9129eeeb684507aca017f10030b70e5bf86d129f417fcc5840348a957eb12cee\n        /* \"Notas/notas.sol\":896:909  hash_idAlumno */\n      dup2\n        /* \"Notas/notas.sol\":880:910  alumno_evaluado(hash_idAlumno) */\n      mload(0x40)\n      tag_31\n      swap2\n      swap1\n      tag_32\n      jump\t// in\n    tag_31:\n      mload(0x40)\n      dup1\n      swap2\n      sub\n      swap1\n      log1\n        /* \"Notas/notas.sol\":752:918  {\r... */\n      pop\n        /* \"Notas/notas.sol\":667:918  function evaluar(string memory _idAlumno, uint _nota) public OnlyTeacher(msg.sender) {\r... */\n      pop\n      pop\n      pop\n      jump\t// out\n        /* \"Notas/notas.sol\":1168:1263  function revision(string memory _idAlumno) public {\r... */\n    tag_14:\n        /* \"Notas/notas.sol\":1229:1239  revisiones */\n      0x02\n        /* \"Notas/notas.sol\":1245:1254  _idAlumno */\n      dup2\n        /* \"Notas/notas.sol\":1229:1255  revisiones.push(_idAlumno) */\n      swap1\n      dup1\n      0x01\n      dup2\n      sload\n      add\n      dup1\n      dup3\n      sstore\n      dup1\n      swap2\n      pop\n      pop\n      0x01\n      swap1\n      sub\n      swap1\n      0x00\n      mstore\n      keccak256(0x00, 0x20)\n      add\n      0x00\n      swap1\n      swap2\n      swap1\n      swap2\n      swap1\n      swap2\n      pop\n      swap1\n      dup1\n      mload\n      swap1\n      0x20\n      add\n      swap1\n      tag_35\n      swap3\n      swap2\n      swap1\n      tag_36\n      jump\t// in\n    tag_35:\n      pop\n        /* \"Notas/notas.sol\":1168:1263  function revision(string memory _idAlumno) public {\r... */\n      pop\n      jump\t// out\n        /* \"Notas/notas.sol\":926:1156  function verNotas(string memory _idAlumno) public view returns(uint) {\r... */\n    tag_17:\n        /* \"Notas/notas.sol\":989:993  uint */\n      0x00\n        /* \"Notas/notas.sol\":1006:1027  bytes32 hash_idAlumno */\n      dup1\n        /* \"Notas/notas.sol\":1057:1066  _idAlumno */\n      dup3\n        /* \"Notas/notas.sol\":1040:1067  abi.encodePacked(_idAlumno) */\n      add(0x20, mload(0x40))\n      tag_38\n      swap2\n      swap1\n      tag_30\n      jump\t// in\n    tag_38:\n      mload(0x40)\n      0x20\n      dup2\n      dup4\n      sub\n      sub\n      dup2\n      mstore\n      swap1\n      0x40\n      mstore\n        /* \"Notas/notas.sol\":1030:1068  keccak256(abi.encodePacked(_idAlumno)) */\n      dup1\n      mload\n      swap1\n      0x20\n      add\n      keccak256\n        /* \"Notas/notas.sol\":1006:1068  bytes32 hash_idAlumno = keccak256(abi.encodePacked(_idAlumno)) */\n      swap1\n      pop\n        /* \"Notas/notas.sol\":1079:1095  uint nota_alumno */\n      0x00\n        /* \"Notas/notas.sol\":1098:1103  Notas */\n      0x01\n        /* \"Notas/notas.sol\":1098:1118  Notas[hash_idAlumno] */\n      0x00\n        /* \"Notas/notas.sol\":1104:1117  hash_idAlumno */\n      dup4\n        /* \"Notas/notas.sol\":1098:1118  Notas[hash_idAlumno] */\n      dup2\n      mstore\n      0x20\n      add\n      swap1\n      dup2\n      mstore\n      0x20\n      add\n      0x00\n      keccak256\n      sload\n        /* \"Notas/notas.sol\":1079:1118  uint nota_alumno = Notas[hash_idAlumno] */\n      swap1\n      pop\n        /* \"Notas/notas.sol\":1137:1148  nota_alumno */\n      dup1\n        /* \"Notas/notas.sol\":1129:1148  return  nota_alumno */\n      swap3\n      pop\n      pop\n      pop\n        /* \"Notas/notas.sol\":926:1156  function verNotas(string memory _idAlumno) public view returns(uint) {\r... */\n      swap2\n      swap1\n      pop\n      jump\t// out\n        /* \"Notas/notas.sol\":119:142  address public profesor */\n    tag_21:\n      0x00\n      dup1\n      sload\n      swap1\n      0x0100\n      exp\n      swap1\n      div\n      0xffffffffffffffffffffffffffffffffffffffff\n      and\n      dup2\n      jump\t// out\n    tag_36:\n      dup3\n      dup1\n      sload\n      tag_39\n      swap1\n      tag_40\n      jump\t// in\n    tag_39:\n      swap1\n      0x00\n      mstore\n      keccak256(0x00, 0x20)\n      swap1\n      0x1f\n      add\n      0x20\n      swap1\n      div\n      dup2\n      add\n      swap3\n      dup3\n      tag_42\n      jumpi\n      0x00\n      dup6\n      sstore\n      jump(tag_41)\n    tag_42:\n      dup3\n      0x1f\n      lt\n      tag_43\n      jumpi\n      dup1\n      mload\n      not(0xff)\n      and\n      dup4\n      dup1\n      add\n      or\n      dup6\n      sstore\n      jump(tag_41)\n    tag_43:\n      dup3\n      dup1\n      add\n      0x01\n      add\n      dup6\n      sstore\n      dup3\n      iszero\n      tag_41\n      jumpi\n      swap2\n      dup3\n      add\n    tag_44:\n      dup3\n      dup2\n      gt\n      iszero\n      tag_45\n      jumpi\n      dup3\n      mload\n      dup3\n      sstore\n      swap2\n      0x20\n      add\n      swap2\n      swap1\n      0x01\n      add\n      swap1\n      jump(tag_44)\n    tag_45:\n    tag_41:\n      pop\n      swap1\n      pop\n      tag_46\n      swap2\n      swap1\n      tag_47\n      jump\t// in\n    tag_46:\n      pop\n      swap1\n      jump\t// out\n    tag_47:\n    tag_48:\n      dup1\n      dup3\n      gt\n      iszero\n      tag_49\n      jumpi\n      0x00\n      dup2\n      0x00\n      swap1\n      sstore\n      pop\n      0x01\n      add\n      jump(tag_48)\n    tag_49:\n      pop\n      swap1\n      jump\t// out\n        /* \"#utility.yul\":7:419   */\n    tag_51:\n        /* \"#utility.yul\":85:90   */\n      0x00\n        /* \"#utility.yul\":110:176   */\n      tag_53\n        /* \"#utility.yul\":126:175   */\n      tag_54\n        /* \"#utility.yul\":168:174   */\n      dup5\n        /* \"#utility.yul\":126:175   */\n      tag_55\n      jump\t// in\n    tag_54:\n        /* \"#utility.yul\":110:176   */\n      tag_56\n      jump\t// in\n    tag_53:\n        /* \"#utility.yul\":101:176   */\n      swap1\n      pop\n        /* \"#utility.yul\":199:205   */\n      dup3\n        /* \"#utility.yul\":192:197   */\n      dup2\n        /* \"#utility.yul\":185:206   */\n      mstore\n        /* \"#utility.yul\":237:241   */\n      0x20\n        /* \"#utility.yul\":230:235   */\n      dup2\n        /* \"#utility.yul\":226:242   */\n      add\n        /* \"#utility.yul\":275:278   */\n      dup5\n        /* \"#utility.yul\":266:272   */\n      dup5\n        /* \"#utility.yul\":261:264   */\n      dup5\n        /* \"#utility.yul\":257:273   */\n      add\n        /* \"#utility.yul\":254:279   */\n      gt\n        /* \"#utility.yul\":251:363   */\n      iszero\n      tag_57\n      jumpi\n        /* \"#utility.yul\":282:361   */\n      tag_58\n      tag_59\n      jump\t// in\n    tag_58:\n        /* \"#utility.yul\":251:363   */\n    tag_57:\n        /* \"#utility.yul\":372:413   */\n      tag_60\n        /* \"#utility.yul\":406:412   */\n      dup5\n        /* \"#utility.yul\":401:404   */\n      dup3\n        /* \"#utility.yul\":396:399   */\n      dup6\n        /* \"#utility.yul\":372:413   */\n      tag_61\n      jump\t// in\n    tag_60:\n        /* \"#utility.yul\":91:419   */\n      pop\n        /* \"#utility.yul\":7:419   */\n      swap4\n      swap3\n      pop\n      pop\n      pop\n      jump\t// out\n        /* \"#utility.yul\":439:779   */\n    tag_62:\n        /* \"#utility.yul\":495:500   */\n      0x00\n        /* \"#utility.yul\":544:547   */\n      dup3\n        /* \"#utility.yul\":537:541   */\n      0x1f\n        /* \"#utility.yul\":529:535   */\n      dup4\n        /* \"#utility.yul\":525:542   */\n      add\n        /* \"#utility.yul\":521:548   */\n      slt\n        /* \"#utility.yul\":511:633   */\n      tag_64\n      jumpi\n        /* \"#utility.yul\":552:631   */\n      tag_65\n      tag_66\n      jump\t// in\n    tag_65:\n        /* \"#utility.yul\":511:633   */\n    tag_64:\n        /* \"#utility.yul\":669:675   */\n      dup2\n        /* \"#utility.yul\":656:676   */\n      calldataload\n        /* \"#utility.yul\":694:773   */\n      tag_67\n        /* \"#utility.yul\":769:772   */\n      dup5\n        /* \"#utility.yul\":761:767   */\n      dup3\n        /* \"#utility.yul\":754:758   */\n      0x20\n        /* \"#utility.yul\":746:752   */\n      dup7\n        /* \"#utility.yul\":742:759   */\n      add\n        /* \"#utility.yul\":694:773   */\n      tag_51\n      jump\t// in\n    tag_67:\n        /* \"#utility.yul\":685:773   */\n      swap2\n      pop\n        /* \"#utility.yul\":501:779   */\n      pop\n        /* \"#utility.yul\":439:779   */\n      swap3\n      swap2\n      pop\n      pop\n      jump\t// out\n        /* \"#utility.yul\":785:924   */\n    tag_68:\n        /* \"#utility.yul\":831:836   */\n      0x00\n        /* \"#utility.yul\":869:875   */\n      dup2\n        /* \"#utility.yul\":856:876   */\n      calldataload\n        /* \"#utility.yul\":847:876   */\n      swap1\n      pop\n        /* \"#utility.yul\":885:918   */\n      tag_70\n        /* \"#utility.yul\":912:917   */\n      dup2\n        /* \"#utility.yul\":885:918   */\n      tag_71\n      jump\t// in\n    tag_70:\n        /* \"#utility.yul\":785:924   */\n      swap3\n      swap2\n      pop\n      pop\n      jump\t// out\n        /* \"#utility.yul\":930:1439   */\n    tag_13:\n        /* \"#utility.yul\":999:1005   */\n      0x00\n        /* \"#utility.yul\":1048:1050   */\n      0x20\n        /* \"#utility.yul\":1036:1045   */\n      dup3\n        /* \"#utility.yul\":1027:1034   */\n      dup5\n        /* \"#utility.yul\":1023:1046   */\n      sub\n        /* \"#utility.yul\":1019:1051   */\n      slt\n        /* \"#utility.yul\":1016:1135   */\n      iszero\n      tag_73\n      jumpi\n        /* \"#utility.yul\":1054:1133   */\n      tag_74\n      tag_75\n      jump\t// in\n    tag_74:\n        /* \"#utility.yul\":1016:1135   */\n    tag_73:\n        /* \"#utility.yul\":1202:1203   */\n      0x00\n        /* \"#utility.yul\":1191:1200   */\n      dup3\n        /* \"#utility.yul\":1187:1204   */\n      add\n        /* \"#utility.yul\":1174:1205   */\n      calldataload\n        /* \"#utility.yul\":1232:1250   */\n      0xffffffffffffffff\n        /* \"#utility.yul\":1224:1230   */\n      dup2\n        /* \"#utility.yul\":1221:1251   */\n      gt\n        /* \"#utility.yul\":1218:1335   */\n      iszero\n      tag_76\n      jumpi\n        /* \"#utility.yul\":1254:1333   */\n      tag_77\n      tag_78\n      jump\t// in\n    tag_77:\n        /* \"#utility.yul\":1218:1335   */\n    tag_76:\n        /* \"#utility.yul\":1359:1422   */\n      tag_79\n        /* \"#utility.yul\":1414:1421   */\n      dup5\n        /* \"#utility.yul\":1405:1411   */\n      dup3\n        /* \"#utility.yul\":1394:1403   */\n      dup6\n        /* \"#utility.yul\":1390:1412   */\n      add\n        /* \"#utility.yul\":1359:1422   */\n      tag_62\n      jump\t// in\n    tag_79:\n        /* \"#utility.yul\":1349:1422   */\n      swap2\n      pop\n        /* \"#utility.yul\":1145:1432   */\n      pop\n        /* \"#utility.yul\":930:1439   */\n      swap3\n      swap2\n      pop\n      pop\n      jump\t// out\n        /* \"#utility.yul\":1445:2099   */\n    tag_9:\n        /* \"#utility.yul\":1523:1529   */\n      0x00\n        /* \"#utility.yul\":1531:1537   */\n      dup1\n        /* \"#utility.yul\":1580:1582   */\n      0x40\n        /* \"#utility.yul\":1568:1577   */\n      dup4\n        /* \"#utility.yul\":1559:1566   */\n      dup6\n        /* \"#utility.yul\":1555:1578   */\n      sub\n        /* \"#utility.yul\":1551:1583   */\n      slt\n        /* \"#utility.yul\":1548:1667   */\n      iszero\n      tag_81\n      jumpi\n        /* \"#utility.yul\":1586:1665   */\n      tag_82\n      tag_75\n      jump\t// in\n    tag_82:\n        /* \"#utility.yul\":1548:1667   */\n    tag_81:\n        /* \"#utility.yul\":1734:1735   */\n      0x00\n        /* \"#utility.yul\":1723:1732   */\n      dup4\n        /* \"#utility.yul\":1719:1736   */\n      add\n        /* \"#utility.yul\":1706:1737   */\n      calldataload\n        /* \"#utility.yul\":1764:1782   */\n      0xffffffffffffffff\n        /* \"#utility.yul\":1756:1762   */\n      dup2\n        /* \"#utility.yul\":1753:1783   */\n      gt\n        /* \"#utility.yul\":1750:1867   */\n      iszero\n      tag_83\n      jumpi\n        /* \"#utility.yul\":1786:1865   */\n      tag_84\n      tag_78\n      jump\t// in\n    tag_84:\n        /* \"#utility.yul\":1750:1867   */\n    tag_83:\n        /* \"#utility.yul\":1891:1954   */\n      tag_85\n        /* \"#utility.yul\":1946:1953   */\n      dup6\n        /* \"#utility.yul\":1937:1943   */\n      dup3\n        /* \"#utility.yul\":1926:1935   */\n      dup7\n        /* \"#utility.yul\":1922:1944   */\n      add\n        /* \"#utility.yul\":1891:1954   */\n      tag_62\n      jump\t// in\n    tag_85:\n        /* \"#utility.yul\":1881:1954   */\n      swap3\n      pop\n        /* \"#utility.yul\":1677:1964   */\n      pop\n        /* \"#utility.yul\":2003:2005   */\n      0x20\n        /* \"#utility.yul\":2029:2082   */\n      tag_86\n        /* \"#utility.yul\":2074:2081   */\n      dup6\n        /* \"#utility.yul\":2065:2071   */\n      dup3\n        /* \"#utility.yul\":2054:2063   */\n      dup7\n        /* \"#utility.yul\":2050:2072   */\n      add\n        /* \"#utility.yul\":2029:2082   */\n      tag_68\n      jump\t// in\n    tag_86:\n        /* \"#utility.yul\":2019:2082   */\n      swap2\n      pop\n        /* \"#utility.yul\":1974:2092   */\n      pop\n        /* \"#utility.yul\":1445:2099   */\n      swap3\n      pop\n      swap3\n      swap1\n      pop\n      jump\t// out\n        /* \"#utility.yul\":2105:2223   */\n    tag_87:\n        /* \"#utility.yul\":2192:2216   */\n      tag_89\n        /* \"#utility.yul\":2210:2215   */\n      dup2\n        /* \"#utility.yul\":2192:2216   */\n      tag_90\n      jump\t// in\n    tag_89:\n        /* \"#utility.yul\":2187:2190   */\n      dup3\n        /* \"#utility.yul\":2180:2217   */\n      mstore\n        /* \"#utility.yul\":2105:2223   */\n      pop\n      pop\n      jump\t// out\n        /* \"#utility.yul\":2229:2347   */\n    tag_91:\n        /* \"#utility.yul\":2316:2340   */\n      tag_93\n        /* \"#utility.yul\":2334:2339   */\n      dup2\n        /* \"#utility.yul\":2316:2340   */\n      tag_94\n      jump\t// in\n    tag_93:\n        /* \"#utility.yul\":2311:2314   */\n      dup3\n        /* \"#utility.yul\":2304:2341   */\n      mstore\n        /* \"#utility.yul\":2229:2347   */\n      pop\n      pop\n      jump\t// out\n        /* \"#utility.yul\":2353:2730   */\n    tag_95:\n        /* \"#utility.yul\":2459:2462   */\n      0x00\n        /* \"#utility.yul\":2487:2526   */\n      tag_97\n        /* \"#utility.yul\":2520:2525   */\n      dup3\n        /* \"#utility.yul\":2487:2526   */\n      tag_98\n      jump\t// in\n    tag_97:\n        /* \"#utility.yul\":2542:2631   */\n      tag_99\n        /* \"#utility.yul\":2624:2630   */\n      dup2\n        /* \"#utility.yul\":2619:2622   */\n      dup6\n        /* \"#utility.yul\":2542:2631   */\n      tag_100\n      jump\t// in\n    tag_99:\n        /* \"#utility.yul\":2535:2631   */\n      swap4\n      pop\n        /* \"#utility.yul\":2640:2692   */\n      tag_101\n        /* \"#utility.yul\":2685:2691   */\n      dup2\n        /* \"#utility.yul\":2680:2683   */\n      dup6\n        /* \"#utility.yul\":2673:2677   */\n      0x20\n        /* \"#utility.yul\":2666:2671   */\n      dup7\n        /* \"#utility.yul\":2662:2678   */\n      add\n        /* \"#utility.yul\":2640:2692   */\n      tag_102\n      jump\t// in\n    tag_101:\n        /* \"#utility.yul\":2717:2723   */\n      dup1\n        /* \"#utility.yul\":2712:2715   */\n      dup5\n        /* \"#utility.yul\":2708:2724   */\n      add\n        /* \"#utility.yul\":2701:2724   */\n      swap2\n      pop\n        /* \"#utility.yul\":2463:2730   */\n      pop\n        /* \"#utility.yul\":2353:2730   */\n      swap3\n      swap2\n      pop\n      pop\n      jump\t// out\n        /* \"#utility.yul\":2736:3102   */\n    tag_103:\n        /* \"#utility.yul\":2878:2881   */\n      0x00\n        /* \"#utility.yul\":2899:2966   */\n      tag_105\n        /* \"#utility.yul\":2963:2965   */\n      0x14\n        /* \"#utility.yul\":2958:2961   */\n      dup4\n        /* \"#utility.yul\":2899:2966   */\n      tag_106\n      jump\t// in\n    tag_105:\n        /* \"#utility.yul\":2892:2966   */\n      swap2\n      pop\n        /* \"#utility.yul\":2975:3068   */\n      tag_107\n        /* \"#utility.yul\":3064:3067   */\n      dup3\n        /* \"#utility.yul\":2975:3068   */\n      tag_108\n      jump\t// in\n    tag_107:\n        /* \"#utility.yul\":3093:3095   */\n      0x20\n        /* \"#utility.yul\":3088:3091   */\n      dup3\n        /* \"#utility.yul\":3084:3096   */\n      add\n        /* \"#utility.yul\":3077:3096   */\n      swap1\n      pop\n        /* \"#utility.yul\":2736:3102   */\n      swap2\n      swap1\n      pop\n      jump\t// out\n        /* \"#utility.yul\":3108:3226   */\n    tag_109:\n        /* \"#utility.yul\":3195:3219   */\n      tag_111\n        /* \"#utility.yul\":3213:3218   */\n      dup2\n        /* \"#utility.yul\":3195:3219   */\n      tag_112\n      jump\t// in\n    tag_111:\n        /* \"#utility.yul\":3190:3193   */\n      dup3\n        /* \"#utility.yul\":3183:3220   */\n      mstore\n        /* \"#utility.yul\":3108:3226   */\n      pop\n      pop\n      jump\t// out\n        /* \"#utility.yul\":3232:3507   */\n    tag_30:\n        /* \"#utility.yul\":3364:3367   */\n      0x00\n        /* \"#utility.yul\":3386:3481   */\n      tag_114\n        /* \"#utility.yul\":3477:3480   */\n      dup3\n        /* \"#utility.yul\":3468:3474   */\n      dup5\n        /* \"#utility.yul\":3386:3481   */\n      tag_95\n      jump\t// in\n    tag_114:\n        /* \"#utility.yul\":3379:3481   */\n      swap2\n      pop\n        /* \"#utility.yul\":3498:3501   */\n      dup2\n        /* \"#utility.yul\":3491:3501   */\n      swap1\n      pop\n        /* \"#utility.yul\":3232:3507   */\n      swap3\n      swap2\n      pop\n      pop\n      jump\t// out\n        /* \"#utility.yul\":3513:3735   */\n    tag_23:\n        /* \"#utility.yul\":3606:3610   */\n      0x00\n        /* \"#utility.yul\":3644:3646   */\n      0x20\n        /* \"#utility.yul\":3633:3642   */\n      dup3\n        /* \"#utility.yul\":3629:3647   */\n      add\n        /* \"#utility.yul\":3621:3647   */\n      swap1\n      pop\n        /* \"#utility.yul\":3657:3728   */\n      tag_116\n        /* \"#utility.yul\":3725:3726   */\n      0x00\n        /* \"#utility.yul\":3714:3723   */\n      dup4\n        /* \"#utility.yul\":3710:3727   */\n      add\n        /* \"#utility.yul\":3701:3707   */\n      dup5\n        /* \"#utility.yul\":3657:3728   */\n      tag_87\n      jump\t// in\n    tag_116:\n        /* \"#utility.yul\":3513:3735   */\n      swap3\n      swap2\n      pop\n      pop\n      jump\t// out\n        /* \"#utility.yul\":3741:3963   */\n    tag_32:\n        /* \"#utility.yul\":3834:3838   */\n      0x00\n        /* \"#utility.yul\":3872:3874   */\n      0x20\n        /* \"#utility.yul\":3861:3870   */\n      dup3\n        /* \"#utility.yul\":3857:3875   */\n      add\n        /* \"#utility.yul\":3849:3875   */\n      swap1\n      pop\n        /* \"#utility.yul\":3885:3956   */\n      tag_118\n        /* \"#utility.yul\":3953:3954   */\n      0x00\n        /* \"#utility.yul\":3942:3951   */\n      dup4\n        /* \"#utility.yul\":3938:3955   */\n      add\n        /* \"#utility.yul\":3929:3935   */\n      dup5\n        /* \"#utility.yul\":3885:3956   */\n      tag_91\n      jump\t// in\n    tag_118:\n        /* \"#utility.yul\":3741:3963   */\n      swap3\n      swap2\n      pop\n      pop\n      jump\t// out\n        /* \"#utility.yul\":3969:4388   */\n    tag_27:\n        /* \"#utility.yul\":4135:4139   */\n      0x00\n        /* \"#utility.yul\":4173:4175   */\n      0x20\n        /* \"#utility.yul\":4162:4171   */\n      dup3\n        /* \"#utility.yul\":4158:4176   */\n      add\n        /* \"#utility.yul\":4150:4176   */\n      swap1\n      pop\n        /* \"#utility.yul\":4222:4231   */\n      dup2\n        /* \"#utility.yul\":4216:4220   */\n      dup2\n        /* \"#utility.yul\":4212:4232   */\n      sub\n        /* \"#utility.yul\":4208:4209   */\n      0x00\n        /* \"#utility.yul\":4197:4206   */\n      dup4\n        /* \"#utility.yul\":4193:4210   */\n      add\n        /* \"#utility.yul\":4186:4233   */\n      mstore\n        /* \"#utility.yul\":4250:4381   */\n      tag_120\n        /* \"#utility.yul\":4376:4380   */\n      dup2\n        /* \"#utility.yul\":4250:4381   */\n      tag_103\n      jump\t// in\n    tag_120:\n        /* \"#utility.yul\":4242:4381   */\n      swap1\n      pop\n        /* \"#utility.yul\":3969:4388   */\n      swap2\n      swap1\n      pop\n      jump\t// out\n        /* \"#utility.yul\":4394:4616   */\n    tag_19:\n        /* \"#utility.yul\":4487:4491   */\n      0x00\n        /* \"#utility.yul\":4525:4527   */\n      0x20\n        /* \"#utility.yul\":4514:4523   */\n      dup3\n        /* \"#utility.yul\":4510:4528   */\n      add\n        /* \"#utility.yul\":4502:4528   */\n      swap1\n      pop\n        /* \"#utility.yul\":4538:4609   */\n      tag_122\n        /* \"#utility.yul\":4606:4607   */\n      0x00\n        /* \"#utility.yul\":4595:4604   */\n      dup4\n        /* \"#utility.yul\":4591:4608   */\n      add\n        /* \"#utility.yul\":4582:4588   */\n      dup5\n        /* \"#utility.yul\":4538:4609   */\n      tag_109\n      jump\t// in\n    tag_122:\n        /* \"#utility.yul\":4394:4616   */\n      swap3\n      swap2\n      pop\n      pop\n      jump\t// out\n        /* \"#utility.yul\":4622:4751   */\n    tag_56:\n        /* \"#utility.yul\":4656:4662   */\n      0x00\n        /* \"#utility.yul\":4683:4703   */\n      tag_124\n      tag_125\n      jump\t// in\n    tag_124:\n        /* \"#utility.yul\":4673:4703   */\n      swap1\n      pop\n        /* \"#utility.yul\":4712:4745   */\n      tag_126\n        /* \"#utility.yul\":4740:4744   */\n      dup3\n        /* \"#utility.yul\":4732:4738   */\n      dup3\n        /* \"#utility.yul\":4712:4745   */\n      tag_127\n      jump\t// in\n    tag_126:\n        /* \"#utility.yul\":4622:4751   */\n      swap2\n      swap1\n      pop\n      jump\t// out\n        /* \"#utility.yul\":4757:4832   */\n    tag_125:\n        /* \"#utility.yul\":4790:4796   */\n      0x00\n        /* \"#utility.yul\":4823:4825   */\n      0x40\n        /* \"#utility.yul\":4817:4826   */\n      mload\n        /* \"#utility.yul\":4807:4826   */\n      swap1\n      pop\n        /* \"#utility.yul\":4757:4832   */\n      swap1\n      jump\t// out\n        /* \"#utility.yul\":4838:5146   */\n    tag_55:\n        /* \"#utility.yul\":4900:4904   */\n      0x00\n        /* \"#utility.yul\":4990:5008   */\n      0xffffffffffffffff\n        /* \"#utility.yul\":4982:4988   */\n      dup3\n        /* \"#utility.yul\":4979:5009   */\n      gt\n        /* \"#utility.yul\":4976:5032   */\n      iszero\n      tag_130\n      jumpi\n        /* \"#utility.yul\":5012:5030   */\n      tag_131\n      tag_132\n      jump\t// in\n    tag_131:\n        /* \"#utility.yul\":4976:5032   */\n    tag_130:\n        /* \"#utility.yul\":5050:5079   */\n      tag_133\n        /* \"#utility.yul\":5072:5078   */\n      dup3\n        /* \"#utility.yul\":5050:5079   */\n      tag_134\n      jump\t// in\n    tag_133:\n        /* \"#utility.yul\":5042:5079   */\n      swap1\n      pop\n        /* \"#utility.yul\":5134:5138   */\n      0x20\n        /* \"#utility.yul\":5128:5132   */\n      dup2\n        /* \"#utility.yul\":5124:5139   */\n      add\n        /* \"#utility.yul\":5116:5139   */\n      swap1\n      pop\n        /* \"#utility.yul\":4838:5146   */\n      swap2\n      swap1\n      pop\n      jump\t// out\n        /* \"#utility.yul\":5152:5251   */\n    tag_98:\n        /* \"#utility.yul\":5204:5210   */\n      0x00\n        /* \"#utility.yul\":5238:5243   */\n      dup2\n        /* \"#utility.yul\":5232:5244   */\n      mload\n        /* \"#utility.yul\":5222:5244   */\n      swap1\n      pop\n        /* \"#utility.yul\":5152:5251   */\n      swap2\n      swap1\n      pop\n      jump\t// out\n        /* \"#utility.yul\":5257:5426   */\n    tag_106:\n        /* \"#utility.yul\":5341:5352   */\n      0x00\n        /* \"#utility.yul\":5375:5381   */\n      dup3\n        /* \"#utility.yul\":5370:5373   */\n      dup3\n        /* \"#utility.yul\":5363:5382   */\n      mstore\n        /* \"#utility.yul\":5415:5419   */\n      0x20\n        /* \"#utility.yul\":5410:5413   */\n      dup3\n        /* \"#utility.yul\":5406:5420   */\n      add\n        /* \"#utility.yul\":5391:5420   */\n      swap1\n      pop\n        /* \"#utility.yul\":5257:5426   */\n      swap3\n      swap2\n      pop\n      pop\n      jump\t// out\n        /* \"#utility.yul\":5432:5580   */\n    tag_100:\n        /* \"#utility.yul\":5534:5545   */\n      0x00\n        /* \"#utility.yul\":5571:5574   */\n      dup2\n        /* \"#utility.yul\":5556:5574   */\n      swap1\n      pop\n        /* \"#utility.yul\":5432:5580   */\n      swap3\n      swap2\n      pop\n      pop\n      jump\t// out\n        /* \"#utility.yul\":5586:5682   */\n    tag_90:\n        /* \"#utility.yul\":5623:5630   */\n      0x00\n        /* \"#utility.yul\":5652:5676   */\n      tag_139\n        /* \"#utility.yul\":5670:5675   */\n      dup3\n        /* \"#utility.yul\":5652:5676   */\n      tag_140\n      jump\t// in\n    tag_139:\n        /* \"#utility.yul\":5641:5676   */\n      swap1\n      pop\n        /* \"#utility.yul\":5586:5682   */\n      swap2\n      swap1\n      pop\n      jump\t// out\n        /* \"#utility.yul\":5688:5765   */\n    tag_94:\n        /* \"#utility.yul\":5725:5732   */\n      0x00\n        /* \"#utility.yul\":5754:5759   */\n      dup2\n        /* \"#utility.yul\":5743:5759   */\n      swap1\n      pop\n        /* \"#utility.yul\":5688:5765   */\n      swap2\n      swap1\n      pop\n      jump\t// out\n        /* \"#utility.yul\":5771:5897   */\n    tag_140:\n        /* \"#utility.yul\":5808:5815   */\n      0x00\n        /* \"#utility.yul\":5848:5890   */\n      0xffffffffffffffffffffffffffffffffffffffff\n        /* \"#utility.yul\":5841:5846   */\n      dup3\n        /* \"#utility.yul\":5837:5891   */\n      and\n        /* \"#utility.yul\":5826:5891   */\n      swap1\n      pop\n        /* \"#utility.yul\":5771:5897   */\n      swap2\n      swap1\n      pop\n      jump\t// out\n        /* \"#utility.yul\":5903:5980   */\n    tag_112:\n        /* \"#utility.yul\":5940:5947   */\n      0x00\n        /* \"#utility.yul\":5969:5974   */\n      dup2\n        /* \"#utility.yul\":5958:5974   */\n      swap1\n      pop\n        /* \"#utility.yul\":5903:5980   */\n      swap2\n      swap1\n      pop\n      jump\t// out\n        /* \"#utility.yul\":5986:6140   */\n    tag_61:\n        /* \"#utility.yul\":6070:6076   */\n      dup3\n        /* \"#utility.yul\":6065:6068   */\n      dup2\n        /* \"#utility.yul\":6060:6063   */\n      dup4\n        /* \"#utility.yul\":6047:6077   */\n      calldatacopy\n        /* \"#utility.yul\":6132:6133   */\n      0x00\n        /* \"#utility.yul\":6123:6129   */\n      dup4\n        /* \"#utility.yul\":6118:6121   */\n      dup4\n        /* \"#utility.yul\":6114:6130   */\n      add\n        /* \"#utility.yul\":6107:6134   */\n      mstore\n        /* \"#utility.yul\":5986:6140   */\n      pop\n      pop\n      pop\n      jump\t// out\n        /* \"#utility.yul\":6146:6453   */\n    tag_102:\n        /* \"#utility.yul\":6214:6215   */\n      0x00\n        /* \"#utility.yul\":6224:6337   */\n    tag_146:\n        /* \"#utility.yul\":6238:6244   */\n      dup4\n        /* \"#utility.yul\":6235:6236   */\n      dup2\n        /* \"#utility.yul\":6232:6245   */\n      lt\n        /* \"#utility.yul\":6224:6337   */\n      iszero\n      tag_148\n      jumpi\n        /* \"#utility.yul\":6323:6324   */\n      dup1\n        /* \"#utility.yul\":6318:6321   */\n      dup3\n        /* \"#utility.yul\":6314:6325   */\n      add\n        /* \"#utility.yul\":6308:6326   */\n      mload\n        /* \"#utility.yul\":6304:6305   */\n      dup2\n        /* \"#utility.yul\":6299:6302   */\n      dup5\n        /* \"#utility.yul\":6295:6306   */\n      add\n        /* \"#utility.yul\":6288:6327   */\n      mstore\n        /* \"#utility.yul\":6260:6262   */\n      0x20\n        /* \"#utility.yul\":6257:6258   */\n      dup2\n        /* \"#utility.yul\":6253:6263   */\n      add\n        /* \"#utility.yul\":6248:6263   */\n      swap1\n      pop\n        /* \"#utility.yul\":6224:6337   */\n      jump(tag_146)\n    tag_148:\n        /* \"#utility.yul\":6355:6361   */\n      dup4\n        /* \"#utility.yul\":6352:6353   */\n      dup2\n        /* \"#utility.yul\":6349:6362   */\n      gt\n        /* \"#utility.yul\":6346:6447   */\n      iszero\n      tag_149\n      jumpi\n        /* \"#utility.yul\":6435:6436   */\n      0x00\n        /* \"#utility.yul\":6426:6432   */\n      dup5\n        /* \"#utility.yul\":6421:6424   */\n      dup5\n        /* \"#utility.yul\":6417:6433   */\n      add\n        /* \"#utility.yul\":6410:6437   */\n      mstore\n        /* \"#utility.yul\":6346:6447   */\n    tag_149:\n        /* \"#utility.yul\":6195:6453   */\n      pop\n        /* \"#utility.yul\":6146:6453   */\n      pop\n      pop\n      pop\n      jump\t// out\n        /* \"#utility.yul\":6459:6779   */\n    tag_40:\n        /* \"#utility.yul\":6503:6509   */\n      0x00\n        /* \"#utility.yul\":6540:6541   */\n      0x02\n        /* \"#utility.yul\":6534:6538   */\n      dup3\n        /* \"#utility.yul\":6530:6542   */\n      div\n        /* \"#utility.yul\":6520:6542   */\n      swap1\n      pop\n        /* \"#utility.yul\":6587:6588   */\n      0x01\n        /* \"#utility.yul\":6581:6585   */\n      dup3\n        /* \"#utility.yul\":6577:6589   */\n      and\n        /* \"#utility.yul\":6608:6626   */\n      dup1\n        /* \"#utility.yul\":6598:6679   */\n      tag_151\n      jumpi\n        /* \"#utility.yul\":6664:6668   */\n      0x7f\n        /* \"#utility.yul\":6656:6662   */\n      dup3\n        /* \"#utility.yul\":6652:6669   */\n      and\n        /* \"#utility.yul\":6642:6669   */\n      swap2\n      pop\n        /* \"#utility.yul\":6598:6679   */\n    tag_151:\n        /* \"#utility.yul\":6726:6728   */\n      0x20\n        /* \"#utility.yul\":6718:6724   */\n      dup3\n        /* \"#utility.yul\":6715:6729   */\n      lt\n        /* \"#utility.yul\":6695:6713   */\n      dup2\n        /* \"#utility.yul\":6692:6730   */\n      eq\n        /* \"#utility.yul\":6689:6773   */\n      iszero\n      tag_152\n      jumpi\n        /* \"#utility.yul\":6745:6763   */\n      tag_153\n      tag_154\n      jump\t// in\n    tag_153:\n        /* \"#utility.yul\":6689:6773   */\n    tag_152:\n        /* \"#utility.yul\":6510:6779   */\n      pop\n        /* \"#utility.yul\":6459:6779   */\n      swap2\n      swap1\n      pop\n      jump\t// out\n        /* \"#utility.yul\":6785:7066   */\n    tag_127:\n        /* \"#utility.yul\":6868:6895   */\n      tag_156\n        /* \"#utility.yul\":6890:6894   */\n      dup3\n        /* \"#utility.yul\":6868:6895   */\n      tag_134\n      jump\t// in\n    tag_156:\n        /* \"#utility.yul\":6860:6866   */\n      dup2\n        /* \"#utility.yul\":6856:6896   */\n      add\n        /* \"#utility.yul\":6998:7004   */\n      dup2\n        /* \"#utility.yul\":6986:6996   */\n      dup2\n        /* \"#utility.yul\":6983:7005   */\n      lt\n        /* \"#utility.yul\":6962:6980   */\n      0xffffffffffffffff\n        /* \"#utility.yul\":6950:6960   */\n      dup3\n        /* \"#utility.yul\":6947:6981   */\n      gt\n        /* \"#utility.yul\":6944:7006   */\n      or\n        /* \"#utility.yul\":6941:7029   */\n      iszero\n      tag_157\n      jumpi\n        /* \"#utility.yul\":7009:7027   */\n      tag_158\n      tag_132\n      jump\t// in\n    tag_158:\n        /* \"#utility.yul\":6941:7029   */\n    tag_157:\n        /* \"#utility.yul\":7049:7059   */\n      dup1\n        /* \"#utility.yul\":7045:7047   */\n      0x40\n        /* \"#utility.yul\":7038:7060   */\n      mstore\n        /* \"#utility.yul\":6828:7066   */\n      pop\n        /* \"#utility.yul\":6785:7066   */\n      pop\n      pop\n      jump\t// out\n        /* \"#utility.yul\":7072:7252   */\n    tag_154:\n        /* \"#utility.yul\":7120:7197   */\n      0x4e487b7100000000000000000000000000000000000000000000000000000000\n        /* \"#utility.yul\":7117:7118   */\n      0x00\n        /* \"#utility.yul\":7110:7198   */\n      mstore\n        /* \"#utility.yul\":7217:7221   */\n      0x22\n        /* \"#utility.yul\":7214:7215   */\n      0x04\n        /* \"#utility.yul\":7207:7222   */\n      mstore\n        /* \"#utility.yul\":7241:7245   */\n      0x24\n        /* \"#utility.yul\":7238:7239   */\n      0x00\n        /* \"#utility.yul\":7231:7246   */\n      revert\n        /* \"#utility.yul\":7258:7438   */\n    tag_132:\n        /* \"#utility.yul\":7306:7383   */\n      0x4e487b7100000000000000000000000000000000000000000000000000000000\n        /* \"#utility.yul\":7303:7304   */\n      0x00\n        /* \"#utility.yul\":7296:7384   */\n      mstore\n        /* \"#utility.yul\":7403:7407   */\n      0x41\n        /* \"#utility.yul\":7400:7401   */\n      0x04\n        /* \"#utility.yul\":7393:7408   */\n      mstore\n        /* \"#utility.yul\":7427:7431   */\n      0x24\n        /* \"#utility.yul\":7424:7425   */\n      0x00\n        /* \"#utility.yul\":7417:7432   */\n      revert\n        /* \"#utility.yul\":7444:7561   */\n    tag_66:\n        /* \"#utility.yul\":7553:7554   */\n      0x00\n        /* \"#utility.yul\":7550:7551   */\n      dup1\n        /* \"#utility.yul\":7543:7555   */\n      revert\n        /* \"#utility.yul\":7567:7684   */\n    tag_59:\n        /* \"#utility.yul\":7676:7677   */\n      0x00\n        /* \"#utility.yul\":7673:7674   */\n      dup1\n        /* \"#utility.yul\":7666:7678   */\n      revert\n        /* \"#utility.yul\":7690:7807   */\n    tag_78:\n        /* \"#utility.yul\":7799:7800   */\n      0x00\n        /* \"#utility.yul\":7796:7797   */\n      dup1\n        /* \"#utility.yul\":7789:7801   */\n      revert\n        /* \"#utility.yul\":7813:7930   */\n    tag_75:\n        /* \"#utility.yul\":7922:7923   */\n      0x00\n        /* \"#utility.yul\":7919:7920   */\n      dup1\n        /* \"#utility.yul\":7912:7924   */\n      revert\n        /* \"#utility.yul\":7936:8038   */\n    tag_134:\n        /* \"#utility.yul\":7977:7983   */\n      0x00\n        /* \"#utility.yul\":8028:8030   */\n      0x1f\n        /* \"#utility.yul\":8024:8031   */\n      not\n        /* \"#utility.yul\":8019:8021   */\n      0x1f\n        /* \"#utility.yul\":8012:8017   */\n      dup4\n        /* \"#utility.yul\":8008:8022   */\n      add\n        /* \"#utility.yul\":8004:8032   */\n      and\n        /* \"#utility.yul\":7994:8032   */\n      swap1\n      pop\n        /* \"#utility.yul\":7936:8038   */\n      swap2\n      swap1\n      pop\n      jump\t// out\n        /* \"#utility.yul\":8044:8214   */\n    tag_108:\n        /* \"#utility.yul\":8184:8206   */\n      0x4e6f206572657320656c2070726f6665736f722e000000000000000000000000\n        /* \"#utility.yul\":8180:8181   */\n      0x00\n        /* \"#utility.yul\":8172:8178   */\n      dup3\n        /* \"#utility.yul\":8168:8182   */\n      add\n        /* \"#utility.yul\":8161:8207   */\n      mstore\n        /* \"#utility.yul\":8044:8214   */\n      pop\n      jump\t// out\n        /* \"#utility.yul\":8220:8342   */\n    tag_71:\n        /* \"#utility.yul\":8293:8317   */\n      tag_168\n        /* \"#utility.yul\":8311:8316   */\n      dup2\n        /* \"#utility.yul\":8293:8317   */\n      tag_112\n      jump\t// in\n    tag_168:\n        /* \"#utility.yul\":8286:8291   */\n      dup2\n        /* \"#utility.yul\":8283:8318   */\n      eq\n        /* \"#utility.yul\":8273:8336   */\n      tag_169\n      jumpi\n        /* \"#utility.yul\":8332:8333   */\n      0x00\n        /* \"#utility.yul\":8329:8330   */\n      dup1\n        /* \"#utility.yul\":8322:8334   */\n      revert\n        /* \"#utility.yul\":8273:8336   */\n    tag_169:\n        /* \"#utility.yul\":8220:8342   */\n      pop\n      jump\t// out\n\n    auxdata: 0xa264697066735822122070ce164c8476be40a76830d2616eb284314df3fcb5f42a949d317c34448e49f364736f6c63430008070033\n}\n",
				"bytecode": {
					"linkReferences": {},
					"object": "608060405234801561001057600080fd5b50336000806101000a81548173ffffffffffffffffffffffffffffffffffffffff021916908373ffffffffffffffffffffffffffffffffffffffff1602179055506107ce806100606000396000f3fe608060405234801561001057600080fd5b506004361061004c5760003560e01c8063383bebae14610051578063ca981d911461006d578063deafddae14610089578063df096576146100b9575b600080fd5b61006b60048036038101906100669190610408565b6100d7565b005b610087600480360381019061008291906103bf565b6101e6565b005b6100a3600480360381019061009e91906103bf565b610225565b6040516100b09190610552565b60405180910390f35b6100c1610273565b6040516100ce91906104fc565b60405180910390f35b3360008054906101000a900473ffffffffffffffffffffffffffffffffffffffff1673ffffffffffffffffffffffffffffffffffffffff168173ffffffffffffffffffffffffffffffffffffffff1614610166576040517f08c379a000000000000000000000000000000000000000000000000000000000815260040161015d90610532565b60405180910390fd5b60008360405160200161017991906104e5565b6040516020818303038152906040528051906020012090508260016000838152602001908152602001600020819055507f9129eeeb684507aca017f10030b70e5bf86d129f417fcc5840348a957eb12cee816040516101d89190610517565b60405180910390a150505050565b600281908060018154018082558091505060019003906000526020600020016000909190919091509080519060200190610221929190610297565b5050565b6000808260405160200161023991906104e5565b6040516020818303038152906040528051906020012090506000600160008381526020019081526020016000205490508092505050919050565b60008054906101000a900473ffffffffffffffffffffffffffffffffffffffff1681565b8280546102a390610672565b90600052602060002090601f0160209004810192826102c5576000855561030c565b82601f106102de57805160ff191683800117855561030c565b8280016001018555821561030c579182015b8281111561030b5782518255916020019190600101906102f0565b5b509050610319919061031d565b5090565b5b8082111561033657600081600090555060010161031e565b5090565b600061034d61034884610592565b61056d565b90508281526020810184848401111561036957610368610738565b5b610374848285610630565b509392505050565b600082601f83011261039157610390610733565b5b81356103a184826020860161033a565b91505092915050565b6000813590506103b981610781565b92915050565b6000602082840312156103d5576103d4610742565b5b600082013567ffffffffffffffff8111156103f3576103f261073d565b5b6103ff8482850161037c565b91505092915050565b6000806040838503121561041f5761041e610742565b5b600083013567ffffffffffffffff81111561043d5761043c61073d565b5b6104498582860161037c565b925050602061045a858286016103aa565b9150509250929050565b61046d816105ea565b82525050565b61047c816105fc565b82525050565b600061048d826105c3565b61049781856105df565b93506104a781856020860161063f565b80840191505092915050565b60006104c06014836105ce565b91506104cb82610758565b602082019050919050565b6104df81610626565b82525050565b60006104f18284610482565b915081905092915050565b60006020820190506105116000830184610464565b92915050565b600060208201905061052c6000830184610473565b92915050565b6000602082019050818103600083015261054b816104b3565b9050919050565b600060208201905061056760008301846104d6565b92915050565b6000610577610588565b905061058382826106a4565b919050565b6000604051905090565b600067ffffffffffffffff8211156105ad576105ac610704565b5b6105b682610747565b9050602081019050919050565b600081519050919050565b600082825260208201905092915050565b600081905092915050565b60006105f582610606565b9050919050565b6000819050919050565b600073ffffffffffffffffffffffffffffffffffffffff82169050919050565b6000819050919050565b82818337600083830152505050565b60005b8381101561065d578082015181840152602081019050610642565b8381111561066c576000848401525b50505050565b6000600282049050600182168061068a57607f821691505b6020821081141561069e5761069d6106d5565b5b50919050565b6106ad82610747565b810181811067ffffffffffffffff821117156106cc576106cb610704565b5b80604052505050565b7f4e487b7100000000000000000000000000000000000000000000000000000000600052602260045260246000fd5b7f4e487b7100000000000000000000000000000000000000000000000000000000600052604160045260246000fd5b600080fd5b600080fd5b600080fd5b600080fd5b6000601f19601f8301169050919050565b7f4e6f206572657320656c2070726f6665736f722e000000000000000000000000600082015250565b61078a81610626565b811461079557600080fd5b5056fea264697066735822122070ce164c8476be40a76830d2616eb284314df3fcb5f42a949d317c34448e49f364736f6c63430008070033",
					"opcodes": "PUSH1 0x80 PUSH1 0x40 MSTORE CALLVALUE DUP1 ISZERO PUSH2 0x10 JUMPI PUSH1 0x0 DUP1 REVERT JUMPDEST POP CALLER PUSH1 0x0 DUP1 PUSH2 0x100 EXP DUP2 SLOAD DUP2 PUSH20 0xFFFFFFFFFFFFFFFFFFFFFFFFFFFFFFFFFFFFFFFF MUL NOT AND SWAP1 DUP4 PUSH20 0xFFFFFFFFFFFFFFFFFFFFFFFFFFFFFFFFFFFFFFFF AND MUL OR SWAP1 SSTORE POP PUSH2 0x7CE DUP1 PUSH2 0x60 PUSH1 0x0 CODECOPY PUSH1 0x0 RETURN INVALID PUSH1 0x80 PUSH1 0x40 MSTORE CALLVALUE DUP1 ISZERO PUSH2 0x10 JUMPI PUSH1 0x0 DUP1 REVERT JUMPDEST POP PUSH1 0x4 CALLDATASIZE LT PUSH2 0x4C JUMPI PUSH1 0x0 CALLDATALOAD PUSH1 0xE0 SHR DUP1 PUSH4 0x383BEBAE EQ PUSH2 0x51 JUMPI DUP1 PUSH4 0xCA981D91 EQ PUSH2 0x6D JUMPI DUP1 PUSH4 0xDEAFDDAE EQ PUSH2 0x89 JUMPI DUP1 PUSH4 0xDF096576 EQ PUSH2 0xB9 JUMPI JUMPDEST PUSH1 0x0 DUP1 REVERT JUMPDEST PUSH2 0x6B PUSH1 0x4 DUP1 CALLDATASIZE SUB DUP2 ADD SWAP1 PUSH2 0x66 SWAP2 SWAP1 PUSH2 0x408 JUMP JUMPDEST PUSH2 0xD7 JUMP JUMPDEST STOP JUMPDEST PUSH2 0x87 PUSH1 0x4 DUP1 CALLDATASIZE SUB DUP2 ADD SWAP1 PUSH2 0x82 SWAP2 SWAP1 PUSH2 0x3BF JUMP JUMPDEST PUSH2 0x1E6 JUMP JUMPDEST STOP JUMPDEST PUSH2 0xA3 PUSH1 0x4 DUP1 CALLDATASIZE SUB DUP2 ADD SWAP1 PUSH2 0x9E SWAP2 SWAP1 PUSH2 0x3BF JUMP JUMPDEST PUSH2 0x225 JUMP JUMPDEST PUSH1 0x40 MLOAD PUSH2 0xB0 SWAP2 SWAP1 PUSH2 0x552 JUMP JUMPDEST PUSH1 0x40 MLOAD DUP1 SWAP2 SUB SWAP1 RETURN JUMPDEST PUSH2 0xC1 PUSH2 0x273 JUMP JUMPDEST PUSH1 0x40 MLOAD PUSH2 0xCE SWAP2 SWAP1 PUSH2 0x4FC JUMP JUMPDEST PUSH1 0x40 MLOAD DUP1 SWAP2 SUB SWAP1 RETURN JUMPDEST CALLER PUSH1 0x0 DUP1 SLOAD SWAP1 PUSH2 0x100 EXP SWAP1 DIV PUSH20 0xFFFFFFFFFFFFFFFFFFFFFFFFFFFFFFFFFFFFFFFF AND PUSH20 0xFFFFFFFFFFFFFFFFFFFFFFFFFFFFFFFFFFFFFFFF AND DUP2 PUSH20 0xFFFFFFFFFFFFFFFFFFFFFFFFFFFFFFFFFFFFFFFF AND EQ PUSH2 0x166 JUMPI PUSH1 0x40 MLOAD PUSH32 0x8C379A000000000000000000000000000000000000000000000000000000000 DUP2 MSTORE PUSH1 0x4 ADD PUSH2 0x15D SWAP1 PUSH2 0x532 JUMP JUMPDEST PUSH1 0x40 MLOAD DUP1 SWAP2 SUB SWAP1 REVERT JUMPDEST PUSH1 0x0 DUP4 PUSH1 0x40 MLOAD PUSH1 0x20 ADD PUSH2 0x179 SWAP2 SWAP1 PUSH2 0x4E5 JUMP JUMPDEST PUSH1 0x40 MLOAD PUSH1 0x20 DUP2 DUP4 SUB SUB DUP2 MSTORE SWAP1 PUSH1 0x40 MSTORE DUP1 MLOAD SWAP1 PUSH1 0x20 ADD KECCAK256 SWAP1 POP DUP3 PUSH1 0x1 PUSH1 0x0 DUP4 DUP2 MSTORE PUSH1 0x20 ADD SWAP1 DUP2 MSTORE PUSH1 0x20 ADD PUSH1 0x0 KECCAK256 DUP2 SWAP1 SSTORE POP PUSH32 0x9129EEEB684507ACA017F10030B70E5BF86D129F417FCC5840348A957EB12CEE DUP2 PUSH1 0x40 MLOAD PUSH2 0x1D8 SWAP2 SWAP1 PUSH2 0x517 JUMP JUMPDEST PUSH1 0x40 MLOAD DUP1 SWAP2 SUB SWAP1 LOG1 POP POP POP POP JUMP JUMPDEST PUSH1 0x2 DUP2 SWAP1 DUP1 PUSH1 0x1 DUP2 SLOAD ADD DUP1 DUP3 SSTORE DUP1 SWAP2 POP POP PUSH1 0x1 SWAP1 SUB SWAP1 PUSH1 0x0 MSTORE PUSH1 0x20 PUSH1 0x0 KECCAK256 ADD PUSH1 0x0 SWAP1 SWAP2 SWAP1 SWAP2 SWAP1 SWAP2 POP SWAP1 DUP1 MLOAD SWAP1 PUSH1 0x20 ADD SWAP1 PUSH2 0x221 SWAP3 SWAP2 SWAP1 PUSH2 0x297 JUMP JUMPDEST POP POP JUMP JUMPDEST PUSH1 0x0 DUP1 DUP3 PUSH1 0x40 MLOAD PUSH1 0x20 ADD PUSH2 0x239 SWAP2 SWAP1 PUSH2 0x4E5 JUMP JUMPDEST PUSH1 0x40 MLOAD PUSH1 0x20 DUP2 DUP4 SUB SUB DUP2 MSTORE SWAP1 PUSH1 0x40 MSTORE DUP1 MLOAD SWAP1 PUSH1 0x20 ADD KECCAK256 SWAP1 POP PUSH1 0x0 PUSH1 0x1 PUSH1 0x0 DUP4 DUP2 MSTORE PUSH1 0x20 ADD SWAP1 DUP2 MSTORE PUSH1 0x20 ADD PUSH1 0x0 KECCAK256 SLOAD SWAP1 POP DUP1 SWAP3 POP POP POP SWAP2 SWAP1 POP JUMP JUMPDEST PUSH1 0x0 DUP1 SLOAD SWAP1 PUSH2 0x100 EXP SWAP1 DIV PUSH20 0xFFFFFFFFFFFFFFFFFFFFFFFFFFFFFFFFFFFFFFFF AND DUP2 JUMP JUMPDEST DUP3 DUP1 SLOAD PUSH2 0x2A3 SWAP1 PUSH2 0x672 JUMP JUMPDEST SWAP1 PUSH1 0x0 MSTORE PUSH1 0x20 PUSH1 0x0 KECCAK256 SWAP1 PUSH1 0x1F ADD PUSH1 0x20 SWAP1 DIV DUP2 ADD SWAP3 DUP3 PUSH2 0x2C5 JUMPI PUSH1 0x0 DUP6 SSTORE PUSH2 0x30C JUMP JUMPDEST DUP3 PUSH1 0x1F LT PUSH2 0x2DE JUMPI DUP1 MLOAD PUSH1 0xFF NOT AND DUP4 DUP1 ADD OR DUP6 SSTORE PUSH2 0x30C JUMP JUMPDEST DUP3 DUP1 ADD PUSH1 0x1 ADD DUP6 SSTORE DUP3 ISZERO PUSH2 0x30C JUMPI SWAP2 DUP3 ADD JUMPDEST DUP3 DUP2 GT ISZERO PUSH2 0x30B JUMPI DUP3 MLOAD DUP3 SSTORE SWAP2 PUSH1 0x20 ADD SWAP2 SWAP1 PUSH1 0x1 ADD SWAP1 PUSH2 0x2F0 JUMP JUMPDEST JUMPDEST POP SWAP1 POP PUSH2 0x319 SWAP2 SWAP1 PUSH2 0x31D JUMP JUMPDEST POP SWAP1 JUMP JUMPDEST JUMPDEST DUP1 DUP3 GT ISZERO PUSH2 0x336 JUMPI PUSH1 0x0 DUP2 PUSH1 0x0 SWAP1 SSTORE POP PUSH1 0x1 ADD PUSH2 0x31E JUMP JUMPDEST POP SWAP1 JUMP JUMPDEST PUSH1 0x0 PUSH2 0x34D PUSH2 0x348 DUP5 PUSH2 0x592 JUMP JUMPDEST PUSH2 0x56D JUMP JUMPDEST SWAP1 POP DUP3 DUP2 MSTORE PUSH1 0x20 DUP2 ADD DUP5 DUP5 DUP5 ADD GT ISZERO PUSH2 0x369 JUMPI PUSH2 0x368 PUSH2 0x738 JUMP JUMPDEST JUMPDEST PUSH2 0x374 DUP5 DUP3 DUP6 PUSH2 0x630 JUMP JUMPDEST POP SWAP4 SWAP3 POP POP POP JUMP JUMPDEST PUSH1 0x0 DUP3 PUSH1 0x1F DUP4 ADD SLT PUSH2 0x391 JUMPI PUSH2 0x390 PUSH2 0x733 JUMP JUMPDEST JUMPDEST DUP2 CALLDATALOAD PUSH2 0x3A1 DUP5 DUP3 PUSH1 0x20 DUP7 ADD PUSH2 0x33A JUMP JUMPDEST SWAP2 POP POP SWAP3 SWAP2 POP POP JUMP JUMPDEST PUSH1 0x0 DUP2 CALLDATALOAD SWAP1 POP PUSH2 0x3B9 DUP2 PUSH2 0x781 JUMP JUMPDEST SWAP3 SWAP2 POP POP JUMP JUMPDEST PUSH1 0x0 PUSH1 0x20 DUP3 DUP5 SUB SLT ISZERO PUSH2 0x3D5 JUMPI PUSH2 0x3D4 PUSH2 0x742 JUMP JUMPDEST JUMPDEST PUSH1 0x0 DUP3 ADD CALLDATALOAD PUSH8 0xFFFFFFFFFFFFFFFF DUP2 GT ISZERO PUSH2 0x3F3 JUMPI PUSH2 0x3F2 PUSH2 0x73D JUMP JUMPDEST JUMPDEST PUSH2 0x3FF DUP5 DUP3 DUP6 ADD PUSH2 0x37C JUMP JUMPDEST SWAP2 POP POP SWAP3 SWAP2 POP POP JUMP JUMPDEST PUSH1 0x0 DUP1 PUSH1 0x40 DUP4 DUP6 SUB SLT ISZERO PUSH2 0x41F JUMPI PUSH2 0x41E PUSH2 0x742 JUMP JUMPDEST JUMPDEST PUSH1 0x0 DUP4 ADD CALLDATALOAD PUSH8 0xFFFFFFFFFFFFFFFF DUP2 GT ISZERO PUSH2 0x43D JUMPI PUSH2 0x43C PUSH2 0x73D JUMP JUMPDEST JUMPDEST PUSH2 0x449 DUP6 DUP3 DUP7 ADD PUSH2 0x37C JUMP JUMPDEST SWAP3 POP POP PUSH1 0x20 PUSH2 0x45A DUP6 DUP3 DUP7 ADD PUSH2 0x3AA JUMP JUMPDEST SWAP2 POP POP SWAP3 POP SWAP3 SWAP1 POP JUMP JUMPDEST PUSH2 0x46D DUP2 PUSH2 0x5EA JUMP JUMPDEST DUP3 MSTORE POP POP JUMP JUMPDEST PUSH2 0x47C DUP2 PUSH2 0x5FC JUMP JUMPDEST DUP3 MSTORE POP POP JUMP JUMPDEST PUSH1 0x0 PUSH2 0x48D DUP3 PUSH2 0x5C3 JUMP JUMPDEST PUSH2 0x497 DUP2 DUP6 PUSH2 0x5DF JUMP JUMPDEST SWAP4 POP PUSH2 0x4A7 DUP2 DUP6 PUSH1 0x20 DUP7 ADD PUSH2 0x63F JUMP JUMPDEST DUP1 DUP5 ADD SWAP2 POP POP SWAP3 SWAP2 POP POP JUMP JUMPDEST PUSH1 0x0 PUSH2 0x4C0 PUSH1 0x14 DUP4 PUSH2 0x5CE JUMP JUMPDEST SWAP2 POP PUSH2 0x4CB DUP3 PUSH2 0x758 JUMP JUMPDEST PUSH1 0x20 DUP3 ADD SWAP1 POP SWAP2 SWAP1 POP JUMP JUMPDEST PUSH2 0x4DF DUP2 PUSH2 0x626 JUMP JUMPDEST DUP3 MSTORE POP POP JUMP JUMPDEST PUSH1 0x0 PUSH2 0x4F1 DUP3 DUP5 PUSH2 0x482 JUMP JUMPDEST SWAP2 POP DUP2 SWAP1 POP SWAP3 SWAP2 POP POP JUMP JUMPDEST PUSH1 0x0 PUSH1 0x20 DUP3 ADD SWAP1 POP PUSH2 0x511 PUSH1 0x0 DUP4 ADD DUP5 PUSH2 0x464 JUMP JUMPDEST SWAP3 SWAP2 POP POP JUMP JUMPDEST PUSH1 0x0 PUSH1 0x20 DUP3 ADD SWAP1 POP PUSH2 0x52C PUSH1 0x0 DUP4 ADD DUP5 PUSH2 0x473 JUMP JUMPDEST SWAP3 SWAP2 POP POP JUMP JUMPDEST PUSH1 0x0 PUSH1 0x20 DUP3 ADD SWAP1 POP DUP2 DUP2 SUB PUSH1 0x0 DUP4 ADD MSTORE PUSH2 0x54B DUP2 PUSH2 0x4B3 JUMP JUMPDEST SWAP1 POP SWAP2 SWAP1 POP JUMP JUMPDEST PUSH1 0x0 PUSH1 0x20 DUP3 ADD SWAP1 POP PUSH2 0x567 PUSH1 0x0 DUP4 ADD DUP5 PUSH2 0x4D6 JUMP JUMPDEST SWAP3 SWAP2 POP POP JUMP JUMPDEST PUSH1 0x0 PUSH2 0x577 PUSH2 0x588 JUMP JUMPDEST SWAP1 POP PUSH2 0x583 DUP3 DUP3 PUSH2 0x6A4 JUMP JUMPDEST SWAP2 SWAP1 POP JUMP JUMPDEST PUSH1 0x0 PUSH1 0x40 MLOAD SWAP1 POP SWAP1 JUMP JUMPDEST PUSH1 0x0 PUSH8 0xFFFFFFFFFFFFFFFF DUP3 GT ISZERO PUSH2 0x5AD JUMPI PUSH2 0x5AC PUSH2 0x704 JUMP JUMPDEST JUMPDEST PUSH2 0x5B6 DUP3 PUSH2 0x747 JUMP JUMPDEST SWAP1 POP PUSH1 0x20 DUP2 ADD SWAP1 POP SWAP2 SWAP1 POP JUMP JUMPDEST PUSH1 0x0 DUP2 MLOAD SWAP1 POP SWAP2 SWAP1 POP JUMP JUMPDEST PUSH1 0x0 DUP3 DUP3 MSTORE PUSH1 0x20 DUP3 ADD SWAP1 POP SWAP3 SWAP2 POP POP JUMP JUMPDEST PUSH1 0x0 DUP2 SWAP1 POP SWAP3 SWAP2 POP POP JUMP JUMPDEST PUSH1 0x0 PUSH2 0x5F5 DUP3 PUSH2 0x606 JUMP JUMPDEST SWAP1 POP SWAP2 SWAP1 POP JUMP JUMPDEST PUSH1 0x0 DUP2 SWAP1 POP SWAP2 SWAP1 POP JUMP JUMPDEST PUSH1 0x0 PUSH20 0xFFFFFFFFFFFFFFFFFFFFFFFFFFFFFFFFFFFFFFFF DUP3 AND SWAP1 POP SWAP2 SWAP1 POP JUMP JUMPDEST PUSH1 0x0 DUP2 SWAP1 POP SWAP2 SWAP1 POP JUMP JUMPDEST DUP3 DUP2 DUP4 CALLDATACOPY PUSH1 0x0 DUP4 DUP4 ADD MSTORE POP POP POP JUMP JUMPDEST PUSH1 0x0 JUMPDEST DUP4 DUP2 LT ISZERO PUSH2 0x65D JUMPI DUP1 DUP3 ADD MLOAD DUP2 DUP5 ADD MSTORE PUSH1 0x20 DUP2 ADD SWAP1 POP PUSH2 0x642 JUMP JUMPDEST DUP4 DUP2 GT ISZERO PUSH2 0x66C JUMPI PUSH1 0x0 DUP5 DUP5 ADD MSTORE JUMPDEST POP POP POP POP JUMP JUMPDEST PUSH1 0x0 PUSH1 0x2 DUP3 DIV SWAP1 POP PUSH1 0x1 DUP3 AND DUP1 PUSH2 0x68A JUMPI PUSH1 0x7F DUP3 AND SWAP2 POP JUMPDEST PUSH1 0x20 DUP3 LT DUP2 EQ ISZERO PUSH2 0x69E JUMPI PUSH2 0x69D PUSH2 0x6D5 JUMP JUMPDEST JUMPDEST POP SWAP2 SWAP1 POP JUMP JUMPDEST PUSH2 0x6AD DUP3 PUSH2 0x747 JUMP JUMPDEST DUP2 ADD DUP2 DUP2 LT PUSH8 0xFFFFFFFFFFFFFFFF DUP3 GT OR ISZERO PUSH2 0x6CC JUMPI PUSH2 0x6CB PUSH2 0x704 JUMP JUMPDEST JUMPDEST DUP1 PUSH1 0x40 MSTORE POP POP POP JUMP JUMPDEST PUSH32 0x4E487B7100000000000000000000000000000000000000000000000000000000 PUSH1 0x0 MSTORE PUSH1 0x22 PUSH1 0x4 MSTORE PUSH1 0x24 PUSH1 0x0 REVERT JUMPDEST PUSH32 0x4E487B7100000000000000000000000000000000000000000000000000000000 PUSH1 0x0 MSTORE PUSH1 0x41 PUSH1 0x4 MSTORE PUSH1 0x24 PUSH1 0x0 REVERT JUMPDEST PUSH1 0x0 DUP1 REVERT JUMPDEST PUSH1 0x0 DUP1 REVERT JUMPDEST PUSH1 0x0 DUP1 REVERT JUMPDEST PUSH1 0x0 DUP1 REVERT JUMPDEST PUSH1 0x0 PUSH1 0x1F NOT PUSH1 0x1F DUP4 ADD AND SWAP1 POP SWAP2 SWAP1 POP JUMP JUMPDEST PUSH32 0x4E6F206572657320656C2070726F6665736F722E000000000000000000000000 PUSH1 0x0 DUP3 ADD MSTORE POP JUMP JUMPDEST PUSH2 0x78A DUP2 PUSH2 0x626 JUMP JUMPDEST DUP2 EQ PUSH2 0x795 JUMPI PUSH1 0x0 DUP1 REVERT JUMPDEST POP JUMP INVALID LOG2 PUSH5 0x6970667358 0x22 SLT KECCAK256 PUSH17 0xCE164C8476BE40A76830D2616EB284314D RETURN 0xFC 0xB5 DELEGATECALL 0x2A SWAP5 SWAP14 BALANCE PUSH29 0x34448E49F364736F6C6343000807003300000000000000000000000000 "
				},
				"gasEstimates": {
					"creation": {
						"codeDepositCost": "399600",
						"executionCost": "24702",
						"totalCost": "424302"
					},
					"external": {
						"evaluar(string,uint256)": "infinite",
						"profesor()": "2555",
						"revision(string)": "infinite",
						"verNotas(string)": "infinite"
					}
				},
				"methodIdentifiers": {
					"evaluar(string,uint256)": "383bebae",
					"profesor()": "df096576",
					"revision(string)": "ca981d91",
					"verNotas(string)": "deafddae"
				}
			},
			"storageLayout": {
				"storage": [
					{
						"astId": 4,
						"contract": "Notas/notas.sol:notas",
						"label": "profesor",
						"offset": 0,
						"slot": "0",
						"type": "t_address"
					},
					{
						"astId": 17,
						"contract": "Notas/notas.sol:notas",
						"label": "Notas",
						"offset": 0,
						"slot": "1",
						"type": "t_mapping(t_bytes32,t_uint256)"
					},
					{
						"astId": 20,
						"contract": "Notas/notas.sol:notas",
						"label": "revisiones",
						"offset": 0,
						"slot": "2",
						"type": "t_array(t_string_storage)dyn_storage"
					}
				],
				"types": {
					"t_address": {
						"encoding": "inplace",
						"label": "address",
						"numberOfBytes": "20"
					},
					"t_array(t_string_storage)dyn_storage": {
						"base": "t_string_storage",
						"encoding": "dynamic_array",
						"label": "string[]",
						"numberOfBytes": "32"
					},
					"t_bytes32": {
						"encoding": "inplace",
						"label": "bytes32",
						"numberOfBytes": "32"
					},
					"t_mapping(t_bytes32,t_uint256)": {
						"encoding": "mapping",
						"key": "t_bytes32",
						"label": "mapping(bytes32 => uint256)",
						"numberOfBytes": "32",
						"value": "t_uint256"
					},
					"t_string_storage": {
						"encoding": "bytes",
						"label": "string",
						"numberOfBytes": "32"
					},
					"t_uint256": {
						"encoding": "inplace",
						"label": "uint256",
						"numberOfBytes": "32"
					}
				}
			},
			"userdoc": {
				"kind": "user",
				"methods": {},
				"version": 1
			}
		}
	}
}